{
  "contractName": "TokensEqualTextBuilder",
  "abi": [
    {
      "constant": false,
      "inputs": [],
      "name": "renounceOwnership",
      "outputs": [],
      "payable": false,
      "stateMutability": "nonpayable",
      "type": "function"
    },
    {
      "constant": true,
      "inputs": [],
      "name": "owner",
      "outputs": [
        {
          "name": "",
          "type": "address"
        }
      ],
      "payable": false,
      "stateMutability": "view",
      "type": "function"
    },
    {
      "constant": true,
      "inputs": [],
      "name": "isOwner",
      "outputs": [
        {
          "name": "",
          "type": "bool"
        }
      ],
      "payable": false,
      "stateMutability": "view",
      "type": "function"
    },
    {
      "constant": false,
      "inputs": [
        {
          "name": "newOwner",
          "type": "address"
        }
      ],
      "name": "transferOwnership",
      "outputs": [],
      "payable": false,
      "stateMutability": "nonpayable",
      "type": "function"
    },
    {
      "anonymous": false,
      "inputs": [
        {
          "indexed": true,
          "name": "previousOwner",
          "type": "address"
        },
        {
          "indexed": true,
          "name": "newOwner",
          "type": "address"
        }
      ],
      "name": "OwnershipTransferred",
      "type": "event"
    },
    {
      "constant": false,
      "inputs": [],
      "name": "createERC721",
      "outputs": [],
      "payable": false,
      "stateMutability": "nonpayable",
      "type": "function"
    },
    {
      "constant": false,
      "inputs": [],
      "name": "createERC998",
      "outputs": [],
      "payable": false,
      "stateMutability": "nonpayable",
      "type": "function"
    },
    {
      "constant": false,
      "inputs": [
        {
          "name": "_tokens",
          "type": "address"
        }
      ],
      "name": "buildERC721s",
      "outputs": [],
      "payable": false,
      "stateMutability": "nonpayable",
      "type": "function"
    }
  ],
  "bytecode": "0x6080604081905260008054600160a060020a0319163317808255600160a060020a0316917f8be0079c531659141344cd1fd0a4f28419497f9722a3daafe3b4186f6b6457e0908290a36154b5806100576000396000f3fe608060405260043610620000715763ffffffff60e060020a600035041663715018a68114620000765780637a10c49814620000905780638da5cb5b14620000a85780638f32d59b14620000dc578063aa2cab9c1462000108578063f2fde38b146200013f578063f91fdf8f1462000176575b600080fd5b3480156200008357600080fd5b506200008e6200018e565b005b3480156200009d57600080fd5b506200008e620001fb565b348015620000b557600080fd5b50620000c062000268565b60408051600160a060020a039092168252519081900360200190f35b348015620000e957600080fd5b50620000f462000277565b604080519115158252519081900360200190f35b3480156200011557600080fd5b506200008e600480360360208110156200012e57600080fd5b5035600160a060020a031662000288565b3480156200014c57600080fd5b506200008e600480360360208110156200016557600080fd5b5035600160a060020a031662000f2a565b3480156200018357600080fd5b506200008e62000f4e565b6200019862000277565b1515620001a457600080fd5b60008054604051600160a060020a03909116907f8be0079c531659141344cd1fd0a4f28419497f9722a3daafe3b4186f6b6457e0908390a36000805473ffffffffffffffffffffffffffffffffffffffff19169055565b6200020562000277565b15156200021157600080fd5b6200021b620010ba565b604051809103906000f08015801562000238573d6000803e3d6000fd5b506002805473ffffffffffffffffffffffffffffffffffffffff1916600160a060020a0392909216919091179055565b600054600160a060020a031690565b600054600160a060020a0316331490565b6200029262000277565b15156200029e57600080fd5b620002a8620010cb565b610200604051908101604052807f636c6173736963616c20706c696e74687300000000000000000000000000000081526020017f726564206c616d626f726768696e69000000000000000000000000000000000081526020017f70616c6d2074726565000000000000000000000000000000000000000000000081526020017f636c6173736963616c206275737400000000000000000000000000000000000081526020017f646f6c7068696e206a756d70696e67000000000000000000000000000000000081526020017f646f6c7068696e7320646976696e67000000000000000000000000000000000081526020017f666c616d696e676f00000000000000000000000000000000000000000000000081526020017f79656c6c6f77206c616d626f726768696e69000000000000000000000000000081526020017f646f6c7068696e73207377696d6d696e6700000000000000000000000000000081526020017f646f6c7068696e20646976696e6700000000000000000000000000000000000081526020017f70616c6d2074726565730000000000000000000000000000000000000000000081526020017f646f6c7068696e73206a756d70696e670000000000000000000000000000000081526020017f646f6c7068696e207377696d6d696e670000000000000000000000000000000081526020017f666c616d696e676f73000000000000000000000000000000000000000000000081526020017f636c6173736963616c20627573742077656172696e672073686164657300000081526020017f636c6173736963616c20706c696e74680000000000000000000000000000000081525090506200051f620010cb565b610200604051908101604052807f6e656f6e20626c7565206772696400000000000000000000000000000000000081526020017f636f6e736f6c6520677265656e2067726964000000000000000000000000000081526020017f6e656f6e206c696d6520677265656e206772696400000000000000000000000081526020017f7468696e206e656f6e2070696e6b20747269616e676c6500000000000000000081526020017f6e656f6e2070696e6b2062616e647320696e207065727370656374697665000081526020017f6e656f6e20677265656e2067726964000000000000000000000000000000000081526020017f636f6e736f6c65206f72616e67652067726964206c616e64736361706500000081526020017f636f6e736f6c65206f72616e676520677269640000000000000000000000000081526020017f726f61642073747265746368696e67206177617900000000000000000000000081526020017f7468696e20636f6e736f6c6520677265656e20747269616e676c65000000000081526020017f6e656f6e20677265656e2067726964206c616e6473636170650000000000000081526020017f6e656f6e20626c75652067726964206c616e647363617065000000000000000081526020017f646961676f6e616c20636865737320626f61726400000000000000000000000081526020017f636f6e736f6c6520677265656e2067726964206c616e6473636170650000000081526020017f6e656f6e206c696d6520677265656e2067726964206c616e647363617065000081526020017f636865737320626f617264000000000000000000000000000000000000000000815250905062000796620010cb565b610200604051908101604052807f707572706c652f70696e6b2073756e206469736b00000000000000000000000081526020017f73756e206469736b207468726f7567682070696e6b2068617a6500000000000081526020017f766964656f20696e746572666572656e6365000000000000000000000000000081526020017f7265666c656374656420726970706c657300000000000000000000000000000081526020017f64697374616e74206369747973636170652073696c686f75657474656400000081526020017f73706172736520636c6f7564730000000000000000000000000000000000000081526020017f666c6174206f72616e67652073756e206469736b00000000000000000000000081526020017f7265666c656374696f6e7320726970706c65206f6e2074686520666c6f6f720081526020017f79656c6c6f772f6f72616e6765206772616469656e742073756e206469736b0081526020017f746967687420736861646f7773206f6e2074686520666c6f6f7200000000000081526020017f73616e642064756e65732073747265746368696e67206177617900000000000081526020017f73616e642064756e6573206174206e696768740000000000000000000000000081526020017f6c6f6e6720736861646f7773206f6e2074686520666c6f6f720000000000000081526020017f64697374616e74206d6f756e7461696e732073696c686f75657474656400000081526020017f7265666c656374696f6e73206f6e2074686520666c6f6f72000000000000000081526020017f7265642f70696e6b2073756e206469736b000000000000000000000000000000815250905062000a0d620010cb565b5060408051610200810182527f6379616e2f70696e6b206772616469656e74000000000000000000000000000081527f676c69746368656420626c61636b00000000000000000000000000000000000060208201527f636c6f7564730000000000000000000000000000000000000000000000000000918101919091527f6d6163682d62616e64656420737461726669656c64000000000000000000000060608201527f707572706c652f6d6167656e7461206772616469656e7400000000000000000060808201527f7374617273207365656e207468726f75676820636c6f7564730000000000000060a08201527f70696e6b2f7768697465206772616469656e740000000000000000000000000060c08201527f73746174696320626c61636b000000000000000000000000000000000000000060e08201527f737461726669656c6400000000000000000000000000000000000000000000006101008201527f676c69746368656420737461726669656c6400000000000000000000000000006101208201527f6f72616e67652f70696e6b2f707572706c65206772616469656e7400000000006101408201527f6f72616e67652f626c61636b206772616469656e7400000000000000000000006101608201527f6379616e20676175737369616e206e6f697365000000000000000000000000006101808201527f70696e6b2f626c7565206772616469656e7400000000000000000000000000006101a08201527f666c6174207761726d20626c75652d626c61636b0000000000000000000000006101c08201527f6379616e2f6e61767920626c7565206772616469656e740000000000000000006101e082015260005b600181101562000f2257600160a060020a0386166340c10f193387846010811062000caa57fe5b60200201516040518363ffffffff1660e060020a0281526004018083600160a060020a0316600160a060020a0316815260200182815260200192505050602060405180830381600087803b15801562000d0257600080fd5b505af115801562000d17573d6000803e3d6000fd5b505050506040513d602081101562000d2e57600080fd5b5050600160a060020a0386166340c10f193386846010811062000d4d57fe5b60200201516040518363ffffffff1660e060020a0281526004018083600160a060020a0316600160a060020a0316815260200182815260200192505050602060405180830381600087803b15801562000da557600080fd5b505af115801562000dba573d6000803e3d6000fd5b505050506040513d602081101562000dd157600080fd5b5050600160a060020a0386166340c10f193385846010811062000df057fe5b60200201516040518363ffffffff1660e060020a0281526004018083600160a060020a0316600160a060020a0316815260200182815260200192505050602060405180830381600087803b15801562000e4857600080fd5b505af115801562000e5d573d6000803e3d6000fd5b505050506040513d602081101562000e7457600080fd5b5050600160a060020a0386166340c10f193384846010811062000e9357fe5b60200201516040518363ffffffff1660e060020a0281526004018083600160a060020a0316600160a060020a0316815260200182815260200192505050602060405180830381600087803b15801562000eeb57600080fd5b505af115801562000f00573d6000803e3d6000fd5b505050506040513d602081101562000f1757600080fd5b505060010162000c83565b505050505050565b62000f3462000277565b151562000f4057600080fd5b62000f4b816200103c565b50565b62000f5862000277565b151562000f6457600080fd5b600062000f70620010eb565b604051809103906000f08015801562000f8d573d6000803e3d6000fd5b50604080517f983b2d560000000000000000000000000000000000000000000000000000000081523060048201529051919250600160a060020a0383169163983b2d569160248082019260009290919082900301818387803b15801562000ff357600080fd5b505af115801562001008573d6000803e3d6000fd5b50506001805473ffffffffffffffffffffffffffffffffffffffff1916600160a060020a0394909416939093179092555050565b600160a060020a03811615156200105257600080fd5b60008054604051600160a060020a03808516939216917f8be0079c531659141344cd1fd0a4f28419497f9722a3daafe3b4186f6b6457e091a36000805473ffffffffffffffffffffffffffffffffffffffff1916600160a060020a0392909216919091179055565b604051612cbc80620010fd83390190565b610200604051908101604052806010906020820280388339509192915050565b6040516116d18062003db98339019056fe608060405260006005556200003d7f01ffc9a70000000000000000000000000000000000000000000000000000000064010000000062000077810204565b620000717f80ac58cd0000000000000000000000000000000000000000000000000000000064010000000062000077810204565b620000e4565b7fffffffff000000000000000000000000000000000000000000000000000000008082161415620000a757600080fd5b7fffffffff00000000000000000000000000000000000000000000000000000000166000908152602081905260409020805460ff19166001179055565b612bc880620000f46000396000f3fe60806040526004361061015b5763ffffffff60e060020a60003504166301ffc9a7811461016057806306fdde03146101a8578063081812fc1461023257806308937f6214610278578063095ea7b3146103225780630d5a621b1461035b578063150b7a021461038b578063160b01a1146104455780631d98f3c51461049657806323b872dd146104df57806335b21ceb1461052257806342842e0e1461055b57806343a61a8e1461059e5780635680a3ad146105c85780636352211e146106015780636a6278421461062b57806370a082311461065e5780638d81f51e146106915780638da7d0b51461073357806395d89b411461075d578063a22cb46514610772578063b88d4fde146107ad578063ba6b5f9614610880578063bef44f18146108c7578063c87b56dd14610910578063e985e9c51461093a578063eadb80b814610975578063ed81cdda146109c7578063f0b9e5ba14610a00575b600080fd5b34801561016c57600080fd5b506101946004803603602081101561018357600080fd5b5035600160e060020a031916610a92565b604080519115158252519081900360200190f35b3480156101b457600080fd5b506101bd610ab1565b6040805160208082528351818301528351919283929083019185019080838360005b838110156101f75781810151838201526020016101df565b50505050905090810190601f1680156102245780820380516001836020036101000a031916815260200191505b509250505060405180910390f35b34801561023e57600080fd5b5061025c6004803603602081101561025557600080fd5b5035610ae9565b60408051600160a060020a039092168252519081900360200190f35b34801561028457600080fd5b50610320600480360360c081101561029b57600080fd5b813591600160a060020a03602082013581169260408301359260608101359092169160808101359181019060c0810160a08201356401000000008111156102e157600080fd5b8201836020820111156102f357600080fd5b8035906020019184600183028401116401000000008311171561031557600080fd5b509092509050610b23565b005b34801561032e57600080fd5b506103206004803603604081101561034557600080fd5b50600160a060020a038135169060200135610d46565b34801561036757600080fd5b5061025c6004803603604081101561037e57600080fd5b5080359060200135610e0b565b34801561039757600080fd5b50610428600480360360808110156103ae57600080fd5b600160a060020a038235811692602081013590911691604082013591908101906080810160608201356401000000008111156103e957600080fd5b8201836020820111156103fb57600080fd5b8035906020019184600183028401116401000000008311171561041d57600080fd5b509092509050610ece565b60408051600160e060020a03199092168252519081900360200190f35b34801561045157600080fd5b506104846004803603606081101561046857600080fd5b50803590600160a060020a0360208201351690604001356110a2565b60408051918252519081900360200190f35b3480156104a257600080fd5b50610320600480360360808110156104b957600080fd5b50803590600160a060020a03602082013581169160408101359091169060600135611183565b3480156104eb57600080fd5b506103206004803603606081101561050257600080fd5b50600160a060020a03813581169160208101359091169060400135611360565b34801561052e57600080fd5b506104846004803603604081101561054557600080fd5b5080359060200135600160a060020a0316611370565b34801561056757600080fd5b506103206004803603606081101561057e57600080fd5b50600160a060020a03813581169160208101359091169060400135611398565b3480156105aa57600080fd5b50610484600480360360208110156105c157600080fd5b503561149b565b3480156105d457600080fd5b50610194600480360360408110156105eb57600080fd5b50600160a060020a0381351690602001356114a8565b34801561060d57600080fd5b5061025c6004803603602081101561062457600080fd5b50356114ed565b34801561063757600080fd5b506104846004803603602081101561064e57600080fd5b5035600160a060020a0316611516565b34801561066a57600080fd5b506104846004803603602081101561068157600080fd5b5035600160a060020a0316611573565b34801561069d57600080fd5b50610320600480360360a08110156106b457600080fd5b813591600160a060020a03602082013581169260408301359091169160608101359181019060a0810160808201356401000000008111156106f457600080fd5b82018360208201111561070657600080fd5b8035906020019184600183028401116401000000008311171561072857600080fd5b5090925090506115a6565b34801561073f57600080fd5b506104846004803603602081101561075657600080fd5b50356117c0565b34801561076957600080fd5b506101bd6117d2565b34801561077e57600080fd5b506103206004803603604081101561079557600080fd5b50600160a060020a0381351690602001351515611809565b3480156107b957600080fd5b50610320600480360360808110156107d057600080fd5b600160a060020a0382358116926020810135909116916040820135919081019060808101606082013564010000000081111561080b57600080fd5b82018360208201111561081d57600080fd5b8035906020019184600183028401116401000000008311171561083f57600080fd5b91908080601f01602080910402602001604051908101604052809392919081815260200183838082843760009201919091525092955061188c945050505050565b34801561088c57600080fd5b50610320600480360360808110156108a357600080fd5b50600160a060020a03813581169160208101359160408201351690606001356119f2565b3480156108d357600080fd5b50610320600480360360808110156108ea57600080fd5b50803590600160a060020a03602082013581169160408101359091169060600135611bce565b34801561091c57600080fd5b506101bd6004803603602081101561093357600080fd5b5035611e25565b34801561094657600080fd5b506101946004803603604081101561095d57600080fd5b50600160a060020a0381358116916020013516611e38565b34801561098157600080fd5b506109ae6004803603604081101561099857600080fd5b50600160a060020a038135169060200135611e93565b6040805192835260208301919091528051918290030190f35b3480156109d357600080fd5b50610484600480360360408110156109ea57600080fd5b50600160a060020a038135169060200135611f3b565b348015610a0c57600080fd5b5061042860048036036060811015610a2357600080fd5b600160a060020a0382351691602081013591810190606081016040820135640100000000811115610a5357600080fd5b820183602082011115610a6557600080fd5b80359060200191846001830284011164010000000083111715610a8757600080fd5b509092509050612079565b600160e060020a03191660009081526020819052604090205460ff1690565b60408051808201909152601981527f546f6b656e7320457175616c2054657874204552432d3939380000000000000060208201525b90565b600080610af58361149b565b600160a060020a03908116600090815260076020908152604080832087845290915290205416915050919050565b600160a060020a0384166000908152600e6020908152604080832086845290915281205490811180610b7d57506000818152600d60209081526040808320600160a060020a03891684528252808320878452909152812054115b1515610b8857600080fd5b808814610b9457600080fd5b600160a060020a0387161515610ba957600080fd5b6000610bb48261149b565b9050600160a060020a038116331480610bf05750600160a060020a038116600090815260096020908152604080832033845290915290205460ff165b80610c1f5750600160a060020a0381811660009081526007602090815260408083208684529091529020541633145b1515610c2a57600080fd5b610c3589878761224c565b6040517ff50acfa00000000000000000000000000000000000000000000000000000000081523060048201818152600160a060020a038b81166024850152604484018b90526064840189905260a06084850190815260a48501889052908a169363f50acfa093928d928d928c928c928c9260c401848480828437600081840152601f19601f820116905080830192505050975050505050505050600060405180830381600087803b158015610ce957600080fd5b505af1158015610cfd573d6000803e3d6000fd5b5050505085600160a060020a031688600160a060020a03168a600080516020612b7d833981519152886040518082815260200191505060405180910390a4505050505050505050565b6000610d518261149b565b9050600160a060020a038116331480610d8d5750600160a060020a038116600090815260096020908152604080832033845290915290205460ff165b1515610d9857600080fd5b600160a060020a038181166000818152600760209081526040808320878452909152808220805473ffffffffffffffffffffffffffffffffffffffff1916948816948517905551859392917f8c5be1e5ebec7d5bd14f71427d1e84f3dd0314c0f7b2291e5b200ac8c7c3b92591a4505050565b6000828152600a60205260408120548210610e96576040805160e560020a62461bcd02815260206004820152603960248201527f436f6e7472616374206164647265737320646f6573206e6f742065786973742060448201527f666f72207468697320746f6b656e20616e6420696e6465782e00000000000000606482015290519081900360840190fd5b6000838152600a60205260409020805483908110610eb057fe5b600091825260209091200154600160a060020a031690505b92915050565b6000808211610f73576040805160e560020a62461bcd02815260206004820152604660248201527f5f64617461206d75737420636f6e7461696e207468652075696e74323536207460448201527f6f6b656e496420746f207472616e7366657220746865206368696c6420746f6b60648201527f656e20746f2e0000000000000000000000000000000000000000000000000000608482015290519081900360a40190fd5b60a4356020831015610f8d57600883026101000360020a90045b610f998682338861251d565b6000600160a060020a031633600160a060020a0316636352211e876040518263ffffffff1660e060020a0281526004018082815260200191505060206040518083038186803b158015610feb57600080fd5b505afa158015610fff573d6000803e3d6000fd5b505050506040513d602081101561101557600080fd5b5051600160a060020a03161415611076576040805160e560020a62461bcd02815260206004820152601660248201527f4368696c6420746f6b656e206e6f74206f776e65642e00000000000000000000604482015290519081900360640190fd5b507f150b7a02000000000000000000000000000000000000000000000000000000009695505050505050565b6000838152600c60209081526040808320600160a060020a03861684529091528120548210611141576040805160e560020a62461bcd02815260206004820152603f60248201527f546f6b656e20646f6573206e6f74206f776e2061206368696c6420746f6b656e60448201527f20617420636f6e7472616374206164647265737320616e6420696e6465782e00606482015290519081900360840190fd5b6000848152600c60209081526040808320600160a060020a0387168452909152902080548390811061116f57fe5b906000526020600020015490509392505050565b600160a060020a0382166000908152600e60209081526040808320848452909152812054908111806111dd57506000818152600d60209081526040808320600160a060020a03871684528252808320858452909152812054115b15156111e857600080fd5b8085146111f457600080fd5b600160a060020a038416151561120957600080fd5b60006112148261149b565b9050600160a060020a0381163314806112505750600160a060020a038116600090815260096020908152604080832033845290915290205460ff165b8061127f5750600160a060020a0381811660009081526007602090815260408083208684529091529020541633145b151561128a57600080fd5b61129582858561224c565b604080517f42842e0e000000000000000000000000000000000000000000000000000000008152306004820152600160a060020a038781166024830152604482018690529151918616916342842e0e9160648082019260009290919082900301818387803b15801561130657600080fd5b505af115801561131a573d6000803e3d6000fd5b5050505083600160a060020a031685600160a060020a031683600080516020612b7d833981519152866040518082815260200191505060405180910390a4505050505050565b61136b838383612766565b505050565b6000918252600c60209081526040808420600160a060020a0393909316845291905290205490565b6113a3838383612766565b6113ac82612ab1565b1561136b57604080517f150b7a02000000000000000000000000000000000000000000000000000000008152336004820152600160a060020a038581166024830152604482018490526080606483015260006084830181905292519085169163150b7a029160c480830192602092919082900301818787803b15801561143157600080fd5b505af1158015611445573d6000803e3d6000fd5b505050506040513d602081101561145b57600080fd5b50519050600160e060020a031981167ff0b9e5ba000000000000000000000000000000000000000000000000000000001461149557600080fd5b50505050565b6000610ec8600083611f3b565b600160a060020a0382166000818152600e602090815260408083208584528252808320548352600d825280832093835292815282822084835290522054151592915050565b600081815260066020526040902054600160a060020a031680151561151157600080fd5b919050565b6005805460019081019182905560008281526006602090815260408083208054600160a060020a03881673ffffffffffffffffffffffffffffffffffffffff19909116811790915583526008909152902080549091019055919050565b6000600160a060020a038216151561158a57600080fd5b50600160a060020a031660009081526008602052604090205490565b600160a060020a0384166000908152600e602090815260408083208684529091528120549081118061160057506000818152600d60209081526040808320600160a060020a03891684528252808320878452909152812054115b151561160b57600080fd5b80871461161757600080fd5b600160a060020a038616151561162c57600080fd5b60006116378261149b565b9050600160a060020a0381163314806116735750600160a060020a038116600090815260096020908152604080832033845290915290205460ff165b806116a25750600160a060020a0381811660009081526007602090815260408083208684529091529020541633145b15156116ad57600080fd5b6116b882878761224c565b6040517fb88d4fde0000000000000000000000000000000000000000000000000000000081523060048201818152600160a060020a038a811660248501526044840189905260806064850190815260848501889052908a169363b88d4fde93928c928b928b928b92909160a401848480828437600081840152601f19601f8201169050808301925050509650505050505050600060405180830381600087803b15801561176457600080fd5b505af1158015611778573d6000803e3d6000fd5b5050505085600160a060020a031687600160a060020a031683600080516020612b7d833981519152886040518082815260200191505060405180910390a45050505050505050565b6000908152600a602052604090205490565b60408051808201909152600681527f5445543939380000000000000000000000000000000000000000000000000000602082015290565b600160a060020a038216151561181e57600080fd5b336000818152600960209081526040808320600160a060020a03871680855290835292819020805460ff1916861515908117909155815190815290519293927f17307eab39ab6107e8899845ad3d59bd9653f200f220920489ca2b5937696c31929181900390910190a35050565b611897848484612766565b6118a083612ab1565b15611495576040517f150b7a020000000000000000000000000000000000000000000000000000000081523360048201818152600160a060020a038781166024850152604484018690526080606485019081528551608486015285516000959289169463150b7a029490938b938a938a939260a4019060208501908083838e5b83811015611938578181015183820152602001611920565b50505050905090810190601f1680156119655780820380516001836020036101000a031916815260200191505b5095505050505050602060405180830381600087803b15801561198757600080fd5b505af115801561199b573d6000803e3d6000fd5b505050506040513d60208110156119b157600080fd5b50519050600160e060020a031981167ff0b9e5ba00000000000000000000000000000000000000000000000000000000146119eb57600080fd5b5050505050565b6119fe8484848461251d565b600160a060020a038416331480611aa65750604080517fe985e9c5000000000000000000000000000000000000000000000000000000008152600160a060020a03868116600483015233602483015291519184169163e985e9c591604480820192602092909190829003018186803b158015611a7957600080fd5b505afa158015611a8d573d6000803e3d6000fd5b505050506040513d6020811015611aa357600080fd5b50515b80611b34575033600160a060020a031682600160a060020a031663081812fc836040518263ffffffff1660e060020a0281526004018082815260200191505060206040518083038186803b158015611afd57600080fd5b505afa158015611b11573d6000803e3d6000fd5b505050506040513d6020811015611b2757600080fd5b5051600160a060020a0316145b1515611b3f57600080fd5b604080517f23b872dd000000000000000000000000000000000000000000000000000000008152600160a060020a038681166004830152306024830152604482018490529151918416916323b872dd9160648082019260009290919082900301818387803b158015611bb057600080fd5b505af1158015611bc4573d6000803e3d6000fd5b5050505050505050565b600160a060020a0382166000908152600e6020908152604080832084845290915281205490811180611c2857506000818152600d60209081526040808320600160a060020a03871684528252808320858452909152812054115b1515611c3357600080fd5b808514611c3f57600080fd5b600160a060020a0384161515611c5457600080fd5b6000611c5f8261149b565b9050600160a060020a038116331480611c9b5750600160a060020a038116600090815260096020908152604080832033845290915290205460ff165b80611cca5750600160a060020a0381811660009081526007602090815260408083208684529091529020541633145b1515611cd557600080fd5b611ce082858561224c565b6040805130602482015260448082018690528251808303909101815260649091019091526020810180517bffffffffffffffffffffffffffffffffffffffffffffffffffffffff167f095ea7b300000000000000000000000000000000000000000000000000000000178152815160009183919083895af150604080517f23b872dd000000000000000000000000000000000000000000000000000000008152306004820152600160a060020a038881166024830152604482018790529151918716916323b872dd9160648082019260009290919082900301818387803b158015611dca57600080fd5b505af1158015611dde573d6000803e3d6000fd5b5050505084600160a060020a031686600160a060020a031684600080516020612b7d833981519152876040518082815260200191505060405180910390a450505050505050565b5060408051602081019091526000815290565b6000600160a060020a0383161515611e4f57600080fd5b600160a060020a0382161515611e6457600080fd5b50600160a060020a03918216600090815260096020908152604080832093909416825291909152205460ff1690565b600160a060020a0382166000908152600e6020908152604080832084845290915281205481811180611eed57506000818152600d60209081526040808320600160a060020a03881684528252808320868452909152812054115b1515611ef857600080fd5b600081815260066020526040902054600160a060020a03167fcd740db5000000000000000000000000000000000000000000000000000000001794909350915050565b600080600160a060020a03841615611f6057611f578484612ab9565b93509050611f7a565b50600082815260066020526040902054600160a060020a03165b600160a060020a038116301415611f9557611f578184612ab9565b604080513060248201526044808201869052825180830390910181526064909101909152602081810180517bffffffffffffffffffffffffffffffffffffffffffffffffffffffff167fed81cdda0000000000000000000000000000000000000000000000000000000017815282516000939291839190865afa9150811561201c57805193505b6001821515148015612037575060e060020a840463cd740db5145b156120455750610ec8915050565b5050600160a060020a03167fcd740db500000000000000000000000000000000000000000000000000000000179050610ec8565b600080821161211e576040805160e560020a62461bcd02815260206004820152604660248201527f5f64617461206d75737420636f6e7461696e207468652075696e74323536207460448201527f6f6b656e496420746f207472616e7366657220746865206368696c6420746f6b60648201527f656e20746f2e0000000000000000000000000000000000000000000000000000608482015290519081900360a40190fd5b608435602083101561213857600883026101000360020a90045b6121448682338861251d565b6000600160a060020a031633600160a060020a0316636352211e876040518263ffffffff1660e060020a0281526004018082815260200191505060206040518083038186803b15801561219657600080fd5b505afa1580156121aa573d6000803e3d6000fd5b505050506040513d60208110156121c057600080fd5b5051600160a060020a03161415612221576040805160e560020a62461bcd02815260206004820152601660248201527f4368696c6420746f6b656e206e6f74206f776e65642e00000000000000000000604482015290519081900360640190fd5b507ff0b9e5ba0000000000000000000000000000000000000000000000000000000095945050505050565b6000838152600d60209081526040808320600160a060020a038616845282528083208484529091529020548015156122ce576040805160e560020a62461bcd02815260206004820152601f60248201527f4368696c6420746f6b656e206e6f74206f776e656420627920746f6b656e2e00604482015290519081900360640190fd5b6000848152600c60209081526040808320600160a060020a03871684529091528120805460001981019291908390811061230457fe5b9060005260206000200154905080841415612387576000868152600c60209081526040808320600160a060020a038916845290915290208054829190600019860190811061234e57fe5b6000918252602080832090910192909255878152600d82526040808220600160a060020a03891683528352808220848352909252208390555b6000868152600c60209081526040808320600160a060020a038916845290915290208054906123ba906000198301612b3f565b506000868152600d60209081526040808320600160a060020a03891680855290835281842088855283528184208490558352600e8252808320878452909152812055811515612515576000868152600a60205260408120805460001981019291908390811061242557fe5b600091825260209091200154600160a060020a039081169150871681146124cf576000888152600b60209081526040808320600160a060020a038b1684528252808320548b8452600a90925290912080548391908390811061248357fe5b6000918252602080832091909101805473ffffffffffffffffffffffffffffffffffffffff1916600160a060020a039485161790558b8252600b81526040808320938616835292905220555b6000888152600a602052604090208054906124ee906000198301612b3f565b5050506000868152600b60209081526040808320600160a060020a03891684529091528120555b505050505050565b600083815260066020526040902054600160a060020a0316151561258b576040805160e560020a62461bcd02815260206004820152601860248201527f5f746f6b656e496420646f6573206e6f742065786973742e0000000000000000604482015290519081900360640190fd5b6000838152600d60209081526040808320600160a060020a0386168452825280832084845290915290205415612631576040805160e560020a62461bcd02815260206004820152602481018290527f43616e6e6f742072656365697665206368696c6420746f6b656e20626563617560448201527f73652069742068617320616c7265616479206265656e2072656365697665642e606482015290519081900360840190fd5b6000838152600c60209081526040808320600160a060020a03861684529091529020548015156126b8576000848152600a602081815260408084208054600b8452828620600160a060020a038a168088529085529286208190559383526001840181558452922001805473ffffffffffffffffffffffffffffffffffffffff191690911790555b6000848152600c60209081526040808320600160a060020a0380881680865291845282852080546001818101835591875285872001889055898652600d8552838620838752855283862088875285528386209087019055818552600e84528285208786528452938290208890558151868152915190938893908a16927f0371ddf2288ad1ba92626a7e31c86a9d006e592cfe57d7d946ef08b13457c08b929081900390910190a45050505050565b600160a060020a038316151561277b57600080fd5b600081815260066020526040902054600160a060020a038481169116146127a157600080fd5b600160a060020a03821615156127b657600080fd5b33600160a060020a0384161461294857604080513060248201526044808201849052825180830390910181526064909101909152602081810180517bffffffffffffffffffffffffffffffffffffffffffffffffffffffff167fed81cdda0000000000000000000000000000000000000000000000000000000017815282516000938493909290918391895afa9150811561285057805192505b600182151514156128e35760e060020a830463cd740db514156128e3576040805160e560020a62461bcd02815260206004820152602b60248201527f546f6b656e206973206368696c64206f66206f7468657220746f7020646f776e60448201527f20636f6d706f7361626c65000000000000000000000000000000000000000000606482015290519081900360840190fd5b600160a060020a038616600090815260096020908152604080832033845290915290205460ff16806129395750600160a060020a0386811660009081526007602090815260408083208884529091529020541633145b151561294457600080fd5b5050505b600160a060020a03838116600090815260076020908152604080832085845290915290205416156129dc57600160a060020a0383166000818152600760209081526040808320858452909152808220805473ffffffffffffffffffffffffffffffffffffffff19169055518392907f8c5be1e5ebec7d5bd14f71427d1e84f3dd0314c0f7b2291e5b200ac8c7c3b925908390a45b600160a060020a0383811690831614612a6b57600160a060020a03831660009081526008602052604081205411612a0f57fe5b600160a060020a038381166000908152600860208181526040808420805460001901905585845260068252808420805473ffffffffffffffffffffffffffffffffffffffff191695881695861790559383525220805460010190555b8082600160a060020a031684600160a060020a03167fddf252ad1be2c89b69c2b068fc378daa952ba7f163c4a11628f55a4df523b3ef60405160405180910390a4505050565b6000903b1190565b600160a060020a0382166000908152600e6020908152604080832084845290915281205481811180612b1357506000818152600d60209081526040808320600160a060020a03881684528252808320868452909152812054115b1515612b1e57600080fd5b600081815260066020526040902054600160a060020a031691509250929050565b81548183558181111561136b5760008381526020902061136b918101908301610ae691905b80821115612b785760008155600101612b64565b509056fe0ef52e516fb5aec15a5d3587e5480481b702b26db93c8430eca78b61990fd3f6a165627a7a72305820f8dc1476c02a94743aef4e42f4d7567d1469cba664d1710bc192cdfe68605c36002960806040523480156200001157600080fd5b50604080518082018252601a81527f546f6b656e7320457175616c732054657874204552432d3732310000000000006020808301919091528251808401909352600683527f544554373231000000000000000000000000000000000000000000000000000090830152908181620000b17f01ffc9a7000000000000000000000000000000000000000000000000000000006401000000006200019d810204565b620000e57f80ac58cd000000000000000000000000000000000000000000000000000000006401000000006200019d810204565b620001197f780e9d63000000000000000000000000000000000000000000000000000000006401000000006200019d810204565b81516200012e906009906020850190620002ef565b5080516200014490600a906020840190620002ef565b50620001797f5b5e139f000000000000000000000000000000000000000000000000000000006401000000006200019d810204565b5050505062000197336200020a640100000000026401000000009004565b62000394565b7fffffffff000000000000000000000000000000000000000000000000000000008082161415620001cd57600080fd5b7fffffffff00000000000000000000000000000000000000000000000000000000166000908152602081905260409020805460ff19166001179055565b62000225600c82640100000000620011ac6200025c82021704565b604051600160a060020a038216907f6ae172837ea30b801fbfcdd4108aa1d5bf8ff775444fd70256b44e6bf3dfc3f690600090a250565b600160a060020a03811615156200027257600080fd5b620002878282640100000000620002b7810204565b156200029257600080fd5b600160a060020a0316600090815260209190915260409020805460ff19166001179055565b6000600160a060020a0382161515620002cf57600080fd5b50600160a060020a03166000908152602091909152604090205460ff1690565b828054600181600116156101000203166002900490600052602060002090601f016020900481019282601f106200033257805160ff191683800117855562000362565b8280016001018555821562000362579182015b828111156200036257825182559160200191906001019062000345565b506200037092915062000374565b5090565b6200039191905b808211156200037057600081556001016200037b565b90565b61132d80620003a46000396000f3fe6080604052600436106101115763ffffffff7c010000000000000000000000000000000000000000000000000000000060003504166301ffc9a7811461011657806306fdde0314610173578063081812fc146101fd578063095ea7b31461024357806318160ddd1461027e57806323b872dd146102a55780632f745c59146102e857806340c10f191461032157806342842e0e1461035a5780634f6ccce71461039d5780636352211e146103c757806370a08231146103f157806395d89b4114610424578063983b2d5614610439578063986502751461046c578063a22cb46514610481578063aa271e1a146104bc578063b88d4fde146104ef578063c87b56dd146105c2578063e985e9c5146105ec575b600080fd5b34801561012257600080fd5b5061015f6004803603602081101561013957600080fd5b50357bffffffffffffffffffffffffffffffffffffffffffffffffffffffff1916610627565b604080519115158252519081900360200190f35b34801561017f57600080fd5b5061018861065b565b6040805160208082528351818301528351919283929083019185019080838360005b838110156101c25781810151838201526020016101aa565b50505050905090810190601f1680156101ef5780820380516001836020036101000a031916815260200191505b509250505060405180910390f35b34801561020957600080fd5b506102276004803603602081101561022057600080fd5b50356106f2565b60408051600160a060020a039092168252519081900360200190f35b34801561024f57600080fd5b5061027c6004803603604081101561026657600080fd5b50600160a060020a038135169060200135610724565b005b34801561028a57600080fd5b506102936107da565b60408051918252519081900360200190f35b3480156102b157600080fd5b5061027c600480360360608110156102c857600080fd5b50600160a060020a038135811691602081013590911690604001356107e0565b3480156102f457600080fd5b506102936004803603604081101561030b57600080fd5b50600160a060020a038135169060200135610805565b34801561032d57600080fd5b5061015f6004803603604081101561034457600080fd5b50600160a060020a038135169060200135610852565b34801561036657600080fd5b5061027c6004803603606081101561037d57600080fd5b50600160a060020a0381358116916020810135909116906040013561087b565b3480156103a957600080fd5b50610293600480360360208110156103c057600080fd5b5035610897565b3480156103d357600080fd5b50610227600480360360208110156103ea57600080fd5b50356108cc565b3480156103fd57600080fd5b506102936004803603602081101561041457600080fd5b5035600160a060020a03166108f6565b34801561043057600080fd5b50610188610929565b34801561044557600080fd5b5061027c6004803603602081101561045c57600080fd5b5035600160a060020a031661098a565b34801561047857600080fd5b5061027c6109aa565b34801561048d57600080fd5b5061027c600480360360408110156104a457600080fd5b50600160a060020a03813516906020013515156109b5565b3480156104c857600080fd5b5061015f600480360360208110156104df57600080fd5b5035600160a060020a0316610a39565b3480156104fb57600080fd5b5061027c6004803603608081101561051257600080fd5b600160a060020a0382358116926020810135909116916040820135919081019060808101606082013564010000000081111561054d57600080fd5b82018360208201111561055f57600080fd5b8035906020019184600183028401116401000000008311171561058157600080fd5b91908080601f016020809104026020016040519081016040528093929190818152602001838380828437600092019190915250929550610a4c945050505050565b3480156105ce57600080fd5b50610188600480360360208110156105e557600080fd5b5035610a74565b3480156105f857600080fd5b5061015f6004803603604081101561060f57600080fd5b50600160a060020a0381358116916020013516610b29565b7bffffffffffffffffffffffffffffffffffffffffffffffffffffffff191660009081526020819052604090205460ff1690565b60098054604080516020601f60026000196101006001881615020190951694909404938401819004810282018101909252828152606093909290918301828280156106e75780601f106106bc576101008083540402835291602001916106e7565b820191906000526020600020905b8154815290600101906020018083116106ca57829003601f168201915b505050505090505b90565b60006106fd82610b57565b151561070857600080fd5b50600090815260026020526040902054600160a060020a031690565b600061072f826108cc565b9050600160a060020a03838116908216141561074a57600080fd5b33600160a060020a038216148061076657506107668133610b29565b151561077157600080fd5b600082815260026020526040808220805473ffffffffffffffffffffffffffffffffffffffff1916600160a060020a0387811691821790925591518593918516917f8c5be1e5ebec7d5bd14f71427d1e84f3dd0314c0f7b2291e5b200ac8c7c3b92591a4505050565b60075490565b6107ea3382610b74565b15156107f557600080fd5b610800838383610bd3565b505050565b6000610810836108f6565b821061081b57600080fd5b600160a060020a038316600090815260056020526040902080548390811061083f57fe5b9060005260206000200154905092915050565b600061085d33610a39565b151561086857600080fd5b6108728383610bf2565b50600192915050565b6108008383836020604051908101604052806000815250610a4c565b60006108a16107da565b82106108ac57600080fd5b60078054839081106108ba57fe5b90600052602060002001549050919050565b600081815260016020526040812054600160a060020a03168015156108f057600080fd5b92915050565b6000600160a060020a038216151561090d57600080fd5b50600160a060020a031660009081526003602052604090205490565b600a8054604080516020601f60026000196101006001881615020190951694909404938401819004810282018101909252828152606093909290918301828280156106e75780601f106106bc576101008083540402835291602001916106e7565b61099333610a39565b151561099e57600080fd5b6109a781610c13565b50565b6109b333610c5b565b565b600160a060020a0382163314156109cb57600080fd5b336000818152600460209081526040808320600160a060020a03871680855290835292819020805460ff1916861515908117909155815190815290519293927f17307eab39ab6107e8899845ad3d59bd9653f200f220920489ca2b5937696c31929181900390910190a35050565b60006108f0600c8363ffffffff610ca316565b610a578484846107e0565b610a6384848484610cda565b1515610a6e57600080fd5b50505050565b6060610a7f82610b57565b1515610a8a57600080fd5b6000828152600b602090815260409182902080548351601f600260001961010060018616150201909316929092049182018490048402810184019094528084529091830182828015610b1d5780601f10610af257610100808354040283529160200191610b1d565b820191906000526020600020905b815481529060010190602001808311610b0057829003601f168201915b50505050509050919050565b600160a060020a03918216600090815260046020908152604080832093909416825291909152205460ff1690565b600090815260016020526040902054600160a060020a0316151590565b600080610b80836108cc565b905080600160a060020a031684600160a060020a03161480610bbb575083600160a060020a0316610bb0846106f2565b600160a060020a0316145b80610bcb5750610bcb8185610b29565b949350505050565b610bde838383610e56565b610be88382610f72565b6108008282611069565b610bfc82826110a7565b610c068282611069565b610c0f81611168565b5050565b610c24600c8263ffffffff6111ac16565b604051600160a060020a038216907f6ae172837ea30b801fbfcdd4108aa1d5bf8ff775444fd70256b44e6bf3dfc3f690600090a250565b610c6c600c8263ffffffff6111fa16565b604051600160a060020a038216907fe94479a9f7e1952cc78f2d6baab678adc1b772d936c6583def489e524cb6669290600090a250565b6000600160a060020a0382161515610cba57600080fd5b50600160a060020a03166000908152602091909152604090205460ff1690565b6000610cee84600160a060020a0316611246565b1515610cfc57506001610bcb565b6040517f150b7a020000000000000000000000000000000000000000000000000000000081523360048201818152600160a060020a03888116602485015260448401879052608060648501908152865160848601528651600095928a169463150b7a029490938c938b938b939260a4019060208501908083838e5b83811015610d8f578181015183820152602001610d77565b50505050905090810190601f168015610dbc5780820380516001836020036101000a031916815260200191505b5095505050505050602060405180830381600087803b158015610dde57600080fd5b505af1158015610df2573d6000803e3d6000fd5b505050506040513d6020811015610e0857600080fd5b50517bffffffffffffffffffffffffffffffffffffffffffffffffffffffff19167f150b7a020000000000000000000000000000000000000000000000000000000014915050949350505050565b82600160a060020a0316610e69826108cc565b600160a060020a031614610e7c57600080fd5b600160a060020a0382161515610e9157600080fd5b610e9a8161124e565b600160a060020a038316600090815260036020526040902054610ec490600163ffffffff61129616565b600160a060020a038085166000908152600360205260408082209390935590841681522054610efa90600163ffffffff6112ab16565b600160a060020a0380841660008181526003602090815260408083209590955585825260019052838120805473ffffffffffffffffffffffffffffffffffffffff1916831790559251849391928716917fddf252ad1be2c89b69c2b068fc378daa952ba7f163c4a11628f55a4df523b3ef91a4505050565b600160a060020a038216600090815260056020526040812054610f9c90600163ffffffff61129616565b60008381526006602052604090205490915080821461103957600160a060020a0384166000908152600560205260408120805484908110610fd957fe5b90600052602060002001549050806005600087600160a060020a0316600160a060020a031681526020019081526020016000208381548110151561101957fe5b600091825260208083209091019290925591825260069052604090208190555b600160a060020a03841660009081526005602052604090208054906110629060001983016112c4565b5050505050565b600160a060020a0390911660009081526005602081815260408084208054868652600684529185208290559282526001810183559183529091200155565b600160a060020a03821615156110bc57600080fd5b6110c581610b57565b156110cf57600080fd5b6000818152600160208181526040808420805473ffffffffffffffffffffffffffffffffffffffff1916600160a060020a038816908117909155845260039091529091205461111d916112ab565b600160a060020a0383166000818152600360205260408082209390935591518392907fddf252ad1be2c89b69c2b068fc378daa952ba7f163c4a11628f55a4df523b3ef908290a45050565b600780546000838152600860205260408120829055600182018355919091527fa66cc928b5edb82af9bd49922954155ab7b0942694bea4ce44661d9a8736c6880155565b600160a060020a03811615156111c157600080fd5b6111cb8282610ca3565b156111d557600080fd5b600160a060020a0316600090815260209190915260409020805460ff19166001179055565b600160a060020a038116151561120f57600080fd5b6112198282610ca3565b151561122457600080fd5b600160a060020a0316600090815260209190915260409020805460ff19169055565b6000903b1190565b600081815260026020526040902054600160a060020a0316156109a7576000908152600260205260409020805473ffffffffffffffffffffffffffffffffffffffff19169055565b6000828211156112a557600080fd5b50900390565b6000828201838110156112bd57600080fd5b9392505050565b815481835581811115610800576000838152602090206108009181019083016106ef91905b808211156112fd57600081556001016112e9565b509056fea165627a7a72305820c17707e71a9102613548bdd1da8a79d7da3f0fab4dccde18cae9a553fc499fe00029a165627a7a7230582001b68bfd58534a2075345bbfd9706f3f5b8e8b73dd93bd346d2576b9484abff70029",
  "source": "pragma solidity ^0.5.0;\n\nimport \"openzeppelin-solidity/contracts/ownership/Ownable.sol\";\n\nimport \"./TokensEqualTextERC721.sol\";\nimport \"./TokensEqualTextERC998.sol\";\n\ncontract TokensEqualTextBuilder is Ownable {\n\n    address erc721;\n    address erc998;\n\n    // @note We create this here so that this contract is the Minter\n    \n    function createERC721 () onlyOwner external {\n        TokensEqualTextERC721 e = new TokensEqualTextERC721();\n        e.addMinter(address(this));\n        erc721 = address(e);\n    }\n\n    function createERC998 () onlyOwner external {\n        erc998 = address(new TokensEqualTextERC998());\n    }\n\n    // @note We do this here (with this contract as the minter) to save tx gas\n    // and because it won't fit in the ERC721 contract constructor.\n    \n    function buildERC721s(TokensEqualTextERC721 _tokens) onlyOwner external {\n        uint256[16] memory figures = [ \n            0x0636C6173736963616C20706C696E746873000000000000000000000000000000,\n            0x0726564206C616D626F726768696E690000000000000000000000000000000000,\n            0x070616C6D20747265650000000000000000000000000000000000000000000000,\n            0x0636C6173736963616C2062757374000000000000000000000000000000000000,\n            0x0646F6C7068696E206A756D70696E670000000000000000000000000000000000,\n            0x0646F6C7068696E7320646976696E670000000000000000000000000000000000,\n            0x0666C616D696E676F000000000000000000000000000000000000000000000000,\n            0x079656C6C6F77206C616D626F726768696E690000000000000000000000000000,\n            0x0646F6C7068696E73207377696D6D696E67000000000000000000000000000000,\n            0x0646F6C7068696E20646976696E67000000000000000000000000000000000000,\n            0x070616C6D20747265657300000000000000000000000000000000000000000000,\n            0x0646F6C7068696E73206A756D70696E6700000000000000000000000000000000,\n            0x0646F6C7068696E207377696D6D696E6700000000000000000000000000000000,\n            0x0666C616D696E676F730000000000000000000000000000000000000000000000,\n            0x0636C6173736963616C20627573742077656172696E6720736861646573000000,\n            0x0636C6173736963616C20706C696E746800000000000000000000000000000000\n            ];\n        uint256[16] memory bases = [\n            0x06E656F6E20626C75652067726964000000000000000000000000000000000000,\n            0x0636F6E736F6C6520677265656E20677269640000000000000000000000000000,\n            0x06E656F6E206C696D6520677265656E2067726964000000000000000000000000,\n            0x07468696E206E656F6E2070696E6B20747269616E676C65000000000000000000,\n            0x06E656F6E2070696E6B2062616E647320696E2070657273706563746976650000,\n            0x06E656F6E20677265656E20677269640000000000000000000000000000000000,\n            0x0636F6E736F6C65206F72616E67652067726964206C616E647363617065000000,\n            0x0636F6E736F6C65206F72616E6765206772696400000000000000000000000000,\n            0x0726F61642073747265746368696E672061776179000000000000000000000000,\n            0x07468696E20636F6E736F6C6520677265656E20747269616E676C650000000000,\n            0x06E656F6E20677265656E2067726964206C616E64736361706500000000000000,\n            0x06E656F6E20626C75652067726964206C616E6473636170650000000000000000,\n            0x0646961676F6E616C20636865737320626F617264000000000000000000000000,\n            0x0636F6E736F6C6520677265656E2067726964206C616E64736361706500000000,\n            0x06E656F6E206C696D6520677265656E2067726964206C616E6473636170650000,\n            0x0636865737320626F617264000000000000000000000000000000000000000000\n            ];\n        uint256[16] memory backdrops = [ \n            0x0707572706C652F70696E6B2073756E206469736B000000000000000000000000,\n            0x073756E206469736B207468726F7567682070696E6B2068617A65000000000000,\n            0x0766964656F20696E746572666572656E63650000000000000000000000000000,\n            0x07265666C656374656420726970706C6573000000000000000000000000000000,\n            0x064697374616E74206369747973636170652073696C686F756574746564000000,\n            0x073706172736520636C6F75647300000000000000000000000000000000000000,\n            0x0666C6174206F72616E67652073756E206469736B000000000000000000000000,\n            0x07265666C656374696F6E7320726970706C65206F6E2074686520666C6F6F7200,\n            0x079656C6C6F772F6F72616E6765206772616469656E742073756E206469736B00,\n            0x0746967687420736861646F7773206F6E2074686520666C6F6F72000000000000,\n            0x073616E642064756E65732073747265746368696E672061776179000000000000,\n            0x073616E642064756E6573206174206E6967687400000000000000000000000000,\n            0x06C6F6E6720736861646F7773206F6E2074686520666C6F6F7200000000000000,\n            0x064697374616E74206D6F756E7461696E732073696C686F756574746564000000,\n            0x07265666C656374696F6E73206F6E2074686520666C6F6F720000000000000000,\n            0x07265642F70696E6B2073756E206469736B000000000000000000000000000000\n            ];\n        uint256[16] memory grounds = [ \n            0x06379616E2F70696E6B206772616469656E740000000000000000000000000000,\n            0x0676C69746368656420626C61636B000000000000000000000000000000000000,\n            0x0636C6F7564730000000000000000000000000000000000000000000000000000,\n            0x06D6163682D62616E64656420737461726669656C640000000000000000000000,\n            0x0707572706C652F6D6167656E7461206772616469656E74000000000000000000,\n            0x07374617273207365656E207468726F75676820636C6F75647300000000000000,\n            0x070696E6B2F7768697465206772616469656E7400000000000000000000000000,\n            0x073746174696320626C61636B0000000000000000000000000000000000000000,\n            0x0737461726669656C640000000000000000000000000000000000000000000000,\n            0x0676C69746368656420737461726669656C640000000000000000000000000000,\n            0x06F72616E67652F70696E6B2F707572706C65206772616469656E740000000000,\n            0x06F72616E67652F626C61636B206772616469656E740000000000000000000000,\n            0x06379616E20676175737369616E206E6F69736500000000000000000000000000,\n            0x070696E6B2F626C7565206772616469656E740000000000000000000000000000,\n            0x0666C6174207761726D20626C75652D626C61636B000000000000000000000000,\n            0x06379616E2F6E61767920626C7565206772616469656E74000000000000000000\n            ];\n        for(uint i = 0; i < 1; i++) {\n            _tokens.mint(msg.sender, figures[i]);\n            _tokens.mint(msg.sender, bases[i]);\n            _tokens.mint(msg.sender, backdrops[i]);\n            _tokens.mint(msg.sender, grounds[i]);\n        }\n    }\n \n}\n\n\n\n/*\n    function initialize(ERC721Full _tokens) external {\n        require(tokenCount == 0);\n        address tokens = address(_tokens);\n        uint256 totalNumTokens = _tokens.totalSupply();\n        require(totalNumTokens % 4 == 0);\n        for(uint i = 0; i < totalNumTokens; i += 4) {\n            uint256 collection = mint(msg.sender);\n            receiveChild(msg.sender, collection, tokens,\n                         _tokens.tokenByIndex(i));\n            receiveChild(msg.sender, collection, tokens,\n                         _tokens.tokenByIndex(i + 1));\n            receiveChild(msg.sender, collection, tokens,\n                         _tokens.tokenByIndex(i + 2));\n            receiveChild(msg.sender, collection, tokens,\n                         _tokens.tokenByIndex(i + 3));\n        }\n    }\n*/\n",
  "sourcePath": "/home/rob/projects/tokens-equal-text/contracts/TokensEqualTextBuilder.sol",
  "compiler": {
    "name": "solc",
    "version": "0.5.0+commit.1d4f565a.Emscripten.clang"
  },
  "schemaVersion": "3.0.0",
  "updatedAt": "2018-12-27T01:27:09.636Z",
  "devdoc": {
    "methods": {
      "isOwner()": {
        "return": "true if `msg.sender` is the owner of the contract."
      },
      "owner()": {
        "return": "the address of the owner."
      },
      "renounceOwnership()": {
        "details": "Allows the current owner to relinquish control of the contract."
      },
      "transferOwnership(address)": {
        "details": "Allows the current owner to transfer control of the contract to a newOwner.",
        "params": {
          "newOwner": "The address to transfer ownership to."
        }
      }
    }
  },
  "userdoc": {
    "methods": {
      "renounceOwnership()": {
        "notice": "Renouncing to ownership will leave the contract without an owner. It will not be possible to call the functions with the `onlyOwner` modifier anymore."
      }
    }
  }
}