{
  "contractName": "TokensEqualTextERC998",
  "abi": [
    {
      "constant": true,
      "inputs": [
        {
          "name": "interfaceId",
          "type": "bytes4"
        }
      ],
      "name": "supportsInterface",
      "outputs": [
        {
          "name": "",
          "type": "bool"
        }
      ],
      "payable": false,
      "stateMutability": "view",
      "type": "function"
    },
    {
      "constant": false,
      "inputs": [],
      "name": "renounceOwnership",
      "outputs": [],
      "payable": false,
      "stateMutability": "nonpayable",
      "type": "function"
    },
    {
      "constant": true,
      "inputs": [],
      "name": "owner",
      "outputs": [
        {
          "name": "",
          "type": "address"
        }
      ],
      "payable": false,
      "stateMutability": "view",
      "type": "function"
    },
    {
      "constant": true,
      "inputs": [],
      "name": "isOwner",
      "outputs": [
        {
          "name": "",
          "type": "bool"
        }
      ],
      "payable": false,
      "stateMutability": "view",
      "type": "function"
    },
    {
      "constant": false,
      "inputs": [
        {
          "name": "newOwner",
          "type": "address"
        }
      ],
      "name": "transferOwnership",
      "outputs": [],
      "payable": false,
      "stateMutability": "nonpayable",
      "type": "function"
    },
    {
      "anonymous": false,
      "inputs": [
        {
          "indexed": true,
          "name": "previousOwner",
          "type": "address"
        },
        {
          "indexed": true,
          "name": "newOwner",
          "type": "address"
        }
      ],
      "name": "OwnershipTransferred",
      "type": "event"
    },
    {
      "anonymous": false,
      "inputs": [
        {
          "indexed": true,
          "name": "_from",
          "type": "address"
        },
        {
          "indexed": true,
          "name": "_tokenId",
          "type": "uint256"
        },
        {
          "indexed": true,
          "name": "_childContract",
          "type": "address"
        },
        {
          "indexed": false,
          "name": "_childTokenId",
          "type": "uint256"
        }
      ],
      "name": "ReceivedChild",
      "type": "event"
    },
    {
      "anonymous": false,
      "inputs": [
        {
          "indexed": true,
          "name": "tokenId",
          "type": "uint256"
        },
        {
          "indexed": true,
          "name": "_to",
          "type": "address"
        },
        {
          "indexed": true,
          "name": "_childContract",
          "type": "address"
        },
        {
          "indexed": false,
          "name": "_childTokenId",
          "type": "uint256"
        }
      ],
      "name": "TransferChild",
      "type": "event"
    },
    {
      "anonymous": false,
      "inputs": [
        {
          "indexed": true,
          "name": "from",
          "type": "address"
        },
        {
          "indexed": true,
          "name": "to",
          "type": "address"
        },
        {
          "indexed": true,
          "name": "tokenId",
          "type": "uint256"
        }
      ],
      "name": "Transfer",
      "type": "event"
    },
    {
      "anonymous": false,
      "inputs": [
        {
          "indexed": true,
          "name": "owner",
          "type": "address"
        },
        {
          "indexed": true,
          "name": "approved",
          "type": "address"
        },
        {
          "indexed": true,
          "name": "tokenId",
          "type": "uint256"
        }
      ],
      "name": "Approval",
      "type": "event"
    },
    {
      "anonymous": false,
      "inputs": [
        {
          "indexed": true,
          "name": "owner",
          "type": "address"
        },
        {
          "indexed": true,
          "name": "operator",
          "type": "address"
        },
        {
          "indexed": false,
          "name": "approved",
          "type": "bool"
        }
      ],
      "name": "ApprovalForAll",
      "type": "event"
    },
    {
      "constant": true,
      "inputs": [
        {
          "name": "_tokenId",
          "type": "uint256"
        }
      ],
      "name": "rootOwnerOf",
      "outputs": [
        {
          "name": "rootOwner",
          "type": "bytes32"
        }
      ],
      "payable": false,
      "stateMutability": "view",
      "type": "function"
    },
    {
      "constant": true,
      "inputs": [
        {
          "name": "_childContract",
          "type": "address"
        },
        {
          "name": "_childTokenId",
          "type": "uint256"
        }
      ],
      "name": "rootOwnerOfChild",
      "outputs": [
        {
          "name": "rootOwner",
          "type": "bytes32"
        }
      ],
      "payable": false,
      "stateMutability": "view",
      "type": "function"
    },
    {
      "constant": true,
      "inputs": [
        {
          "name": "_tokenId",
          "type": "uint256"
        }
      ],
      "name": "ownerOf",
      "outputs": [
        {
          "name": "tokenOwner",
          "type": "address"
        }
      ],
      "payable": false,
      "stateMutability": "view",
      "type": "function"
    },
    {
      "constant": true,
      "inputs": [
        {
          "name": "_tokenOwner",
          "type": "address"
        }
      ],
      "name": "balanceOf",
      "outputs": [
        {
          "name": "",
          "type": "uint256"
        }
      ],
      "payable": false,
      "stateMutability": "view",
      "type": "function"
    },
    {
      "constant": false,
      "inputs": [
        {
          "name": "_approved",
          "type": "address"
        },
        {
          "name": "_tokenId",
          "type": "uint256"
        }
      ],
      "name": "approve",
      "outputs": [],
      "payable": false,
      "stateMutability": "nonpayable",
      "type": "function"
    },
    {
      "constant": true,
      "inputs": [
        {
          "name": "_tokenId",
          "type": "uint256"
        }
      ],
      "name": "getApproved",
      "outputs": [
        {
          "name": "",
          "type": "address"
        }
      ],
      "payable": false,
      "stateMutability": "view",
      "type": "function"
    },
    {
      "constant": false,
      "inputs": [
        {
          "name": "_operator",
          "type": "address"
        },
        {
          "name": "_approved",
          "type": "bool"
        }
      ],
      "name": "setApprovalForAll",
      "outputs": [],
      "payable": false,
      "stateMutability": "nonpayable",
      "type": "function"
    },
    {
      "constant": true,
      "inputs": [
        {
          "name": "_owner",
          "type": "address"
        },
        {
          "name": "_operator",
          "type": "address"
        }
      ],
      "name": "isApprovedForAll",
      "outputs": [
        {
          "name": "",
          "type": "bool"
        }
      ],
      "payable": false,
      "stateMutability": "view",
      "type": "function"
    },
    {
      "constant": false,
      "inputs": [
        {
          "name": "_from",
          "type": "address"
        },
        {
          "name": "_to",
          "type": "address"
        },
        {
          "name": "_tokenId",
          "type": "uint256"
        }
      ],
      "name": "transferFrom",
      "outputs": [],
      "payable": false,
      "stateMutability": "nonpayable",
      "type": "function"
    },
    {
      "constant": false,
      "inputs": [
        {
          "name": "_from",
          "type": "address"
        },
        {
          "name": "_to",
          "type": "address"
        },
        {
          "name": "_tokenId",
          "type": "uint256"
        }
      ],
      "name": "safeTransferFrom",
      "outputs": [],
      "payable": false,
      "stateMutability": "nonpayable",
      "type": "function"
    },
    {
      "constant": false,
      "inputs": [
        {
          "name": "_from",
          "type": "address"
        },
        {
          "name": "_to",
          "type": "address"
        },
        {
          "name": "_tokenId",
          "type": "uint256"
        },
        {
          "name": "_data",
          "type": "bytes"
        }
      ],
      "name": "safeTransferFrom",
      "outputs": [],
      "payable": false,
      "stateMutability": "nonpayable",
      "type": "function"
    },
    {
      "constant": false,
      "inputs": [
        {
          "name": "_fromTokenId",
          "type": "uint256"
        },
        {
          "name": "_to",
          "type": "address"
        },
        {
          "name": "_childContract",
          "type": "address"
        },
        {
          "name": "_childTokenId",
          "type": "uint256"
        }
      ],
      "name": "safeTransferChild",
      "outputs": [],
      "payable": false,
      "stateMutability": "nonpayable",
      "type": "function"
    },
    {
      "constant": false,
      "inputs": [
        {
          "name": "_fromTokenId",
          "type": "uint256"
        },
        {
          "name": "_to",
          "type": "address"
        },
        {
          "name": "_childContract",
          "type": "address"
        },
        {
          "name": "_childTokenId",
          "type": "uint256"
        },
        {
          "name": "_data",
          "type": "bytes"
        }
      ],
      "name": "safeTransferChild",
      "outputs": [],
      "payable": false,
      "stateMutability": "nonpayable",
      "type": "function"
    },
    {
      "constant": false,
      "inputs": [
        {
          "name": "_fromTokenId",
          "type": "uint256"
        },
        {
          "name": "_to",
          "type": "address"
        },
        {
          "name": "_childContract",
          "type": "address"
        },
        {
          "name": "_childTokenId",
          "type": "uint256"
        }
      ],
      "name": "transferChild",
      "outputs": [],
      "payable": false,
      "stateMutability": "nonpayable",
      "type": "function"
    },
    {
      "constant": false,
      "inputs": [
        {
          "name": "_fromTokenId",
          "type": "uint256"
        },
        {
          "name": "_toContract",
          "type": "address"
        },
        {
          "name": "_toTokenId",
          "type": "uint256"
        },
        {
          "name": "_childContract",
          "type": "address"
        },
        {
          "name": "_childTokenId",
          "type": "uint256"
        },
        {
          "name": "_data",
          "type": "bytes"
        }
      ],
      "name": "transferChildToParent",
      "outputs": [],
      "payable": false,
      "stateMutability": "nonpayable",
      "type": "function"
    },
    {
      "constant": false,
      "inputs": [
        {
          "name": "_from",
          "type": "address"
        },
        {
          "name": "_tokenId",
          "type": "uint256"
        },
        {
          "name": "_childContract",
          "type": "address"
        },
        {
          "name": "_childTokenId",
          "type": "uint256"
        }
      ],
      "name": "getChild",
      "outputs": [],
      "payable": false,
      "stateMutability": "nonpayable",
      "type": "function"
    },
    {
      "constant": false,
      "inputs": [
        {
          "name": "_from",
          "type": "address"
        },
        {
          "name": "_childTokenId",
          "type": "uint256"
        },
        {
          "name": "_data",
          "type": "bytes"
        }
      ],
      "name": "onERC721Received",
      "outputs": [
        {
          "name": "",
          "type": "bytes4"
        }
      ],
      "payable": false,
      "stateMutability": "nonpayable",
      "type": "function"
    },
    {
      "constant": false,
      "inputs": [
        {
          "name": "",
          "type": "address"
        },
        {
          "name": "_from",
          "type": "address"
        },
        {
          "name": "_childTokenId",
          "type": "uint256"
        },
        {
          "name": "_data",
          "type": "bytes"
        }
      ],
      "name": "onERC721Received",
      "outputs": [
        {
          "name": "",
          "type": "bytes4"
        }
      ],
      "payable": false,
      "stateMutability": "nonpayable",
      "type": "function"
    },
    {
      "constant": true,
      "inputs": [
        {
          "name": "_childContract",
          "type": "address"
        },
        {
          "name": "_childTokenId",
          "type": "uint256"
        }
      ],
      "name": "ownerOfChild",
      "outputs": [
        {
          "name": "parentTokenOwner",
          "type": "bytes32"
        },
        {
          "name": "parentTokenId",
          "type": "uint256"
        }
      ],
      "payable": false,
      "stateMutability": "view",
      "type": "function"
    },
    {
      "constant": true,
      "inputs": [
        {
          "name": "_childContract",
          "type": "address"
        },
        {
          "name": "_childTokenId",
          "type": "uint256"
        }
      ],
      "name": "childExists",
      "outputs": [
        {
          "name": "",
          "type": "bool"
        }
      ],
      "payable": false,
      "stateMutability": "view",
      "type": "function"
    },
    {
      "constant": true,
      "inputs": [
        {
          "name": "_tokenId",
          "type": "uint256"
        }
      ],
      "name": "totalChildContracts",
      "outputs": [
        {
          "name": "",
          "type": "uint256"
        }
      ],
      "payable": false,
      "stateMutability": "view",
      "type": "function"
    },
    {
      "constant": true,
      "inputs": [
        {
          "name": "_tokenId",
          "type": "uint256"
        },
        {
          "name": "_index",
          "type": "uint256"
        }
      ],
      "name": "childContractByIndex",
      "outputs": [
        {
          "name": "childContract",
          "type": "address"
        }
      ],
      "payable": false,
      "stateMutability": "view",
      "type": "function"
    },
    {
      "constant": true,
      "inputs": [
        {
          "name": "_tokenId",
          "type": "uint256"
        },
        {
          "name": "_childContract",
          "type": "address"
        }
      ],
      "name": "totalChildTokens",
      "outputs": [
        {
          "name": "",
          "type": "uint256"
        }
      ],
      "payable": false,
      "stateMutability": "view",
      "type": "function"
    },
    {
      "constant": true,
      "inputs": [
        {
          "name": "_tokenId",
          "type": "uint256"
        },
        {
          "name": "_childContract",
          "type": "address"
        },
        {
          "name": "_index",
          "type": "uint256"
        }
      ],
      "name": "childTokenByIndex",
      "outputs": [
        {
          "name": "childTokenId",
          "type": "uint256"
        }
      ],
      "payable": false,
      "stateMutability": "view",
      "type": "function"
    },
    {
      "constant": true,
      "inputs": [],
      "name": "name",
      "outputs": [
        {
          "name": "",
          "type": "string"
        }
      ],
      "payable": false,
      "stateMutability": "view",
      "type": "function"
    },
    {
      "constant": true,
      "inputs": [],
      "name": "symbol",
      "outputs": [
        {
          "name": "",
          "type": "string"
        }
      ],
      "payable": false,
      "stateMutability": "view",
      "type": "function"
    },
    {
      "constant": false,
      "inputs": [
        {
          "name": "_newBase",
          "type": "string"
        }
      ],
      "name": "updateTokenURIBase",
      "outputs": [],
      "payable": false,
      "stateMutability": "nonpayable",
      "type": "function"
    },
    {
      "constant": true,
      "inputs": [
        {
          "name": "_tokenId",
          "type": "uint256"
        }
      ],
      "name": "tokenURI",
      "outputs": [
        {
          "name": "",
          "type": "string"
        }
      ],
      "payable": false,
      "stateMutability": "view",
      "type": "function"
    },
    {
      "constant": true,
      "inputs": [],
      "name": "totalSupply",
      "outputs": [
        {
          "name": "",
          "type": "uint256"
        }
      ],
      "payable": false,
      "stateMutability": "view",
      "type": "function"
    },
    {
      "constant": true,
      "inputs": [
        {
          "name": "owner",
          "type": "address"
        },
        {
          "name": "index",
          "type": "uint256"
        }
      ],
      "name": "tokenOfOwnerByIndex",
      "outputs": [
        {
          "name": "tokenId",
          "type": "uint256"
        }
      ],
      "payable": false,
      "stateMutability": "view",
      "type": "function"
    },
    {
      "constant": true,
      "inputs": [
        {
          "name": "index",
          "type": "uint256"
        }
      ],
      "name": "tokenByIndex",
      "outputs": [
        {
          "name": "",
          "type": "uint256"
        }
      ],
      "payable": false,
      "stateMutability": "pure",
      "type": "function"
    },
    {
      "constant": false,
      "inputs": [
        {
          "name": "_count",
          "type": "uint256"
        }
      ],
      "name": "mintBatch",
      "outputs": [],
      "payable": false,
      "stateMutability": "nonpayable",
      "type": "function"
    }
  ],
  "bytecode": "0x600060065560e0604052603560808190527f68747470733a2f2f73686f772e726f626d796572732e6f72672f746f6b656e7360a09081527f2d657175616c2d746578742f6d657461646174612f000000000000000000000060c05262000069916010919062000191565b506200009e7f01ffc9a70000000000000000000000000000000000000000000000000000000064010000000062000124810204565b620000d27f80ac58cd0000000000000000000000000000000000000000000000000000000064010000000062000124810204565b60058054600160a060020a031916331790819055604051600160a060020a0391909116906000907f8be0079c531659141344cd1fd0a4f28419497f9722a3daafe3b4186f6b6457e0908290a362000236565b7fffffffff0000000000000000000000000000000000000000000000000000000080821614156200015457600080fd5b7fffffffff00000000000000000000000000000000000000000000000000000000166000908152602081905260409020805460ff19166001179055565b828054600181600116156101000203166002900490600052602060002090601f016020900481019282601f10620001d457805160ff191683800117855562000204565b8280016001018555821562000204579182015b8281111562000204578251825591602001919060010190620001e7565b506200021292915062000216565b5090565b6200023391905b808211156200021257600081556001016200021d565b90565b61336380620002466000396000f3fe6080604052600436106101b35763ffffffff60e060020a60003504166301ffc9a781146101b857806306fdde0314610200578063081812fc1461028a57806308937f62146102d0578063095ea7b31461037a5780630d5a621b146103b3578063150b7a02146103e3578063160b01a11461049d57806318160ddd146104ee5780631d98f3c51461050357806320e409b41461054c57806323b872dd146105765780632f745c59146105b957806335b21ceb146105f257806342842e0e1461062b57806343a61a8e1461066e5780634f6ccce714610698578063552fdf42146106c25780635680a3ad1461073f5780636352211e1461077857806370a08231146107a2578063715018a6146107d55780638d81f51e146107ea5780638da5cb5b1461088c5780638da7d0b5146108a15780638f32d59b146108cb57806395d89b41146108e0578063a22cb465146108f5578063b88d4fde14610930578063ba6b5f9614610a03578063bef44f1814610a4a578063c87b56dd14610a93578063e985e9c514610abd578063eadb80b814610af8578063ed81cdda14610b4a578063f0b9e5ba14610b83578063f2fde38b14610c15575b600080fd5b3480156101c457600080fd5b506101ec600480360360208110156101db57600080fd5b5035600160e060020a031916610c48565b604080519115158252519081900360200190f35b34801561020c57600080fd5b50610215610c6b565b6040805160208082528351818301528351919283929083019185019080838360005b8381101561024f578181015183820152602001610237565b50505050905090810190601f16801561027c5780820380516001836020036101000a031916815260200191505b509250505060405180910390f35b34801561029657600080fd5b506102b4600480360360208110156102ad57600080fd5b5035610ca3565b60408051600160a060020a039092168252519081900360200190f35b3480156102dc57600080fd5b50610378600480360360c08110156102f357600080fd5b813591600160a060020a03602082013581169260408301359260608101359092169160808101359181019060c0810160a082013564010000000081111561033957600080fd5b82018360208201111561034b57600080fd5b8035906020019184600183028401116401000000008311171561036d57600080fd5b509092509050610cdd565b005b34801561038657600080fd5b506103786004803603604081101561039d57600080fd5b50600160a060020a038135169060200135610f12565b3480156103bf57600080fd5b506102b4600480360360408110156103d657600080fd5b5080359060200135610fca565b3480156103ef57600080fd5b506104806004803603608081101561040657600080fd5b600160a060020a0382358116926020810135909116916040820135919081019060808101606082013564010000000081111561044157600080fd5b82018360208201111561045357600080fd5b8035906020019184600183028401116401000000008311171561047557600080fd5b50909250905061108d565b60408051600160e060020a03199092168252519081900360200190f35b3480156104a957600080fd5b506104dc600480360360608110156104c057600080fd5b50803590600160a060020a036020820135169060400135611261565b60408051918252519081900360200190f35b3480156104fa57600080fd5b506104dc611342565b34801561050f57600080fd5b506103786004803603608081101561052657600080fd5b50803590600160a060020a03602082013581169160408101359091169060600135611348565b34801561055857600080fd5b506103786004803603602081101561056f57600080fd5b5035611537565b34801561058257600080fd5b506103786004803603606081101561059957600080fd5b50600160a060020a0381358116916020810135909116906040013561156b565b3480156105c557600080fd5b506104dc600480360360408110156105dc57600080fd5b50600160a060020a03813516906020013561157b565b3480156105fe57600080fd5b506104dc6004803603604081101561061557600080fd5b5080359060200135600160a060020a03166115e8565b34801561063757600080fd5b506103786004803603606081101561064e57600080fd5b50600160a060020a03813581169160208101359091169060400135611610565b34801561067a57600080fd5b506104dc6004803603602081101561069157600080fd5b5035611713565b3480156106a457600080fd5b506104dc600480360360208110156106bb57600080fd5b5035611720565b3480156106ce57600080fd5b50610378600480360360208110156106e557600080fd5b81019060208101813564010000000081111561070057600080fd5b82018360208201111561071257600080fd5b8035906020019184600183028401116401000000008311171561073457600080fd5b509092509050611726565b34801561074b57600080fd5b506101ec6004803603604081101561076257600080fd5b50600160a060020a038135169060200135611745565b34801561078457600080fd5b506102b46004803603602081101561079b57600080fd5b503561178a565b3480156107ae57600080fd5b506104dc600480360360208110156107c557600080fd5b5035600160a060020a03166117ae565b3480156107e157600080fd5b506103786117e1565b3480156107f657600080fd5b50610378600480360360a081101561080d57600080fd5b813591600160a060020a03602082013581169260408301359091169160608101359181019060a08101608082013564010000000081111561084d57600080fd5b82018360208201111561085f57600080fd5b8035906020019184600183028401116401000000008311171561088157600080fd5b50909250905061183e565b34801561089857600080fd5b506102b4611a6a565b3480156108ad57600080fd5b506104dc600480360360208110156108c457600080fd5b5035611a79565b3480156108d757600080fd5b506101ec611a8b565b3480156108ec57600080fd5b50610215611a9c565b34801561090157600080fd5b506103786004803603604081101561091857600080fd5b50600160a060020a0381351690602001351515611ad3565b34801561093c57600080fd5b506103786004803603608081101561095357600080fd5b600160a060020a0382358116926020810135909116916040820135919081019060808101606082013564010000000081111561098e57600080fd5b8201836020820111156109a057600080fd5b803590602001918460018302840111640100000000831117156109c257600080fd5b91908080601f016020809104026020016040519081016040528093929190818152602001838380828437600092019190915250929550611b56945050505050565b348015610a0f57600080fd5b5061037860048036036080811015610a2657600080fd5b50600160a060020a0381358116916020810135916040820135169060600135611cbc565b348015610a5657600080fd5b5061037860048036036080811015610a6d57600080fd5b50803590600160a060020a03602082013581169160408101359091169060600135611e98565b348015610a9f57600080fd5b5061021560048036036020811015610ab657600080fd5b50356120b5565b348015610ac957600080fd5b506101ec60048036036040811015610ae057600080fd5b50600160a060020a0381358116916020013516612157565b348015610b0457600080fd5b50610b3160048036036040811015610b1b57600080fd5b50600160a060020a0381351690602001356121b2565b6040805192835260208301919091528051918290030190f35b348015610b5657600080fd5b506104dc60048036036040811015610b6d57600080fd5b50600160a060020a03813516906020013561225a565b348015610b8f57600080fd5b5061048060048036036060811015610ba657600080fd5b600160a060020a0382351691602081013591810190606081016040820135640100000000811115610bd657600080fd5b820183602082011115610be857600080fd5b80359060200191846001830284011164010000000083111715610c0a57600080fd5b509092509050612398565b348015610c2157600080fd5b5061037860048036036020811015610c3857600080fd5b5035600160a060020a031661256b565b600160e060020a0319811660009081526020819052604090205460ff165b919050565b60408051808201909152601981527f546f6b656e7320457175616c2054657874204552432d3939380000000000000060208201525b90565b600080610caf83611713565b600160a060020a03908116600090815260086020908152604080832087845290915290205416915050919050565b600160a060020a0384166000908152600f6020908152604080832086845290915281205490811180610d3757506000818152600e60209081526040808320600160a060020a03891684528252808320878452909152812054115b1515610d4257600080fd5b808814610d4e57600080fd5b600160a060020a0387161515610d6357600080fd5b6000610d6e82611713565b9050600160a060020a038116331480610daa5750600160a060020a0381166000908152600a6020908152604080832033845290915290205460ff165b80610dd95750600160a060020a0381811660009081526008602090815260408083208684529091529020541633145b1515610de457600080fd5b610def89878761258a565b6040517ff50acfa00000000000000000000000000000000000000000000000000000000081523060048201818152600160a060020a038b81166024850152604484018b90526064840189905260a06084850190815260a48501889052908a169363f50acfa093928d928d928c928c928c9260c401848480828437600081840152601f19601f820116905080830192505050975050505050505050600060405180830381600087803b158015610ea357600080fd5b505af1158015610eb7573d6000803e3d6000fd5b5050505085600160a060020a031688600160a060020a03168a7f0ef52e516fb5aec15a5d3587e5480481b702b26db93c8430eca78b61990fd3f6886040518082815260200191505060405180910390a4505050505050505050565b6000610f1d82611713565b9050600160a060020a038116331480610f595750600160a060020a0381166000908152600a6020908152604080832033845290915290205460ff165b1515610f6457600080fd5b600160a060020a0381811660008181526008602090815260408083208784529091528082208054600160a060020a031916948816948517905551859392917f8c5be1e5ebec7d5bd14f71427d1e84f3dd0314c0f7b2291e5b200ac8c7c3b92591a4505050565b6000828152600b60205260408120548210611055576040805160e560020a62461bcd02815260206004820152603960248201527f436f6e7472616374206164647265737320646f6573206e6f742065786973742060448201527f666f72207468697320746f6b656e20616e6420696e6465782e00000000000000606482015290519081900360840190fd5b6000838152600b6020526040902080548390811061106f57fe5b600091825260209091200154600160a060020a031690505b92915050565b6000808211611132576040805160e560020a62461bcd02815260206004820152604660248201527f5f64617461206d75737420636f6e7461696e207468652075696e74323536207460448201527f6f6b656e496420746f207472616e7366657220746865206368696c6420746f6b60648201527f656e20746f2e0000000000000000000000000000000000000000000000000000608482015290519081900360a40190fd5b60a435602083101561114c57600883026101000360020a90045b6111588682338861284e565b6000600160a060020a031633600160a060020a0316636352211e876040518263ffffffff1660e060020a0281526004018082815260200191505060206040518083038186803b1580156111aa57600080fd5b505afa1580156111be573d6000803e3d6000fd5b505050506040513d60208110156111d457600080fd5b5051600160a060020a03161415611235576040805160e560020a62461bcd02815260206004820152601660248201527f4368696c6420746f6b656e206e6f74206f776e65642e00000000000000000000604482015290519081900360640190fd5b507f150b7a02000000000000000000000000000000000000000000000000000000009695505050505050565b6000838152600d60209081526040808320600160a060020a03861684529091528120548210611300576040805160e560020a62461bcd02815260206004820152603f60248201527f546f6b656e20646f6573206e6f74206f776e2061206368696c6420746f6b656e60448201527f20617420636f6e7472616374206164647265737320616e6420696e6465782e00606482015290519081900360840190fd5b6000848152600d60209081526040808320600160a060020a0387168452909152902080548390811061132e57fe5b906000526020600020015490509392505050565b60065490565b600160a060020a0382166000908152600f60209081526040808320848452909152812054908111806113a257506000818152600e60209081526040808320600160a060020a03871684528252808320858452909152812054115b15156113ad57600080fd5b8085146113b957600080fd5b600160a060020a03841615156113ce57600080fd5b60006113d982611713565b9050600160a060020a0381163314806114155750600160a060020a0381166000908152600a6020908152604080832033845290915290205460ff165b806114445750600160a060020a0381811660009081526008602090815260408083208684529091529020541633145b151561144f57600080fd5b61145a82858561258a565b604080517f42842e0e000000000000000000000000000000000000000000000000000000008152306004820152600160a060020a038781166024830152604482018690529151918616916342842e0e9160648082019260009290919082900301818387803b1580156114cb57600080fd5b505af11580156114df573d6000803e3d6000fd5b5050505083600160a060020a031685600160a060020a0316837f0ef52e516fb5aec15a5d3587e5480481b702b26db93c8430eca78b61990fd3f6866040518082815260200191505060405180910390a4505050505050565b61153f611a8b565b151561154a57600080fd5b60005b818110156115675761155e33612a8a565b5060010161154d565b5050565b611576838383612ada565b505050565b6000611586836117ae565b821061159157600080fd5b600060015b60065481116115e05784600160a060020a03166115b28261178a565b600160a060020a031614156115d857838214156115d1578092506115d8565b6001909101905b600101611596565b505092915050565b6000918252600d60209081526040808420600160a060020a0393909316845291905290205490565b61161b838383612ada565b61162482612e0b565b1561157657604080517f150b7a02000000000000000000000000000000000000000000000000000000008152336004820152600160a060020a038581166024830152604482018490526080606483015260006084830181905292519085169163150b7a029160c480830192602092919082900301818787803b1580156116a957600080fd5b505af11580156116bd573d6000803e3d6000fd5b505050506040513d60208110156116d357600080fd5b50519050600160e060020a031981167ff0b9e5ba000000000000000000000000000000000000000000000000000000001461170d57600080fd5b50505050565b600061108760008361225a565b60010190565b61172e611a8b565b151561173957600080fd5b6115766010838361327f565b600160a060020a0382166000818152600f602090815260408083208584528252808320548352600e825280832093835292815282822084835290522054151592915050565b600081815260076020526040902054600160a060020a0316801515610c6657600080fd5b6000600160a060020a03821615156117c557600080fd5b50600160a060020a031660009081526009602052604090205490565b6117e9611a8b565b15156117f457600080fd5b600554604051600091600160a060020a0316907f8be0079c531659141344cd1fd0a4f28419497f9722a3daafe3b4186f6b6457e0908390a360058054600160a060020a0319169055565b600160a060020a0384166000908152600f602090815260408083208684529091528120549081118061189857506000818152600e60209081526040808320600160a060020a03891684528252808320878452909152812054115b15156118a357600080fd5b8087146118af57600080fd5b600160a060020a03861615156118c457600080fd5b60006118cf82611713565b9050600160a060020a03811633148061190b5750600160a060020a0381166000908152600a6020908152604080832033845290915290205460ff165b8061193a5750600160a060020a0381811660009081526008602090815260408083208684529091529020541633145b151561194557600080fd5b61195082878761258a565b6040517fb88d4fde0000000000000000000000000000000000000000000000000000000081523060048201818152600160a060020a038a811660248501526044840189905260806064850190815260848501889052908a169363b88d4fde93928c928b928b928b92909160a401848480828437600081840152601f19601f8201169050808301925050509650505050505050600060405180830381600087803b1580156119fc57600080fd5b505af1158015611a10573d6000803e3d6000fd5b5050505085600160a060020a031687600160a060020a0316837f0ef52e516fb5aec15a5d3587e5480481b702b26db93c8430eca78b61990fd3f6886040518082815260200191505060405180910390a45050505050505050565b600554600160a060020a031690565b6000908152600b602052604090205490565b600554600160a060020a0316331490565b60408051808201909152600681527f5445543939380000000000000000000000000000000000000000000000000000602082015290565b600160a060020a0382161515611ae857600080fd5b336000818152600a60209081526040808320600160a060020a03871680855290835292819020805460ff1916861515908117909155815190815290519293927f17307eab39ab6107e8899845ad3d59bd9653f200f220920489ca2b5937696c31929181900390910190a35050565b611b61848484612ada565b611b6a83612e0b565b1561170d576040517f150b7a020000000000000000000000000000000000000000000000000000000081523360048201818152600160a060020a038781166024850152604484018690526080606485019081528551608486015285516000959289169463150b7a029490938b938a938a939260a4019060208501908083838e5b83811015611c02578181015183820152602001611bea565b50505050905090810190601f168015611c2f5780820380516001836020036101000a031916815260200191505b5095505050505050602060405180830381600087803b158015611c5157600080fd5b505af1158015611c65573d6000803e3d6000fd5b505050506040513d6020811015611c7b57600080fd5b50519050600160e060020a031981167ff0b9e5ba0000000000000000000000000000000000000000000000000000000014611cb557600080fd5b5050505050565b611cc88484848461284e565b600160a060020a038416331480611d705750604080517fe985e9c5000000000000000000000000000000000000000000000000000000008152600160a060020a03868116600483015233602483015291519184169163e985e9c591604480820192602092909190829003018186803b158015611d4357600080fd5b505afa158015611d57573d6000803e3d6000fd5b505050506040513d6020811015611d6d57600080fd5b50515b80611dfe575033600160a060020a031682600160a060020a031663081812fc836040518263ffffffff1660e060020a0281526004018082815260200191505060206040518083038186803b158015611dc757600080fd5b505afa158015611ddb573d6000803e3d6000fd5b505050506040513d6020811015611df157600080fd5b5051600160a060020a0316145b1515611e0957600080fd5b604080517f23b872dd000000000000000000000000000000000000000000000000000000008152600160a060020a038681166004830152306024830152604482018490529151918416916323b872dd9160648082019260009290919082900301818387803b158015611e7a57600080fd5b505af1158015611e8e573d6000803e3d6000fd5b5050505050505050565b600160a060020a0382166000908152600f6020908152604080832084845290915281205490811180611ef257506000818152600e60209081526040808320600160a060020a03871684528252808320858452909152812054115b1515611efd57600080fd5b808514611f0957600080fd5b600160a060020a0384161515611f1e57600080fd5b6000611f2982611713565b9050600160a060020a038116331480611f655750600160a060020a0381166000908152600a6020908152604080832033845290915290205460ff165b80611f945750600160a060020a0381811660009081526008602090815260408083208684529091529020541633145b1515611f9f57600080fd5b611faa82858561258a565b6040805130602482015260448082018690528251808303909101815260649091019091526020810180517bffffffffffffffffffffffffffffffffffffffffffffffffffffffff167f095ea7b300000000000000000000000000000000000000000000000000000000178152815160009183919083895af150604080517f23b872dd000000000000000000000000000000000000000000000000000000008152306004820152600160a060020a038881166024830152604482018790529151918716916323b872dd9160648082019260009290919082900301818387803b15801561209457600080fd5b505af11580156120a8573d6000803e3d6000fd5b5050505050505050505050565b6010805460408051602060026001851615610100026000190190941693909304601f810184900484028201840190925281815260609361108793919290918301828280156121445780601f1061211957610100808354040283529160200191612144565b820191906000526020600020905b81548152906001019060200180831161212757829003601f168201915b505050505061215284612e13565b612ef7565b6000600160a060020a038316151561216e57600080fd5b600160a060020a038216151561218357600080fd5b50600160a060020a039182166000908152600a6020908152604080832093909416825291909152205460ff1690565b600160a060020a0382166000908152600f602090815260408083208484529091528120548181118061220c57506000818152600e60209081526040808320600160a060020a03881684528252808320868452909152812054115b151561221757600080fd5b600081815260076020526040902054600160a060020a03167fcd740db5000000000000000000000000000000000000000000000000000000001794909350915050565b600080600160a060020a0384161561227f576122768484612f33565b93509050612299565b50600082815260076020526040902054600160a060020a03165b600160a060020a0381163014156122b4576122768184612f33565b604080513060248201526044808201869052825180830390910181526064909101909152602081810180517bffffffffffffffffffffffffffffffffffffffffffffffffffffffff167fed81cdda0000000000000000000000000000000000000000000000000000000017815282516000939291839190865afa9150811561233b57805193505b6001821515148015612356575060e060020a840463cd740db5145b156123645750611087915050565b5050600160a060020a03167fcd740db500000000000000000000000000000000000000000000000000000000179050611087565b600080821161243d576040805160e560020a62461bcd02815260206004820152604660248201527f5f64617461206d75737420636f6e7461696e207468652075696e74323536207460448201527f6f6b656e496420746f207472616e7366657220746865206368696c6420746f6b60648201527f656e20746f2e0000000000000000000000000000000000000000000000000000608482015290519081900360a40190fd5b608435602083101561245757600883026101000360020a90045b6124638682338861284e565b6000600160a060020a031633600160a060020a0316636352211e876040518263ffffffff1660e060020a0281526004018082815260200191505060206040518083038186803b1580156124b557600080fd5b505afa1580156124c9573d6000803e3d6000fd5b505050506040513d60208110156124df57600080fd5b5051600160a060020a03161415612540576040805160e560020a62461bcd02815260206004820152601660248201527f4368696c6420746f6b656e206e6f74206f776e65642e00000000000000000000604482015290519081900360640190fd5b507ff0b9e5ba0000000000000000000000000000000000000000000000000000000095945050505050565b612573611a8b565b151561257e57600080fd5b61258781612fb9565b50565b6000838152600e60209081526040808320600160a060020a0386168452825280832084845290915290205480151561260c576040805160e560020a62461bcd02815260206004820152601f60248201527f4368696c6420746f6b656e206e6f74206f776e656420627920746f6b656e2e00604482015290519081900360640190fd5b6000848152600d60209081526040808320600160a060020a03871684529091528120805460001981019291908390811061264257fe5b90600052602060002001549050808414156126c5576000868152600d60209081526040808320600160a060020a038916845290915290208054829190600019860190811061268c57fe5b6000918252602080832090910192909255878152600e82526040808220600160a060020a03891683528352808220848352909252208390555b6000868152600d60209081526040808320600160a060020a038916845290915290208054906126f89060001983016132fd565b506000868152600e60209081526040808320600160a060020a03891680855290835281842088855283528184208490558352600f8252808320878452909152812055811515612846576000868152600b60205260408120805460001981019291908390811061276357fe5b600091825260209091200154600160a060020a03908116915087168114612800576000888152600c60209081526040808320600160a060020a038b1684528252808320548b8452600b9092529091208054839190839081106127c157fe5b60009182526020808320919091018054600160a060020a031916600160a060020a039485161790558b8252600c81526040808320938616835292905220555b6000888152600b6020526040902080549061281f9060001983016132fd565b5050506000868152600c60209081526040808320600160a060020a03891684529091528120555b505050505050565b600083815260076020526040902054600160a060020a031615156128bc576040805160e560020a62461bcd02815260206004820152601860248201527f5f746f6b656e496420646f6573206e6f742065786973742e0000000000000000604482015290519081900360640190fd5b6000838152600e60209081526040808320600160a060020a0386168452825280832084845290915290205415612962576040805160e560020a62461bcd02815260206004820152602481018290527f43616e6e6f742072656365697665206368696c6420746f6b656e20626563617560448201527f73652069742068617320616c7265616479206265656e2072656365697665642e606482015290519081900360840190fd5b6000838152600d60209081526040808320600160a060020a03861684529091529020548015156129dc576000848152600b602081815260408084208054600c8452828620600160a060020a038a1680885290855292862081905593835260018401815584529220018054600160a060020a03191690911790555b6000848152600d60209081526040808320600160a060020a0380881680865291845282852080546001818101835591875285872001889055898652600e8552838620838752855283862088875285528386209087019055818552600f84528285208786528452938290208890558151868152915190938893908a16927f0371ddf2288ad1ba92626a7e31c86a9d006e592cfe57d7d946ef08b13457c08b929081900390910190a45050505050565b60068054600190810180835560009081526007602090815260408083208054600160a060020a038816600160a060020a031990911681179091558352600990915290208054909101905554919050565b600160a060020a0383161515612aef57600080fd5b600081815260076020526040902054600160a060020a03848116911614612b1557600080fd5b600160a060020a0382161515612b2a57600080fd5b33600160a060020a03841614612cbc57604080513060248201526044808201849052825180830390910181526064909101909152602081810180517bffffffffffffffffffffffffffffffffffffffffffffffffffffffff167fed81cdda0000000000000000000000000000000000000000000000000000000017815282516000938493909290918391895afa91508115612bc457805192505b60018215151415612c575760e060020a830463cd740db51415612c57576040805160e560020a62461bcd02815260206004820152602b60248201527f546f6b656e206973206368696c64206f66206f7468657220746f7020646f776e60448201527f20636f6d706f7361626c65000000000000000000000000000000000000000000606482015290519081900360840190fd5b600160a060020a0386166000908152600a6020908152604080832033845290915290205460ff1680612cad5750600160a060020a0386811660009081526008602090815260408083208884529091529020541633145b1515612cb857600080fd5b5050505b600160a060020a0383811660009081526008602090815260408083208584529091529020541615612d4357600160a060020a03831660008181526008602090815260408083208584529091528082208054600160a060020a0319169055518392907f8c5be1e5ebec7d5bd14f71427d1e84f3dd0314c0f7b2291e5b200ac8c7c3b925908390a45b600160a060020a0383811690831614612dc557600160a060020a03831660009081526009602052604081205411612d7657fe5b600160a060020a0383811660009081526009602081815260408084208054600019019055858452600782528084208054600160a060020a03191695881695861790559383525220805460010190555b8082600160a060020a031684600160a060020a03167fddf252ad1be2c89b69c2b068fc378daa952ba7f163c4a11628f55a4df523b3ef60405160405180910390a4505050565b6000903b1190565b6060811515612e56575060408051808201909152600181527f30000000000000000000000000000000000000000000000000000000000000006020820152610c66565b8160005b8115612e6e57600101600a82049150612e5a565b6060816040519080825280601f01601f191660200182016040528015612e9b576020820181803883390190505b50905060001982015b8515612eee57815160001982019160f860020a6030600a8a060102918491908110612ecb57fe5b906020010190600160f860020a031916908160001a905350600a86049550612ea4565b50949350505050565b604080516020818101835260008083528351808301855281815284519283019094528152606092612f2c92869286929061302a565b9392505050565b600160a060020a0382166000908152600f6020908152604080832084845290915281205481811180612f8d57506000818152600e60209081526040808320600160a060020a03881684528252808320868452909152812054115b1515612f9857600080fd5b600081815260076020526040902054600160a060020a031691509250929050565b600160a060020a0381161515612fce57600080fd5b600554604051600160a060020a038084169216907f8be0079c531659141344cd1fd0a4f28419497f9722a3daafe3b4186f6b6457e090600090a360058054600160a060020a031916600160a060020a0392909216919091179055565b6060808690506060869050606086905060608690506060869050606081518351855187518951010101016040519080825280601f01601f19166020018201604052801561307e576020820181803883390190505b509050806000805b88518110156130e457888181518110151561309d57fe5b90602001015160f860020a900460f860020a0283838060010194508151811015156130c457fe5b906020010190600160f860020a031916908160001a905350600101613086565b5060005b87518110156131465787818151811015156130ff57fe5b90602001015160f860020a900460f860020a02838380600101945081518110151561312657fe5b906020010190600160f860020a031916908160001a9053506001016130e8565b5060005b86518110156131a857868181518110151561316157fe5b90602001015160f860020a900460f860020a02838380600101945081518110151561318857fe5b906020010190600160f860020a031916908160001a90535060010161314a565b5060005b855181101561320a5785818151811015156131c357fe5b90602001015160f860020a900460f860020a0283838060010194508151811015156131ea57fe5b906020010190600160f860020a031916908160001a9053506001016131ac565b5060005b845181101561326c57848181518110151561322557fe5b90602001015160f860020a900460f860020a02838380600101945081518110151561324c57fe5b906020010190600160f860020a031916908160001a90535060010161320e565b50909d9c50505050505050505050505050565b828054600181600116156101000203166002900490600052602060002090601f016020900481019282601f106132c05782800160ff198235161785556132ed565b828001600101855582156132ed579182015b828111156132ed5782358255916020019190600101906132d2565b506132f992915061331d565b5090565b815481835581811115611576576000838152602090206115769181019083015b610ca091905b808211156132f9576000815560010161332356fea165627a7a72305820e8a76b31145b5b6296c74d0a7b44122c1ee20df26169557e1b6acf990acc21fa0029",
  "source": "/**********************************\n/* Original author: Nick Mudge, <nick@perfectabstractions.com>, https://medium.com/@mudgen.\n// Modifications: Rhea Myers <rhea@myers.studio>\n/**********************************/\n\n\n/*\n  Notes:\n\n  We generate our ERC721 tokens with IDs starting at 1 and proceding\n  sequentially. Therefore for all tokens ID = index + 1. This is so 0 can\n  be an invalid token reference.\n\n  We mint only a few (32) tokens, and we do so during migration.\n\n  We have a single URL root for all tokens as we control their metadata.\n\n  We rely on these facts in a couple of places to take shortcuts that we would\n  not in code that was designed to handle more, more arbitrarily minted tokens.\n\n  Where an Interface rather than an Implementation from OpenZeppelin is used,\n  this is usually so we can take those shortcuts and save storage & gas.\n */\n\n\n//jshint ignore: start\n\npragma solidity ^0.5.0;\n\n\nimport \"openzeppelin-solidity/contracts/token/ERC721/ERC721.sol\";\nimport \"openzeppelin-solidity/contracts/token/ERC721/IERC721Enumerable.sol\";\nimport \"openzeppelin-solidity/contracts/token/ERC721/IERC721Metadata.sol\";\nimport \"openzeppelin-solidity/contracts/token/ERC721/IERC721Receiver.sol\";\nimport \"openzeppelin-solidity/contracts/ownership/Ownable.sol\";\nimport \"openzeppelin-solidity/contracts/math/SafeMath.sol\";\n\nimport \"./Strings.sol\";\n\n\ninterface ERC998ERC721TopDown {\n    event ReceivedChild(address indexed _from, uint256 indexed _tokenId, address indexed _childContract, uint256 _childTokenId);\n    event TransferChild(uint256 indexed tokenId, address indexed _to, address indexed _childContract, uint256 _childTokenId);\n\n    function rootOwnerOf(uint256 _tokenId) external view returns (bytes32 rootOwner);\n    function rootOwnerOfChild(address _childContract, uint256 _childTokenId) external view returns (bytes32 rootOwner);\n    function ownerOfChild(address _childContract, uint256 _childTokenId) external view returns (bytes32 parentTokenOwner, uint256 parentTokenId);\n    function onERC721Received(address _operator, address _from, uint256 _childTokenId, bytes calldata _data) external returns (bytes4);\n    function transferChild(uint256 _fromTokenId, address _to, address _childContract, uint256 _childTokenId) external;\n    function safeTransferChild(uint256 _fromTokenId, address _to, address _childContract, uint256 _childTokenId) external;\n    function safeTransferChild(uint256 _fromTokenId, address _to, address _childContract, uint256 _childTokenId, bytes calldata _data) external;\n    function transferChildToParent(uint256 _fromTokenId, address _toContract, uint256 _toTokenId, address _childContract, uint256 _childTokenId, bytes calldata _data) external;\n    // getChild function enables older contracts like cryptokitties to be transferred into a composable\n    // The _childContract must approve this contract. Then getChild can be called.\n    function getChild(address _from, uint256 _tokenId, address _childContract, uint256 _childTokenId) external;\n}\n\n\ninterface ERC998ERC721TopDownEnumerable {\n    function totalChildContracts(uint256 _tokenId) external view returns (uint256);\n    function childContractByIndex(uint256 _tokenId, uint256 _index) external view returns (address childContract);\n    function totalChildTokens(uint256 _tokenId, address _childContract) external view returns (uint256);\n    function childTokenByIndex(uint256 _tokenId, address _childContract, uint256 _index) external view returns (uint256 childTokenId);\n}\n\n\ninterface ERC998ERC721BottomUp {\n    function transferToParent(address _from, address _toContract, uint256 _toTokenId, uint256 _tokenId, bytes calldata _data) external;\n}\n\n\ncontract TokensEqualTextERC998 is\n    ERC721, IERC721Metadata,\n    ERC998ERC721TopDown, ERC998ERC721TopDownEnumerable,\n    Ownable\n{\n    // return this.rootOwnerOf.selector ^ this.rootOwnerOfChild.selector ^\n    //   this.tokenOwnerOf.selector ^ this.ownerOfChild.selector;\n    bytes32 constant ERC998_MAGIC_VALUE = bytes32(uint256(0xcd740db5));\n\n    uint256 tokenCount = 0;\n\n    // tokenId => token owner\n    mapping(uint256 => address) internal tokenIdToTokenOwner;\n\n    // root token owner address => (tokenId => approved address)\n    mapping(address => mapping(uint256 => address)) internal rootOwnerAndTokenIdToApprovedAddress;\n\n    // token owner address => token count\n    mapping(address => uint256) internal tokenOwnerToTokenCount;\n\n    // token owner => (operator address => bool)\n    mapping(address => mapping(address => bool)) internal tokenOwnerToOperators;\n\n    //from zepellin ERC721Receiver.sol\n    //old version\n    bytes4 constant ERC721_RECEIVED_OLD = 0xf0b9e5ba;\n    //new version\n    bytes4 constant ERC721_RECEIVED_NEW = 0x150b7a02;\n\n    ////////////////////////////////////////////////////////\n    // ERC721 implementation\n    ////////////////////////////////////////////////////////\n\n    function isContract(address _addr) internal view returns (bool) {\n        uint256 size;\n        assembly {size := extcodesize(_addr)}\n        return size > 0;\n    }\n\n    function rootOwnerOf(uint256 _tokenId) public view returns (bytes32 rootOwner) {\n        return rootOwnerOfChild(address(0), _tokenId);\n    }\n\n    // returns the owner at the top of the tree of composables\n    // Use Cases handled:\n    // Case 1: Token owner is this contract and token.\n    // Case 2: Token owner is other top-down composable\n    // Case 3: Token owner is other contract\n    // Case 4: Token owner is user\n    function rootOwnerOfChild(address _childContract, uint256 _childTokenId) public view returns (bytes32 rootOwner) {\n        address rootOwnerAddress;\n        if (_childContract != address(0)) {\n            (rootOwnerAddress, _childTokenId) = _ownerOfChild(_childContract, _childTokenId);\n        }\n        else {\n            rootOwnerAddress = tokenIdToTokenOwner[_childTokenId];\n        }\n        // Case 1: Token owner is this contract and token.\n        while (rootOwnerAddress == address(this)) {\n            (rootOwnerAddress, _childTokenId) = _ownerOfChild(rootOwnerAddress, _childTokenId);\n        }\n\n        bool callSuccess;\n        bytes memory callData;\n        // 0xed81cdda == rootOwnerOfChild(address,uint256)\n        callData = abi.encodeWithSelector(0xed81cdda, address(this), _childTokenId);\n        assembly {\n            callSuccess := staticcall(gas, rootOwnerAddress, add(callData, 0x20), mload(callData), callData, 0x20)\n            if callSuccess {\n                rootOwner := mload(callData)\n            }\n        }\n        if(callSuccess == true && rootOwner >> 224 == ERC998_MAGIC_VALUE) {\n            // Case 2: Token owner is other top-down composable\n            return rootOwner;\n        }\n        else {\n            // Case 3: Token owner is other contract\n            // Or\n            // Case 4: Token owner is user\n            return ERC998_MAGIC_VALUE << 224 | bytes32(uint256(rootOwnerAddress));\n        }\n    }\n\n\n    // returns the owner at the top of the tree of composables\n\n    function ownerOf(uint256 _tokenId) public view returns (address tokenOwner) {\n        tokenOwner = tokenIdToTokenOwner[_tokenId];\n        require(tokenOwner != address(0));\n        return tokenOwner;\n    }\n\n    function balanceOf(address _tokenOwner) public view returns (uint256) {\n        require(_tokenOwner != address(0));\n        return tokenOwnerToTokenCount[_tokenOwner];\n    }\n\n\n    function approve(address _approved, uint256 _tokenId) public {\n        address rootOwner = address(uint256(rootOwnerOf(_tokenId)));\n        require(rootOwner == msg.sender || tokenOwnerToOperators[rootOwner][msg.sender]);\n        rootOwnerAndTokenIdToApprovedAddress[rootOwner][_tokenId] = _approved;\n        emit Approval(rootOwner, _approved, _tokenId);\n    }\n\n    function getApproved(uint256 _tokenId) public view returns (address)  {\n        address rootOwner = address(uint256(rootOwnerOf(_tokenId)));\n        return rootOwnerAndTokenIdToApprovedAddress[rootOwner][_tokenId];\n    }\n\n    function setApprovalForAll(address _operator, bool _approved) public {\n        require(_operator != address(0));\n        tokenOwnerToOperators[msg.sender][_operator] = _approved;\n        emit ApprovalForAll(msg.sender, _operator, _approved);\n    }\n\n    function isApprovedForAll(address _owner, address _operator) public view returns (bool)  {\n        require(_owner != address(0));\n        require(_operator != address(0));\n        return tokenOwnerToOperators[_owner][_operator];\n    }\n\n    function _transferFrom(address _from, address _to, uint256 _tokenId) internal {\n        require(_from != address(0));\n        require(tokenIdToTokenOwner[_tokenId] == _from);\n        require(_to != address(0));\n\n        if(msg.sender != _from) {\n            bytes32 rootOwner;\n            bool callSuccess;\n            // 0xed81cdda == rootOwnerOfChild(address,uint256)\n            bytes memory callData = abi.encodeWithSelector(0xed81cdda, address(this), _tokenId);\n            assembly {\n                callSuccess := staticcall(gas, _from, add(callData, 0x20), mload(callData), callData, 0x20)\n                if callSuccess {\n                    rootOwner := mload(callData)\n                }\n            }\n            if(callSuccess == true) {\n                require(rootOwner >> 224 != ERC998_MAGIC_VALUE, \"Token is child of other top down composable\");\n            }\n            require(tokenOwnerToOperators[_from][msg.sender] ||\n            rootOwnerAndTokenIdToApprovedAddress[_from][_tokenId] == msg.sender);\n        }\n\n        // clear approval\n        if (rootOwnerAndTokenIdToApprovedAddress[_from][_tokenId] != address(0)) {\n            delete rootOwnerAndTokenIdToApprovedAddress[_from][_tokenId];\n            emit Approval(_from, address(0), _tokenId);\n        }\n\n        // remove and transfer token\n        if (_from != _to) {\n            assert(tokenOwnerToTokenCount[_from] > 0);\n            tokenOwnerToTokenCount[_from]--;\n            tokenIdToTokenOwner[_tokenId] = _to;\n            tokenOwnerToTokenCount[_to]++;\n        }\n        emit Transfer(_from, _to, _tokenId);\n\n    }\n\n    function transferFrom(address _from, address _to, uint256 _tokenId) public {\n        _transferFrom(_from, _to, _tokenId);\n    }\n\n    function safeTransferFrom(address _from, address _to, uint256 _tokenId) public {\n        _transferFrom(_from, _to, _tokenId);\n        if (isContract(_to)) {\n            bytes4 retval = IERC721Receiver(_to).onERC721Received(msg.sender, _from, _tokenId, \"\");\n            require(retval == ERC721_RECEIVED_OLD);\n        }\n    }\n\n    function safeTransferFrom(address _from, address _to, uint256 _tokenId, bytes memory _data) public {\n        _transferFrom(_from, _to, _tokenId);\n        if (isContract(_to)) {\n            bytes4 retval = IERC721Receiver(_to).onERC721Received(msg.sender, _from, _tokenId, _data);\n            require(retval == ERC721_RECEIVED_OLD);\n        }\n    }\n\n    ////////////////////////////////////////////////////////\n    // ERC998ERC721 and ERC998ERC721Enumerable implementation\n    ////////////////////////////////////////////////////////\n\n    // tokenId => child contract\n    mapping(uint256 => address[]) private childContracts;\n\n    // tokenId => (child address => contract index+1)\n    mapping(uint256 => mapping(address => uint256)) private childContractIndex;\n\n    // tokenId => (child address => array of child tokens)\n    mapping(uint256 => mapping(address => uint256[])) private childTokens;\n\n    // tokenId => (child address => (child token => child index+1)\n    mapping(uint256 => mapping(address => mapping(uint256 => uint256))) private childTokenIndex;\n\n    // child address => childId => tokenId\n    mapping(address => mapping(uint256 => uint256)) internal childTokenOwner;\n\n\n    function removeChild(uint256 _tokenId, address _childContract, uint256 _childTokenId) private {\n        uint256 tokenIndex = childTokenIndex[_tokenId][_childContract][_childTokenId];\n        require(tokenIndex != 0, \"Child token not owned by token.\");\n\n        // remove child token\n        uint256 lastTokenIndex = childTokens[_tokenId][_childContract].length - 1;\n        uint256 lastToken = childTokens[_tokenId][_childContract][lastTokenIndex];\n        if (_childTokenId == lastToken) {\n            childTokens[_tokenId][_childContract][tokenIndex - 1] = lastToken;\n            childTokenIndex[_tokenId][_childContract][lastToken] = tokenIndex;\n        }\n        childTokens[_tokenId][_childContract].length--;\n        delete childTokenIndex[_tokenId][_childContract][_childTokenId];\n        delete childTokenOwner[_childContract][_childTokenId];\n\n        // remove contract\n        if (lastTokenIndex == 0) {\n            uint256 lastContractIndex = childContracts[_tokenId].length - 1;\n            address lastContract = childContracts[_tokenId][lastContractIndex];\n            if (_childContract != lastContract) {\n                uint256 contractIndex = childContractIndex[_tokenId][_childContract];\n                childContracts[_tokenId][contractIndex] = lastContract;\n                childContractIndex[_tokenId][lastContract] = contractIndex;\n            }\n            childContracts[_tokenId].length--;\n            delete childContractIndex[_tokenId][_childContract];\n        }\n    }\n\n    function safeTransferChild(uint256 _fromTokenId, address _to, address _childContract, uint256 _childTokenId) external {\n        uint256 tokenId = childTokenOwner[_childContract][_childTokenId];\n        require(tokenId > 0 || childTokenIndex[tokenId][_childContract][_childTokenId] > 0);\n        require(tokenId == _fromTokenId);\n        require(_to != address(0));\n        address rootOwner = address(uint256(rootOwnerOf(tokenId)));\n        require(rootOwner == msg.sender || tokenOwnerToOperators[rootOwner][msg.sender] ||\n        rootOwnerAndTokenIdToApprovedAddress[rootOwner][tokenId] == msg.sender);\n        removeChild(tokenId, _childContract, _childTokenId);\n        ERC721(_childContract).safeTransferFrom(address(this), _to, _childTokenId);\n        emit TransferChild(tokenId, _to, _childContract, _childTokenId);\n    }\n\n    function safeTransferChild(uint256 _fromTokenId, address _to, address _childContract, uint256 _childTokenId, bytes calldata _data) external {\n        uint256 tokenId = childTokenOwner[_childContract][_childTokenId];\n        require(tokenId > 0 || childTokenIndex[tokenId][_childContract][_childTokenId] > 0);\n        require(tokenId == _fromTokenId);\n        require(_to != address(0));\n        address rootOwner = address(uint256(rootOwnerOf(tokenId)));\n        require(rootOwner == msg.sender || tokenOwnerToOperators[rootOwner][msg.sender] ||\n        rootOwnerAndTokenIdToApprovedAddress[rootOwner][tokenId] == msg.sender);\n        removeChild(tokenId, _childContract, _childTokenId);\n        ERC721(_childContract).safeTransferFrom(address(this), _to, _childTokenId, _data);\n        emit TransferChild(tokenId, _to, _childContract, _childTokenId);\n    }\n\n    function transferChild(uint256 _fromTokenId, address _to, address _childContract, uint256 _childTokenId) external {\n        uint256 tokenId = childTokenOwner[_childContract][_childTokenId];\n        require(tokenId > 0 || childTokenIndex[tokenId][_childContract][_childTokenId] > 0);\n        require(tokenId == _fromTokenId);\n        require(_to != address(0));\n        address rootOwner = address(uint256(rootOwnerOf(tokenId)));\n        require(rootOwner == msg.sender || tokenOwnerToOperators[rootOwner][msg.sender] ||\n        rootOwnerAndTokenIdToApprovedAddress[rootOwner][tokenId] == msg.sender);\n        removeChild(tokenId, _childContract, _childTokenId);\n        //this is here to be compatible with cryptokitties and other old contracts that require being owner and approved\n        // before transferring.\n        //does not work with current standard which does not allow approving self, so we must let it fail in that case.\n        //0x095ea7b3 == \"approve(address,uint256)\"\n        bytes memory callData = abi.encodeWithSelector(0x095ea7b3, this, _childTokenId);\n        assembly {\n            let success := call(gas, _childContract, 0, add(callData, 0x20), mload(callData), callData, 0)\n        }\n        ERC721(_childContract).transferFrom(address(this), _to, _childTokenId);\n        /*emit TransferChild(tokenId, _to, _childContract, _childTokenId);*/\n    }\n\n    function transferChildToParent(uint256 _fromTokenId, address _toContract, uint256 _toTokenId, address _childContract, uint256 _childTokenId, bytes calldata _data) external {\n        uint256 tokenId = childTokenOwner[_childContract][_childTokenId];\n        require(tokenId > 0 || childTokenIndex[tokenId][_childContract][_childTokenId] > 0);\n        require(tokenId == _fromTokenId);\n        require(_toContract != address(0));\n        address rootOwner = address(uint256(rootOwnerOf(tokenId)));\n        require(rootOwner == msg.sender || tokenOwnerToOperators[rootOwner][msg.sender] ||\n        rootOwnerAndTokenIdToApprovedAddress[rootOwner][tokenId] == msg.sender);\n        removeChild(_fromTokenId, _childContract, _childTokenId);\n        ERC998ERC721BottomUp(_childContract).transferToParent(address(this), _toContract, _toTokenId, _childTokenId, _data);\n        emit TransferChild(_fromTokenId, _toContract, _childContract, _childTokenId);\n    }\n\n    // this contract has to be approved first in _childContract\n    function getChild(address _from, uint256 _tokenId, address _childContract, uint256 _childTokenId) external {\n        receiveChild(_from, _tokenId, _childContract, _childTokenId);\n        require(_from == msg.sender ||\n        ERC721(_childContract).isApprovedForAll(_from, msg.sender) ||\n        ERC721(_childContract).getApproved(_childTokenId) == msg.sender);\n        ERC721(_childContract).transferFrom(_from, address(this), _childTokenId);\n    }\n\n    function onERC721Received(address _from, uint256 _childTokenId, bytes calldata _data) external returns (bytes4) {\n        require(_data.length > 0, \"_data must contain the uint256 tokenId to transfer the child token to.\");\n        // convert up to 32 bytes of_data to uint256, owner nft tokenId passed as uint in bytes\n        uint256 tokenId;\n        assembly {tokenId := calldataload(132)}\n        if (_data.length < 32) {\n            tokenId = tokenId >> 256 - _data.length * 8;\n        }\n        receiveChild(_from, tokenId, msg.sender, _childTokenId);\n        require(ERC721(msg.sender).ownerOf(_childTokenId) != address(0), \"Child token not owned.\");\n        return ERC721_RECEIVED_OLD;\n    }\n\n    function onERC721Received(address /*_operator*/, address _from, uint256 _childTokenId, bytes calldata _data) external returns (bytes4) {\n        require(_data.length > 0, \"_data must contain the uint256 tokenId to transfer the child token to.\");\n        // convert up to 32 bytes of_data to uint256, owner nft tokenId passed as uint in bytes\n        uint256 tokenId;\n        assembly {tokenId := calldataload(164)}\n        if (_data.length < 32) {\n            tokenId = tokenId >> 256 - _data.length * 8;\n        }\n        receiveChild(_from, tokenId, msg.sender, _childTokenId);\n        require(ERC721(msg.sender).ownerOf(_childTokenId) != address(0), \"Child token not owned.\");\n        return ERC721_RECEIVED_NEW;\n    }\n\n    function receiveChild(address _from, uint256 _tokenId, address _childContract, uint256 _childTokenId) private {\n        require(tokenIdToTokenOwner[_tokenId] != address(0), \"_tokenId does not exist.\");\n        require(childTokenIndex[_tokenId][_childContract][_childTokenId] == 0, \"Cannot receive child token because it has already been received.\");\n        uint256 childTokensLength = childTokens[_tokenId][_childContract].length;\n        if (childTokensLength == 0) {\n            childContractIndex[_tokenId][_childContract] = childContracts[_tokenId].length;\n            childContracts[_tokenId].push(_childContract);\n        }\n        childTokens[_tokenId][_childContract].push(_childTokenId);\n        childTokenIndex[_tokenId][_childContract][_childTokenId] = childTokensLength + 1;\n        childTokenOwner[_childContract][_childTokenId] = _tokenId;\n        emit ReceivedChild(_from, _tokenId, _childContract, _childTokenId);\n    }\n\n    function _ownerOfChild(address _childContract, uint256 _childTokenId) internal view returns (address parentTokenOwner, uint256 parentTokenId) {\n        parentTokenId = childTokenOwner[_childContract][_childTokenId];\n        require(parentTokenId > 0 || childTokenIndex[parentTokenId][_childContract][_childTokenId] > 0);\n        return (tokenIdToTokenOwner[parentTokenId], parentTokenId);\n    }\n\n    function ownerOfChild(address _childContract, uint256 _childTokenId) external view returns (bytes32 parentTokenOwner, uint256 parentTokenId) {\n        parentTokenId = childTokenOwner[_childContract][_childTokenId];\n        require(parentTokenId > 0 || childTokenIndex[parentTokenId][_childContract][_childTokenId] > 0);\n        return (ERC998_MAGIC_VALUE << 224 | bytes32(uint256(tokenIdToTokenOwner[parentTokenId])), parentTokenId);\n    }\n\n    function childExists(address _childContract, uint256 _childTokenId) external view returns (bool) {\n        uint256 tokenId = childTokenOwner[_childContract][_childTokenId];\n        return childTokenIndex[tokenId][_childContract][_childTokenId] != 0;\n    }\n\n    function totalChildContracts(uint256 _tokenId) external view returns (uint256) {\n        return childContracts[_tokenId].length;\n    }\n\n    function childContractByIndex(uint256 _tokenId, uint256 _index) external view returns (address childContract) {\n        require(_index < childContracts[_tokenId].length, \"Contract address does not exist for this token and index.\");\n        return childContracts[_tokenId][_index];\n    }\n\n    function totalChildTokens(uint256 _tokenId, address _childContract) external view returns (uint256) {\n        return childTokens[_tokenId][_childContract].length;\n    }\n\n    function childTokenByIndex(uint256 _tokenId, address _childContract, uint256 _index) external view returns (uint256 childTokenId) {\n        require(_index < childTokens[_tokenId][_childContract].length, \"Token does not own a child token at contract address and index.\");\n        return childTokens[_tokenId][_childContract][_index];\n    }\n\n    //------------------------------------------------------------\n    // ERC721 Metadata interface\n\n    function name() external view returns (string memory) {\n        return \"Tokens Equal Text ERC-998\";\n    }\n\n    function symbol() external view returns (string memory) {\n        return \"TET998\";\n    }\n\n    string private tokenURIBase\n        = \"https://show.robmyers.org/tokens-equal-text/metadata/\";\n\n    function updateTokenURIBase(string calldata _newBase) onlyOwner external {\n        tokenURIBase = _newBase;\n    }\n\n    function tokenURI(uint256 _tokenId) external view returns (string memory) {\n        return Strings.strConcat(\n            tokenURIBase,\n            Strings.uint2str(_tokenId)\n        );\n    }\n\n    //------------------------------------------------------------\n    // ERC721 Enumerable interface\n\n    function totalSupply() public view returns (uint256) {\n        return tokenCount;\n    }\n\n    function tokenOfOwnerByIndex(address owner, uint256 index)\n        public view\n        returns (uint256 tokenId)\n    {\n        require(index < balanceOf(owner));\n        // Avoid maintaining an array for each address, because there are only\n        // 32 tokens and this is cheaper than updating arrays.\n        uint256 matches = 0;\n        // Remember that token IDs start at 1, and are successive small ints\n        for(uint256 i = 1; i <= tokenCount; i++) {\n            if(ownerOf(i) == owner) {\n                if (matches == index) {\n                    tokenId = i;\n                } else {\n                    matches++;\n                }\n            }\n        }\n    }\n\n    function tokenByIndex(uint256 index) public pure returns (uint256) {\n        // We generate the IDs like this, so just do the same here and\n        // don't use storage we don't have to\n        return index + 1;\n    }\n\n    //------------------------------------------------------------\n\n    // wrapper on minting new 721\n    function _mint(address _to) private returns (uint256) {\n        tokenCount++;\n        tokenIdToTokenOwner[tokenCount] = _to;\n        tokenOwnerToTokenCount[_to]++;\n        return tokenCount;\n    }\n\n    // We should make this a one-time callable\n    function mintBatch(uint256 _count) onlyOwner public {\n        for(uint256 i = 0; i < _count; i++) {\n            // msg.sender will be owner, saving a call to owner()\n            _mint(msg.sender);\n        }\n    }\n\n}\n",
  "sourcePath": "/home/rob/projects/tokens-equal-text/contracts/TokensEqualTextERC998.sol",
  "compiler": {
    "name": "solc",
    "version": "0.5.0+commit.1d4f565a.Emscripten.clang"
  },
  "schemaVersion": "3.4.11",
  "updatedAt": "2023-01-04T02:08:52.668Z",
  "networkType": "ethereum",
  "devdoc": {
    "methods": {
      "isOwner()": {
        "return": "true if `msg.sender` is the owner of the contract."
      },
      "owner()": {
        "return": "the address of the owner."
      },
      "renounceOwnership()": {
        "details": "Allows the current owner to relinquish control of the contract."
      },
      "supportsInterface(bytes4)": {
        "details": "implement supportsInterface(bytes4) using a lookup table"
      },
      "transferOwnership(address)": {
        "details": "Allows the current owner to transfer control of the contract to a newOwner.",
        "params": {
          "newOwner": "The address to transfer ownership to."
        }
      }
    }
  },
  "userdoc": {
    "methods": {
      "renounceOwnership()": {
        "notice": "Renouncing to ownership will leave the contract without an owner. It will not be possible to call the functions with the `onlyOwner` modifier anymore."
      }
    }
  }
}