{
  "contractName": "TokensEqualTextERC998",
  "abi": [
    {
      "constant": true,
      "inputs": [
        {
          "name": "interfaceId",
          "type": "bytes4"
        }
      ],
      "name": "supportsInterface",
      "outputs": [
        {
          "name": "",
          "type": "bool"
        }
      ],
      "payable": false,
      "stateMutability": "view",
      "type": "function",
      "signature": "0x01ffc9a7"
    },
    {
      "constant": false,
      "inputs": [],
      "name": "renounceOwnership",
      "outputs": [],
      "payable": false,
      "stateMutability": "nonpayable",
      "type": "function",
      "signature": "0x715018a6"
    },
    {
      "constant": true,
      "inputs": [],
      "name": "owner",
      "outputs": [
        {
          "name": "",
          "type": "address"
        }
      ],
      "payable": false,
      "stateMutability": "view",
      "type": "function",
      "signature": "0x8da5cb5b"
    },
    {
      "constant": true,
      "inputs": [],
      "name": "isOwner",
      "outputs": [
        {
          "name": "",
          "type": "bool"
        }
      ],
      "payable": false,
      "stateMutability": "view",
      "type": "function",
      "signature": "0x8f32d59b"
    },
    {
      "constant": false,
      "inputs": [
        {
          "name": "newOwner",
          "type": "address"
        }
      ],
      "name": "transferOwnership",
      "outputs": [],
      "payable": false,
      "stateMutability": "nonpayable",
      "type": "function",
      "signature": "0xf2fde38b"
    },
    {
      "anonymous": false,
      "inputs": [
        {
          "indexed": true,
          "name": "previousOwner",
          "type": "address"
        },
        {
          "indexed": true,
          "name": "newOwner",
          "type": "address"
        }
      ],
      "name": "OwnershipTransferred",
      "type": "event",
      "signature": "0x8be0079c531659141344cd1fd0a4f28419497f9722a3daafe3b4186f6b6457e0"
    },
    {
      "anonymous": false,
      "inputs": [
        {
          "indexed": true,
          "name": "_from",
          "type": "address"
        },
        {
          "indexed": true,
          "name": "_tokenId",
          "type": "uint256"
        },
        {
          "indexed": true,
          "name": "_childContract",
          "type": "address"
        },
        {
          "indexed": false,
          "name": "_childTokenId",
          "type": "uint256"
        }
      ],
      "name": "ReceivedChild",
      "type": "event",
      "signature": "0x0371ddf2288ad1ba92626a7e31c86a9d006e592cfe57d7d946ef08b13457c08b"
    },
    {
      "anonymous": false,
      "inputs": [
        {
          "indexed": true,
          "name": "tokenId",
          "type": "uint256"
        },
        {
          "indexed": true,
          "name": "_to",
          "type": "address"
        },
        {
          "indexed": true,
          "name": "_childContract",
          "type": "address"
        },
        {
          "indexed": false,
          "name": "_childTokenId",
          "type": "uint256"
        }
      ],
      "name": "TransferChild",
      "type": "event",
      "signature": "0x0ef52e516fb5aec15a5d3587e5480481b702b26db93c8430eca78b61990fd3f6"
    },
    {
      "anonymous": false,
      "inputs": [
        {
          "indexed": true,
          "name": "from",
          "type": "address"
        },
        {
          "indexed": true,
          "name": "to",
          "type": "address"
        },
        {
          "indexed": true,
          "name": "tokenId",
          "type": "uint256"
        }
      ],
      "name": "Transfer",
      "type": "event",
      "signature": "0xddf252ad1be2c89b69c2b068fc378daa952ba7f163c4a11628f55a4df523b3ef"
    },
    {
      "anonymous": false,
      "inputs": [
        {
          "indexed": true,
          "name": "owner",
          "type": "address"
        },
        {
          "indexed": true,
          "name": "approved",
          "type": "address"
        },
        {
          "indexed": true,
          "name": "tokenId",
          "type": "uint256"
        }
      ],
      "name": "Approval",
      "type": "event",
      "signature": "0x8c5be1e5ebec7d5bd14f71427d1e84f3dd0314c0f7b2291e5b200ac8c7c3b925"
    },
    {
      "anonymous": false,
      "inputs": [
        {
          "indexed": true,
          "name": "owner",
          "type": "address"
        },
        {
          "indexed": true,
          "name": "operator",
          "type": "address"
        },
        {
          "indexed": false,
          "name": "approved",
          "type": "bool"
        }
      ],
      "name": "ApprovalForAll",
      "type": "event",
      "signature": "0x17307eab39ab6107e8899845ad3d59bd9653f200f220920489ca2b5937696c31"
    },
    {
      "constant": true,
      "inputs": [
        {
          "name": "_tokenId",
          "type": "uint256"
        }
      ],
      "name": "rootOwnerOf",
      "outputs": [
        {
          "name": "rootOwner",
          "type": "bytes32"
        }
      ],
      "payable": false,
      "stateMutability": "view",
      "type": "function",
      "signature": "0x43a61a8e"
    },
    {
      "constant": true,
      "inputs": [
        {
          "name": "_childContract",
          "type": "address"
        },
        {
          "name": "_childTokenId",
          "type": "uint256"
        }
      ],
      "name": "rootOwnerOfChild",
      "outputs": [
        {
          "name": "rootOwner",
          "type": "bytes32"
        }
      ],
      "payable": false,
      "stateMutability": "view",
      "type": "function",
      "signature": "0xed81cdda"
    },
    {
      "constant": true,
      "inputs": [
        {
          "name": "_tokenId",
          "type": "uint256"
        }
      ],
      "name": "ownerOf",
      "outputs": [
        {
          "name": "tokenOwner",
          "type": "address"
        }
      ],
      "payable": false,
      "stateMutability": "view",
      "type": "function",
      "signature": "0x6352211e"
    },
    {
      "constant": true,
      "inputs": [
        {
          "name": "_tokenOwner",
          "type": "address"
        }
      ],
      "name": "balanceOf",
      "outputs": [
        {
          "name": "",
          "type": "uint256"
        }
      ],
      "payable": false,
      "stateMutability": "view",
      "type": "function",
      "signature": "0x70a08231"
    },
    {
      "constant": false,
      "inputs": [
        {
          "name": "_approved",
          "type": "address"
        },
        {
          "name": "_tokenId",
          "type": "uint256"
        }
      ],
      "name": "approve",
      "outputs": [],
      "payable": false,
      "stateMutability": "nonpayable",
      "type": "function",
      "signature": "0x095ea7b3"
    },
    {
      "constant": true,
      "inputs": [
        {
          "name": "_tokenId",
          "type": "uint256"
        }
      ],
      "name": "getApproved",
      "outputs": [
        {
          "name": "",
          "type": "address"
        }
      ],
      "payable": false,
      "stateMutability": "view",
      "type": "function",
      "signature": "0x081812fc"
    },
    {
      "constant": false,
      "inputs": [
        {
          "name": "_operator",
          "type": "address"
        },
        {
          "name": "_approved",
          "type": "bool"
        }
      ],
      "name": "setApprovalForAll",
      "outputs": [],
      "payable": false,
      "stateMutability": "nonpayable",
      "type": "function",
      "signature": "0xa22cb465"
    },
    {
      "constant": true,
      "inputs": [
        {
          "name": "_owner",
          "type": "address"
        },
        {
          "name": "_operator",
          "type": "address"
        }
      ],
      "name": "isApprovedForAll",
      "outputs": [
        {
          "name": "",
          "type": "bool"
        }
      ],
      "payable": false,
      "stateMutability": "view",
      "type": "function",
      "signature": "0xe985e9c5"
    },
    {
      "constant": false,
      "inputs": [
        {
          "name": "_from",
          "type": "address"
        },
        {
          "name": "_to",
          "type": "address"
        },
        {
          "name": "_tokenId",
          "type": "uint256"
        }
      ],
      "name": "transferFrom",
      "outputs": [],
      "payable": false,
      "stateMutability": "nonpayable",
      "type": "function",
      "signature": "0x23b872dd"
    },
    {
      "constant": false,
      "inputs": [
        {
          "name": "_from",
          "type": "address"
        },
        {
          "name": "_to",
          "type": "address"
        },
        {
          "name": "_tokenId",
          "type": "uint256"
        }
      ],
      "name": "safeTransferFrom",
      "outputs": [],
      "payable": false,
      "stateMutability": "nonpayable",
      "type": "function",
      "signature": "0x42842e0e"
    },
    {
      "constant": false,
      "inputs": [
        {
          "name": "_from",
          "type": "address"
        },
        {
          "name": "_to",
          "type": "address"
        },
        {
          "name": "_tokenId",
          "type": "uint256"
        },
        {
          "name": "_data",
          "type": "bytes"
        }
      ],
      "name": "safeTransferFrom",
      "outputs": [],
      "payable": false,
      "stateMutability": "nonpayable",
      "type": "function",
      "signature": "0xb88d4fde"
    },
    {
      "constant": false,
      "inputs": [
        {
          "name": "_fromTokenId",
          "type": "uint256"
        },
        {
          "name": "_to",
          "type": "address"
        },
        {
          "name": "_childContract",
          "type": "address"
        },
        {
          "name": "_childTokenId",
          "type": "uint256"
        }
      ],
      "name": "safeTransferChild",
      "outputs": [],
      "payable": false,
      "stateMutability": "nonpayable",
      "type": "function",
      "signature": "0x1d98f3c5"
    },
    {
      "constant": false,
      "inputs": [
        {
          "name": "_fromTokenId",
          "type": "uint256"
        },
        {
          "name": "_to",
          "type": "address"
        },
        {
          "name": "_childContract",
          "type": "address"
        },
        {
          "name": "_childTokenId",
          "type": "uint256"
        },
        {
          "name": "_data",
          "type": "bytes"
        }
      ],
      "name": "safeTransferChild",
      "outputs": [],
      "payable": false,
      "stateMutability": "nonpayable",
      "type": "function",
      "signature": "0x8d81f51e"
    },
    {
      "constant": false,
      "inputs": [
        {
          "name": "_fromTokenId",
          "type": "uint256"
        },
        {
          "name": "_to",
          "type": "address"
        },
        {
          "name": "_childContract",
          "type": "address"
        },
        {
          "name": "_childTokenId",
          "type": "uint256"
        }
      ],
      "name": "transferChild",
      "outputs": [],
      "payable": false,
      "stateMutability": "nonpayable",
      "type": "function",
      "signature": "0xbef44f18"
    },
    {
      "constant": false,
      "inputs": [
        {
          "name": "_fromTokenId",
          "type": "uint256"
        },
        {
          "name": "_toContract",
          "type": "address"
        },
        {
          "name": "_toTokenId",
          "type": "uint256"
        },
        {
          "name": "_childContract",
          "type": "address"
        },
        {
          "name": "_childTokenId",
          "type": "uint256"
        },
        {
          "name": "_data",
          "type": "bytes"
        }
      ],
      "name": "transferChildToParent",
      "outputs": [],
      "payable": false,
      "stateMutability": "nonpayable",
      "type": "function",
      "signature": "0x08937f62"
    },
    {
      "constant": false,
      "inputs": [
        {
          "name": "_from",
          "type": "address"
        },
        {
          "name": "_tokenId",
          "type": "uint256"
        },
        {
          "name": "_childContract",
          "type": "address"
        },
        {
          "name": "_childTokenId",
          "type": "uint256"
        }
      ],
      "name": "getChild",
      "outputs": [],
      "payable": false,
      "stateMutability": "nonpayable",
      "type": "function",
      "signature": "0xba6b5f96"
    },
    {
      "constant": false,
      "inputs": [
        {
          "name": "",
          "type": "address"
        },
        {
          "name": "_from",
          "type": "address"
        },
        {
          "name": "_childTokenId",
          "type": "uint256"
        },
        {
          "name": "_data",
          "type": "bytes"
        }
      ],
      "name": "onERC721Received",
      "outputs": [
        {
          "name": "",
          "type": "bytes4"
        }
      ],
      "payable": false,
      "stateMutability": "nonpayable",
      "type": "function",
      "signature": "0x150b7a02"
    },
    {
      "constant": false,
      "inputs": [
        {
          "name": "_from",
          "type": "address"
        },
        {
          "name": "_childTokenId",
          "type": "uint256"
        },
        {
          "name": "_data",
          "type": "bytes"
        }
      ],
      "name": "onERC721Received",
      "outputs": [
        {
          "name": "",
          "type": "bytes4"
        }
      ],
      "payable": false,
      "stateMutability": "nonpayable",
      "type": "function",
      "signature": "0xf0b9e5ba"
    },
    {
      "constant": true,
      "inputs": [
        {
          "name": "_childContract",
          "type": "address"
        },
        {
          "name": "_childTokenId",
          "type": "uint256"
        }
      ],
      "name": "ownerOfChild",
      "outputs": [
        {
          "name": "parentTokenOwner",
          "type": "bytes32"
        },
        {
          "name": "parentTokenId",
          "type": "uint256"
        }
      ],
      "payable": false,
      "stateMutability": "view",
      "type": "function",
      "signature": "0xeadb80b8"
    },
    {
      "constant": true,
      "inputs": [
        {
          "name": "_childContract",
          "type": "address"
        },
        {
          "name": "_childTokenId",
          "type": "uint256"
        }
      ],
      "name": "childExists",
      "outputs": [
        {
          "name": "",
          "type": "bool"
        }
      ],
      "payable": false,
      "stateMutability": "view",
      "type": "function",
      "signature": "0x5680a3ad"
    },
    {
      "constant": true,
      "inputs": [
        {
          "name": "_tokenId",
          "type": "uint256"
        }
      ],
      "name": "totalChildContracts",
      "outputs": [
        {
          "name": "",
          "type": "uint256"
        }
      ],
      "payable": false,
      "stateMutability": "view",
      "type": "function",
      "signature": "0x8da7d0b5"
    },
    {
      "constant": true,
      "inputs": [
        {
          "name": "_tokenId",
          "type": "uint256"
        },
        {
          "name": "_index",
          "type": "uint256"
        }
      ],
      "name": "childContractByIndex",
      "outputs": [
        {
          "name": "childContract",
          "type": "address"
        }
      ],
      "payable": false,
      "stateMutability": "view",
      "type": "function",
      "signature": "0x0d5a621b"
    },
    {
      "constant": true,
      "inputs": [
        {
          "name": "_tokenId",
          "type": "uint256"
        },
        {
          "name": "_childContract",
          "type": "address"
        }
      ],
      "name": "totalChildTokens",
      "outputs": [
        {
          "name": "",
          "type": "uint256"
        }
      ],
      "payable": false,
      "stateMutability": "view",
      "type": "function",
      "signature": "0x35b21ceb"
    },
    {
      "constant": true,
      "inputs": [
        {
          "name": "_tokenId",
          "type": "uint256"
        },
        {
          "name": "_childContract",
          "type": "address"
        },
        {
          "name": "_index",
          "type": "uint256"
        }
      ],
      "name": "childTokenByIndex",
      "outputs": [
        {
          "name": "childTokenId",
          "type": "uint256"
        }
      ],
      "payable": false,
      "stateMutability": "view",
      "type": "function",
      "signature": "0x160b01a1"
    },
    {
      "constant": true,
      "inputs": [],
      "name": "name",
      "outputs": [
        {
          "name": "",
          "type": "string"
        }
      ],
      "payable": false,
      "stateMutability": "pure",
      "type": "function",
      "signature": "0x06fdde03"
    },
    {
      "constant": true,
      "inputs": [],
      "name": "symbol",
      "outputs": [
        {
          "name": "",
          "type": "string"
        }
      ],
      "payable": false,
      "stateMutability": "pure",
      "type": "function",
      "signature": "0x95d89b41"
    },
    {
      "constant": false,
      "inputs": [
        {
          "name": "_newBase",
          "type": "string"
        }
      ],
      "name": "updateTokenURIBase",
      "outputs": [],
      "payable": false,
      "stateMutability": "nonpayable",
      "type": "function",
      "signature": "0x552fdf42"
    },
    {
      "constant": true,
      "inputs": [
        {
          "name": "_tokenId",
          "type": "uint256"
        }
      ],
      "name": "tokenURI",
      "outputs": [
        {
          "name": "",
          "type": "string"
        }
      ],
      "payable": false,
      "stateMutability": "view",
      "type": "function",
      "signature": "0xc87b56dd"
    },
    {
      "constant": false,
      "inputs": [
        {
          "name": "_count",
          "type": "uint256"
        }
      ],
      "name": "mintBatch",
      "outputs": [],
      "payable": false,
      "stateMutability": "nonpayable",
      "type": "function",
      "signature": "0x20e409b4"
    }
  ],
  "bytecode": "0x600060065560e0604052602760808190527f68747470733a2f2f726f626d796572732e6f72672f746f6b656e732d6571756160a09081527f6c2d746578742f0000000000000000000000000000000000000000000000000060c05262000069916010919062000191565b506200009e7f01ffc9a70000000000000000000000000000000000000000000000000000000064010000000062000124810204565b620000d27f80ac58cd0000000000000000000000000000000000000000000000000000000064010000000062000124810204565b60058054600160a060020a031916331790819055604051600160a060020a0391909116906000907f8be0079c531659141344cd1fd0a4f28419497f9722a3daafe3b4186f6b6457e0908290a362000236565b7fffffffff0000000000000000000000000000000000000000000000000000000080821614156200015457600080fd5b7fffffffff00000000000000000000000000000000000000000000000000000000166000908152602081905260409020805460ff19166001179055565b828054600181600116156101000203166002900490600052602060002090601f016020900481019282601f10620001d457805160ff191683800117855562000204565b8280016001018555821562000204579182015b8281111562000204578251825591602001919060010190620001e7565b506200021292915062000216565b5090565b6200023391905b808211156200021257600081556001016200021d565b90565b61325180620002466000396000f3fe6080604052600436106101925763ffffffff60e060020a60003504166301ffc9a7811461019757806306fdde03146101df578063081812fc1461026957806308937f62146102af578063095ea7b3146103595780630d5a621b14610392578063150b7a02146103c2578063160b01a11461047c5780631d98f3c5146104cd57806320e409b41461051657806323b872dd1461054057806335b21ceb1461058357806342842e0e146105bc57806343a61a8e146105ff578063552fdf42146106295780635680a3ad146106a65780636352211e146106df57806370a0823114610709578063715018a61461073c5780638d81f51e146107515780638da5cb5b146107f35780638da7d0b5146108085780638f32d59b1461083257806395d89b4114610847578063a22cb4651461085c578063b88d4fde14610897578063ba6b5f961461096a578063bef44f18146109b1578063c87b56dd146109fa578063e985e9c514610a24578063eadb80b814610a5f578063ed81cdda14610ab1578063f0b9e5ba14610aea578063f2fde38b14610b7c575b600080fd5b3480156101a357600080fd5b506101cb600480360360208110156101ba57600080fd5b5035600160e060020a031916610baf565b604080519115158252519081900360200190f35b3480156101eb57600080fd5b506101f4610bd2565b6040805160208082528351818301528351919283929083019185019080838360005b8381101561022e578181015183820152602001610216565b50505050905090810190601f16801561025b5780820380516001836020036101000a031916815260200191505b509250505060405180910390f35b34801561027557600080fd5b506102936004803603602081101561028c57600080fd5b5035610c0a565b60408051600160a060020a039092168252519081900360200190f35b3480156102bb57600080fd5b50610357600480360360c08110156102d257600080fd5b813591600160a060020a03602082013581169260408301359260608101359092169160808101359181019060c0810160a082013564010000000081111561031857600080fd5b82018360208201111561032a57600080fd5b8035906020019184600183028401116401000000008311171561034c57600080fd5b509092509050610c44565b005b34801561036557600080fd5b506103576004803603604081101561037c57600080fd5b50600160a060020a038135169060200135610e79565b34801561039e57600080fd5b50610293600480360360408110156103b557600080fd5b5080359060200135610f31565b3480156103ce57600080fd5b5061045f600480360360808110156103e557600080fd5b600160a060020a0382358116926020810135909116916040820135919081019060808101606082013564010000000081111561042057600080fd5b82018360208201111561043257600080fd5b8035906020019184600183028401116401000000008311171561045457600080fd5b509092509050610ff4565b60408051600160e060020a03199092168252519081900360200190f35b34801561048857600080fd5b506104bb6004803603606081101561049f57600080fd5b50803590600160a060020a0360208201351690604001356111c8565b60408051918252519081900360200190f35b3480156104d957600080fd5b50610357600480360360808110156104f057600080fd5b50803590600160a060020a036020820135811691604081013590911690606001356112a9565b34801561052257600080fd5b506103576004803603602081101561053957600080fd5b5035611498565b34801561054c57600080fd5b506103576004803603606081101561056357600080fd5b50600160a060020a038135811691602081013590911690604001356114cc565b34801561058f57600080fd5b506104bb600480360360408110156105a657600080fd5b5080359060200135600160a060020a03166114dc565b3480156105c857600080fd5b50610357600480360360608110156105df57600080fd5b50600160a060020a03813581169160208101359091169060400135611504565b34801561060b57600080fd5b506104bb6004803603602081101561062257600080fd5b5035611607565b34801561063557600080fd5b506103576004803603602081101561064c57600080fd5b81019060208101813564010000000081111561066757600080fd5b82018360208201111561067957600080fd5b8035906020019184600183028401116401000000008311171561069b57600080fd5b509092509050611614565b3480156106b257600080fd5b506101cb600480360360408110156106c957600080fd5b50600160a060020a038135169060200135611633565b3480156106eb57600080fd5b506102936004803603602081101561070257600080fd5b5035611678565b34801561071557600080fd5b506104bb6004803603602081101561072c57600080fd5b5035600160a060020a031661169c565b34801561074857600080fd5b506103576116cf565b34801561075d57600080fd5b50610357600480360360a081101561077457600080fd5b813591600160a060020a03602082013581169260408301359091169160608101359181019060a0810160808201356401000000008111156107b457600080fd5b8201836020820111156107c657600080fd5b803590602001918460018302840111640100000000831117156107e857600080fd5b50909250905061172c565b3480156107ff57600080fd5b50610293611958565b34801561081457600080fd5b506104bb6004803603602081101561082b57600080fd5b5035611967565b34801561083e57600080fd5b506101cb611979565b34801561085357600080fd5b506101f461198a565b34801561086857600080fd5b506103576004803603604081101561087f57600080fd5b50600160a060020a03813516906020013515156119c1565b3480156108a357600080fd5b50610357600480360360808110156108ba57600080fd5b600160a060020a038235811692602081013590911691604082013591908101906080810160608201356401000000008111156108f557600080fd5b82018360208201111561090757600080fd5b8035906020019184600183028401116401000000008311171561092957600080fd5b91908080601f016020809104026020016040519081016040528093929190818152602001838380828437600092019190915250929550611a44945050505050565b34801561097657600080fd5b506103576004803603608081101561098d57600080fd5b50600160a060020a0381358116916020810135916040820135169060600135611baa565b3480156109bd57600080fd5b50610357600480360360808110156109d457600080fd5b50803590600160a060020a03602082013581169160408101359091169060600135611d86565b348015610a0657600080fd5b506101f460048036036020811015610a1d57600080fd5b5035611fa3565b348015610a3057600080fd5b506101cb60048036036040811015610a4757600080fd5b50600160a060020a0381358116916020013516612045565b348015610a6b57600080fd5b50610a9860048036036040811015610a8257600080fd5b50600160a060020a0381351690602001356120a0565b6040805192835260208301919091528051918290030190f35b348015610abd57600080fd5b506104bb60048036036040811015610ad457600080fd5b50600160a060020a038135169060200135612148565b348015610af657600080fd5b5061045f60048036036060811015610b0d57600080fd5b600160a060020a0382351691602081013591810190606081016040820135640100000000811115610b3d57600080fd5b820183602082011115610b4f57600080fd5b80359060200191846001830284011164010000000083111715610b7157600080fd5b509092509050612286565b348015610b8857600080fd5b5061035760048036036020811015610b9f57600080fd5b5035600160a060020a0316612459565b600160e060020a0319811660009081526020819052604090205460ff165b919050565b60408051808201909152601981527f546f6b656e7320457175616c2054657874204552432d3939380000000000000060208201525b90565b600080610c1683611607565b600160a060020a03908116600090815260086020908152604080832087845290915290205416915050919050565b600160a060020a0384166000908152600f6020908152604080832086845290915281205490811180610c9e57506000818152600e60209081526040808320600160a060020a03891684528252808320878452909152812054115b1515610ca957600080fd5b808814610cb557600080fd5b600160a060020a0387161515610cca57600080fd5b6000610cd582611607565b9050600160a060020a038116331480610d115750600160a060020a0381166000908152600a6020908152604080832033845290915290205460ff165b80610d405750600160a060020a0381811660009081526008602090815260408083208684529091529020541633145b1515610d4b57600080fd5b610d56898787612478565b6040517ff50acfa00000000000000000000000000000000000000000000000000000000081523060048201818152600160a060020a038b81166024850152604484018b90526064840189905260a06084850190815260a48501889052908a169363f50acfa093928d928d928c928c928c9260c401848480828437600081840152601f19601f820116905080830192505050975050505050505050600060405180830381600087803b158015610e0a57600080fd5b505af1158015610e1e573d6000803e3d6000fd5b5050505085600160a060020a031688600160a060020a03168a7f0ef52e516fb5aec15a5d3587e5480481b702b26db93c8430eca78b61990fd3f6886040518082815260200191505060405180910390a4505050505050505050565b6000610e8482611607565b9050600160a060020a038116331480610ec05750600160a060020a0381166000908152600a6020908152604080832033845290915290205460ff165b1515610ecb57600080fd5b600160a060020a0381811660008181526008602090815260408083208784529091528082208054600160a060020a031916948816948517905551859392917f8c5be1e5ebec7d5bd14f71427d1e84f3dd0314c0f7b2291e5b200ac8c7c3b92591a4505050565b6000828152600b60205260408120548210610fbc576040805160e560020a62461bcd02815260206004820152603960248201527f436f6e7472616374206164647265737320646f6573206e6f742065786973742060448201527f666f72207468697320746f6b656e20616e6420696e6465782e00000000000000606482015290519081900360840190fd5b6000838152600b60205260409020805483908110610fd657fe5b600091825260209091200154600160a060020a031690505b92915050565b6000808211611099576040805160e560020a62461bcd02815260206004820152604660248201527f5f64617461206d75737420636f6e7461696e207468652075696e74323536207460448201527f6f6b656e496420746f207472616e7366657220746865206368696c6420746f6b60648201527f656e20746f2e0000000000000000000000000000000000000000000000000000608482015290519081900360a40190fd5b60a43560208310156110b357600883026101000360020a90045b6110bf8682338861273c565b6000600160a060020a031633600160a060020a0316636352211e876040518263ffffffff1660e060020a0281526004018082815260200191505060206040518083038186803b15801561111157600080fd5b505afa158015611125573d6000803e3d6000fd5b505050506040513d602081101561113b57600080fd5b5051600160a060020a0316141561119c576040805160e560020a62461bcd02815260206004820152601660248201527f4368696c6420746f6b656e206e6f74206f776e65642e00000000000000000000604482015290519081900360640190fd5b507f150b7a02000000000000000000000000000000000000000000000000000000009695505050505050565b6000838152600d60209081526040808320600160a060020a03861684529091528120548210611267576040805160e560020a62461bcd02815260206004820152603f60248201527f546f6b656e20646f6573206e6f74206f776e2061206368696c6420746f6b656e60448201527f20617420636f6e7472616374206164647265737320616e6420696e6465782e00606482015290519081900360840190fd5b6000848152600d60209081526040808320600160a060020a0387168452909152902080548390811061129557fe5b906000526020600020015490509392505050565b600160a060020a0382166000908152600f602090815260408083208484529091528120549081118061130357506000818152600e60209081526040808320600160a060020a03871684528252808320858452909152812054115b151561130e57600080fd5b80851461131a57600080fd5b600160a060020a038416151561132f57600080fd5b600061133a82611607565b9050600160a060020a0381163314806113765750600160a060020a0381166000908152600a6020908152604080832033845290915290205460ff165b806113a55750600160a060020a0381811660009081526008602090815260408083208684529091529020541633145b15156113b057600080fd5b6113bb828585612478565b604080517f42842e0e000000000000000000000000000000000000000000000000000000008152306004820152600160a060020a038781166024830152604482018690529151918616916342842e0e9160648082019260009290919082900301818387803b15801561142c57600080fd5b505af1158015611440573d6000803e3d6000fd5b5050505083600160a060020a031685600160a060020a0316837f0ef52e516fb5aec15a5d3587e5480481b702b26db93c8430eca78b61990fd3f6866040518082815260200191505060405180910390a4505050505050565b6114a0611979565b15156114ab57600080fd5b60005b818110156114c8576114bf33612978565b506001016114ae565b5050565b6114d78383836129c8565b505050565b6000918252600d60209081526040808420600160a060020a0393909316845291905290205490565b61150f8383836129c8565b61151882612cf9565b156114d757604080517f150b7a02000000000000000000000000000000000000000000000000000000008152336004820152600160a060020a038581166024830152604482018490526080606483015260006084830181905292519085169163150b7a029160c480830192602092919082900301818787803b15801561159d57600080fd5b505af11580156115b1573d6000803e3d6000fd5b505050506040513d60208110156115c757600080fd5b50519050600160e060020a031981167ff0b9e5ba000000000000000000000000000000000000000000000000000000001461160157600080fd5b50505050565b6000610fee600083612148565b61161c611979565b151561162757600080fd5b6114d76010838361316d565b600160a060020a0382166000818152600f602090815260408083208584528252808320548352600e825280832093835292815282822084835290522054151592915050565b600081815260076020526040902054600160a060020a0316801515610bcd57600080fd5b6000600160a060020a03821615156116b357600080fd5b50600160a060020a031660009081526009602052604090205490565b6116d7611979565b15156116e257600080fd5b600554604051600091600160a060020a0316907f8be0079c531659141344cd1fd0a4f28419497f9722a3daafe3b4186f6b6457e0908390a360058054600160a060020a0319169055565b600160a060020a0384166000908152600f602090815260408083208684529091528120549081118061178657506000818152600e60209081526040808320600160a060020a03891684528252808320878452909152812054115b151561179157600080fd5b80871461179d57600080fd5b600160a060020a03861615156117b257600080fd5b60006117bd82611607565b9050600160a060020a0381163314806117f95750600160a060020a0381166000908152600a6020908152604080832033845290915290205460ff165b806118285750600160a060020a0381811660009081526008602090815260408083208684529091529020541633145b151561183357600080fd5b61183e828787612478565b6040517fb88d4fde0000000000000000000000000000000000000000000000000000000081523060048201818152600160a060020a038a811660248501526044840189905260806064850190815260848501889052908a169363b88d4fde93928c928b928b928b92909160a401848480828437600081840152601f19601f8201169050808301925050509650505050505050600060405180830381600087803b1580156118ea57600080fd5b505af11580156118fe573d6000803e3d6000fd5b5050505085600160a060020a031687600160a060020a0316837f0ef52e516fb5aec15a5d3587e5480481b702b26db93c8430eca78b61990fd3f6886040518082815260200191505060405180910390a45050505050505050565b600554600160a060020a031690565b6000908152600b602052604090205490565b600554600160a060020a0316331490565b60408051808201909152600681527f5445543939380000000000000000000000000000000000000000000000000000602082015290565b600160a060020a03821615156119d657600080fd5b336000818152600a60209081526040808320600160a060020a03871680855290835292819020805460ff1916861515908117909155815190815290519293927f17307eab39ab6107e8899845ad3d59bd9653f200f220920489ca2b5937696c31929181900390910190a35050565b611a4f8484846129c8565b611a5883612cf9565b15611601576040517f150b7a020000000000000000000000000000000000000000000000000000000081523360048201818152600160a060020a038781166024850152604484018690526080606485019081528551608486015285516000959289169463150b7a029490938b938a938a939260a4019060208501908083838e5b83811015611af0578181015183820152602001611ad8565b50505050905090810190601f168015611b1d5780820380516001836020036101000a031916815260200191505b5095505050505050602060405180830381600087803b158015611b3f57600080fd5b505af1158015611b53573d6000803e3d6000fd5b505050506040513d6020811015611b6957600080fd5b50519050600160e060020a031981167ff0b9e5ba0000000000000000000000000000000000000000000000000000000014611ba357600080fd5b5050505050565b611bb68484848461273c565b600160a060020a038416331480611c5e5750604080517fe985e9c5000000000000000000000000000000000000000000000000000000008152600160a060020a03868116600483015233602483015291519184169163e985e9c591604480820192602092909190829003018186803b158015611c3157600080fd5b505afa158015611c45573d6000803e3d6000fd5b505050506040513d6020811015611c5b57600080fd5b50515b80611cec575033600160a060020a031682600160a060020a031663081812fc836040518263ffffffff1660e060020a0281526004018082815260200191505060206040518083038186803b158015611cb557600080fd5b505afa158015611cc9573d6000803e3d6000fd5b505050506040513d6020811015611cdf57600080fd5b5051600160a060020a0316145b1515611cf757600080fd5b604080517f23b872dd000000000000000000000000000000000000000000000000000000008152600160a060020a038681166004830152306024830152604482018490529151918416916323b872dd9160648082019260009290919082900301818387803b158015611d6857600080fd5b505af1158015611d7c573d6000803e3d6000fd5b5050505050505050565b600160a060020a0382166000908152600f6020908152604080832084845290915281205490811180611de057506000818152600e60209081526040808320600160a060020a03871684528252808320858452909152812054115b1515611deb57600080fd5b808514611df757600080fd5b600160a060020a0384161515611e0c57600080fd5b6000611e1782611607565b9050600160a060020a038116331480611e535750600160a060020a0381166000908152600a6020908152604080832033845290915290205460ff165b80611e825750600160a060020a0381811660009081526008602090815260408083208684529091529020541633145b1515611e8d57600080fd5b611e98828585612478565b6040805130602482015260448082018690528251808303909101815260649091019091526020810180517bffffffffffffffffffffffffffffffffffffffffffffffffffffffff167f095ea7b300000000000000000000000000000000000000000000000000000000178152815160009183919083895af150604080517f23b872dd000000000000000000000000000000000000000000000000000000008152306004820152600160a060020a038881166024830152604482018790529151918716916323b872dd9160648082019260009290919082900301818387803b158015611f8257600080fd5b505af1158015611f96573d6000803e3d6000fd5b5050505050505050505050565b6010805460408051602060026001851615610100026000190190941693909304601f8101849004840282018401909252818152606093610fee93919290918301828280156120325780601f1061200757610100808354040283529160200191612032565b820191906000526020600020905b81548152906001019060200180831161201557829003601f168201915b505050505061204084612d01565b612de5565b6000600160a060020a038316151561205c57600080fd5b600160a060020a038216151561207157600080fd5b50600160a060020a039182166000908152600a6020908152604080832093909416825291909152205460ff1690565b600160a060020a0382166000908152600f60209081526040808320848452909152812054818111806120fa57506000818152600e60209081526040808320600160a060020a03881684528252808320868452909152812054115b151561210557600080fd5b600081815260076020526040902054600160a060020a03167fcd740db5000000000000000000000000000000000000000000000000000000001794909350915050565b600080600160a060020a0384161561216d576121648484612e21565b93509050612187565b50600082815260076020526040902054600160a060020a03165b600160a060020a0381163014156121a2576121648184612e21565b604080513060248201526044808201869052825180830390910181526064909101909152602081810180517bffffffffffffffffffffffffffffffffffffffffffffffffffffffff167fed81cdda0000000000000000000000000000000000000000000000000000000017815282516000939291839190865afa9150811561222957805193505b6001821515148015612244575060e060020a840463cd740db5145b156122525750610fee915050565b5050600160a060020a03167fcd740db500000000000000000000000000000000000000000000000000000000179050610fee565b600080821161232b576040805160e560020a62461bcd02815260206004820152604660248201527f5f64617461206d75737420636f6e7461696e207468652075696e74323536207460448201527f6f6b656e496420746f207472616e7366657220746865206368696c6420746f6b60648201527f656e20746f2e0000000000000000000000000000000000000000000000000000608482015290519081900360a40190fd5b608435602083101561234557600883026101000360020a90045b6123518682338861273c565b6000600160a060020a031633600160a060020a0316636352211e876040518263ffffffff1660e060020a0281526004018082815260200191505060206040518083038186803b1580156123a357600080fd5b505afa1580156123b7573d6000803e3d6000fd5b505050506040513d60208110156123cd57600080fd5b5051600160a060020a0316141561242e576040805160e560020a62461bcd02815260206004820152601660248201527f4368696c6420746f6b656e206e6f74206f776e65642e00000000000000000000604482015290519081900360640190fd5b507ff0b9e5ba0000000000000000000000000000000000000000000000000000000095945050505050565b612461611979565b151561246c57600080fd5b61247581612ea7565b50565b6000838152600e60209081526040808320600160a060020a038616845282528083208484529091529020548015156124fa576040805160e560020a62461bcd02815260206004820152601f60248201527f4368696c6420746f6b656e206e6f74206f776e656420627920746f6b656e2e00604482015290519081900360640190fd5b6000848152600d60209081526040808320600160a060020a03871684529091528120805460001981019291908390811061253057fe5b90600052602060002001549050808414156125b3576000868152600d60209081526040808320600160a060020a038916845290915290208054829190600019860190811061257a57fe5b6000918252602080832090910192909255878152600e82526040808220600160a060020a03891683528352808220848352909252208390555b6000868152600d60209081526040808320600160a060020a038916845290915290208054906125e69060001983016131eb565b506000868152600e60209081526040808320600160a060020a03891680855290835281842088855283528184208490558352600f8252808320878452909152812055811515612734576000868152600b60205260408120805460001981019291908390811061265157fe5b600091825260209091200154600160a060020a039081169150871681146126ee576000888152600c60209081526040808320600160a060020a038b1684528252808320548b8452600b9092529091208054839190839081106126af57fe5b60009182526020808320919091018054600160a060020a031916600160a060020a039485161790558b8252600c81526040808320938616835292905220555b6000888152600b6020526040902080549061270d9060001983016131eb565b5050506000868152600c60209081526040808320600160a060020a03891684529091528120555b505050505050565b600083815260076020526040902054600160a060020a031615156127aa576040805160e560020a62461bcd02815260206004820152601860248201527f5f746f6b656e496420646f6573206e6f742065786973742e0000000000000000604482015290519081900360640190fd5b6000838152600e60209081526040808320600160a060020a0386168452825280832084845290915290205415612850576040805160e560020a62461bcd02815260206004820152602481018290527f43616e6e6f742072656365697665206368696c6420746f6b656e20626563617560448201527f73652069742068617320616c7265616479206265656e2072656365697665642e606482015290519081900360840190fd5b6000838152600d60209081526040808320600160a060020a03861684529091529020548015156128ca576000848152600b602081815260408084208054600c8452828620600160a060020a038a1680885290855292862081905593835260018401815584529220018054600160a060020a03191690911790555b6000848152600d60209081526040808320600160a060020a0380881680865291845282852080546001818101835591875285872001889055898652600e8552838620838752855283862088875285528386209087019055818552600f84528285208786528452938290208890558151868152915190938893908a16927f0371ddf2288ad1ba92626a7e31c86a9d006e592cfe57d7d946ef08b13457c08b929081900390910190a45050505050565b6006805460019081019182905560008281526007602090815260408083208054600160a060020a038816600160a060020a0319909116811790915583526009909152902080549091019055919050565b600160a060020a03831615156129dd57600080fd5b600081815260076020526040902054600160a060020a03848116911614612a0357600080fd5b600160a060020a0382161515612a1857600080fd5b33600160a060020a03841614612baa57604080513060248201526044808201849052825180830390910181526064909101909152602081810180517bffffffffffffffffffffffffffffffffffffffffffffffffffffffff167fed81cdda0000000000000000000000000000000000000000000000000000000017815282516000938493909290918391895afa91508115612ab257805192505b60018215151415612b455760e060020a830463cd740db51415612b45576040805160e560020a62461bcd02815260206004820152602b60248201527f546f6b656e206973206368696c64206f66206f7468657220746f7020646f776e60448201527f20636f6d706f7361626c65000000000000000000000000000000000000000000606482015290519081900360840190fd5b600160a060020a0386166000908152600a6020908152604080832033845290915290205460ff1680612b9b5750600160a060020a0386811660009081526008602090815260408083208884529091529020541633145b1515612ba657600080fd5b5050505b600160a060020a0383811660009081526008602090815260408083208584529091529020541615612c3157600160a060020a03831660008181526008602090815260408083208584529091528082208054600160a060020a0319169055518392907f8c5be1e5ebec7d5bd14f71427d1e84f3dd0314c0f7b2291e5b200ac8c7c3b925908390a45b600160a060020a0383811690831614612cb357600160a060020a03831660009081526009602052604081205411612c6457fe5b600160a060020a0383811660009081526009602081815260408084208054600019019055858452600782528084208054600160a060020a03191695881695861790559383525220805460010190555b8082600160a060020a031684600160a060020a03167fddf252ad1be2c89b69c2b068fc378daa952ba7f163c4a11628f55a4df523b3ef60405160405180910390a4505050565b6000903b1190565b6060811515612d44575060408051808201909152600181527f30000000000000000000000000000000000000000000000000000000000000006020820152610bcd565b8160005b8115612d5c57600101600a82049150612d48565b6060816040519080825280601f01601f191660200182016040528015612d89576020820181803883390190505b50905060001982015b8515612ddc57815160001982019160f860020a6030600a8a060102918491908110612db957fe5b906020010190600160f860020a031916908160001a905350600a86049550612d92565b50949350505050565b604080516020818101835260008083528351808301855281815284519283019094528152606092612e1a928692869290612f18565b9392505050565b600160a060020a0382166000908152600f6020908152604080832084845290915281205481811180612e7b57506000818152600e60209081526040808320600160a060020a03881684528252808320868452909152812054115b1515612e8657600080fd5b600081815260076020526040902054600160a060020a031691509250929050565b600160a060020a0381161515612ebc57600080fd5b600554604051600160a060020a038084169216907f8be0079c531659141344cd1fd0a4f28419497f9722a3daafe3b4186f6b6457e090600090a360058054600160a060020a031916600160a060020a0392909216919091179055565b6060808690506060869050606086905060608690506060869050606081518351855187518951010101016040519080825280601f01601f191660200182016040528015612f6c576020820181803883390190505b509050806000805b8851811015612fd2578881815181101515612f8b57fe5b90602001015160f860020a900460f860020a028383806001019450815181101515612fb257fe5b906020010190600160f860020a031916908160001a905350600101612f74565b5060005b8751811015613034578781815181101515612fed57fe5b90602001015160f860020a900460f860020a02838380600101945081518110151561301457fe5b906020010190600160f860020a031916908160001a905350600101612fd6565b5060005b865181101561309657868181518110151561304f57fe5b90602001015160f860020a900460f860020a02838380600101945081518110151561307657fe5b906020010190600160f860020a031916908160001a905350600101613038565b5060005b85518110156130f85785818151811015156130b157fe5b90602001015160f860020a900460f860020a0283838060010194508151811015156130d857fe5b906020010190600160f860020a031916908160001a90535060010161309a565b5060005b845181101561315a57848181518110151561311357fe5b90602001015160f860020a900460f860020a02838380600101945081518110151561313a57fe5b906020010190600160f860020a031916908160001a9053506001016130fc565b50909d9c50505050505050505050505050565b828054600181600116156101000203166002900490600052602060002090601f016020900481019282601f106131ae5782800160ff198235161785556131db565b828001600101855582156131db579182015b828111156131db5782358255916020019190600101906131c0565b506131e792915061320b565b5090565b8154818355818111156114d7576000838152602090206114d79181019083015b610c0791905b808211156131e7576000815560010161321156fea165627a7a723058203b21195209da6bd1e03d285689eb629f2d66d46996bb6b996087a3223e23a29a0029",
  "source": "/**********************************\n// Based in large part on ERC998: V\n/* Author: Nick Mudge, <nick@perfectabstractions.com>, https://medium.com/@mudgen.\n/**********************************/\n\n//jshint ignore: start\n\npragma solidity ^0.5.0;\n\nimport \"openzeppelin-solidity/contracts/token/ERC721/ERC721Full.sol\";\nimport \"openzeppelin-solidity/contracts/token/ERC721/ERC721.sol\";\nimport \"openzeppelin-solidity/contracts/token/ERC721/IERC721Receiver.sol\";\nimport \"openzeppelin-solidity/contracts/ownership/Ownable.sol\";\nimport \"openzeppelin-solidity/contracts/math/SafeMath.sol\";\n\nimport './Strings.sol';\n\ninterface ERC998ERC721TopDown {\n    event ReceivedChild(address indexed _from, uint256 indexed _tokenId, address indexed _childContract, uint256 _childTokenId);\n    event TransferChild(uint256 indexed tokenId, address indexed _to, address indexed _childContract, uint256 _childTokenId);\n\n    function rootOwnerOf(uint256 _tokenId) external view returns (bytes32 rootOwner);\n    function rootOwnerOfChild(address _childContract, uint256 _childTokenId) external view returns (bytes32 rootOwner);\n    function ownerOfChild(address _childContract, uint256 _childTokenId) external view returns (bytes32 parentTokenOwner, uint256 parentTokenId);\n    function onERC721Received(address _operator, address _from, uint256 _childTokenId, bytes calldata _data) external returns (bytes4);\n    function transferChild(uint256 _fromTokenId, address _to, address _childContract, uint256 _childTokenId) external;\n    function safeTransferChild(uint256 _fromTokenId, address _to, address _childContract, uint256 _childTokenId) external;\n    function safeTransferChild(uint256 _fromTokenId, address _to, address _childContract, uint256 _childTokenId, bytes calldata _data) external;\n    function transferChildToParent(uint256 _fromTokenId, address _toContract, uint256 _toTokenId, address _childContract, uint256 _childTokenId, bytes calldata _data) external;\n    // getChild function enables older contracts like cryptokitties to be transferred into a composable\n    // The _childContract must approve this contract. Then getChild can be called.\n    function getChild(address _from, uint256 _tokenId, address _childContract, uint256 _childTokenId) external;\n}\n\ninterface ERC998ERC721TopDownEnumerable {\n    function totalChildContracts(uint256 _tokenId) external view returns (uint256);\n    function childContractByIndex(uint256 _tokenId, uint256 _index) external view returns (address childContract);\n    function totalChildTokens(uint256 _tokenId, address _childContract) external view returns (uint256);\n    function childTokenByIndex(uint256 _tokenId, address _childContract, uint256 _index) external view returns (uint256 childTokenId);\n}\n\ninterface ERC998ERC721BottomUp {\n    function transferToParent(address _from, address _toContract, uint256 _toTokenId, uint256 _tokenId, bytes calldata _data) external;\n}\n\n\ncontract TokensEqualTextERC998 is\nERC721, ERC998ERC721TopDown, ERC998ERC721TopDownEnumerable, Ownable\n{\n    // return this.rootOwnerOf.selector ^ this.rootOwnerOfChild.selector ^\n    //   this.tokenOwnerOf.selector ^ this.ownerOfChild.selector;\n    bytes32 constant ERC998_MAGIC_VALUE = bytes32(uint256(0xcd740db5));\n\n    uint256 tokenCount = 0;\n\n    // tokenId => token owner\n    mapping(uint256 => address) internal tokenIdToTokenOwner;\n\n    // root token owner address => (tokenId => approved address)\n    mapping(address => mapping(uint256 => address)) internal rootOwnerAndTokenIdToApprovedAddress;\n\n    // token owner address => token count\n    mapping(address => uint256) internal tokenOwnerToTokenCount;\n\n    // token owner => (operator address => bool)\n    mapping(address => mapping(address => bool)) internal tokenOwnerToOperators;\n\n    //from zepellin ERC721Receiver.sol\n    //old version\n    bytes4 constant ERC721_RECEIVED_OLD = 0xf0b9e5ba;\n    //new version\n    bytes4 constant ERC721_RECEIVED_NEW = 0x150b7a02;\n\n    ////////////////////////////////////////////////////////\n    // ERC721 implementation\n    ////////////////////////////////////////////////////////\n\n    function isContract(address _addr) internal view returns (bool) {\n        uint256 size;\n        assembly {size := extcodesize(_addr)}\n        return size > 0;\n    }\n\n    function rootOwnerOf(uint256 _tokenId) public view returns (bytes32 rootOwner) {\n        return rootOwnerOfChild(address(0), _tokenId);\n    }\n\n    // returns the owner at the top of the tree of composables\n    // Use Cases handled:\n    // Case 1: Token owner is this contract and token.\n    // Case 2: Token owner is other top-down composable\n    // Case 3: Token owner is other contract\n    // Case 4: Token owner is user\n    function rootOwnerOfChild(address _childContract, uint256 _childTokenId) public view returns (bytes32 rootOwner) {\n        address rootOwnerAddress;\n        if (_childContract != address(0)) {\n            (rootOwnerAddress, _childTokenId) = _ownerOfChild(_childContract, _childTokenId);\n        }\n        else {\n            rootOwnerAddress = tokenIdToTokenOwner[_childTokenId];\n        }\n        // Case 1: Token owner is this contract and token.\n        while (rootOwnerAddress == address(this)) {\n            (rootOwnerAddress, _childTokenId) = _ownerOfChild(rootOwnerAddress, _childTokenId);\n        }\n\n        bool callSuccess;\n        bytes memory callData;\n        // 0xed81cdda == rootOwnerOfChild(address,uint256)\n        callData = abi.encodeWithSelector(0xed81cdda, address(this), _childTokenId);\n        assembly {\n            callSuccess := staticcall(gas, rootOwnerAddress, add(callData, 0x20), mload(callData), callData, 0x20)\n            if callSuccess {\n                rootOwner := mload(callData)\n            }\n        }\n        if(callSuccess == true && rootOwner >> 224 == ERC998_MAGIC_VALUE) {\n            // Case 2: Token owner is other top-down composable\n            return rootOwner;\n        }\n        else {\n            // Case 3: Token owner is other contract\n            // Or\n            // Case 4: Token owner is user\n            return ERC998_MAGIC_VALUE << 224 | bytes32(uint256(rootOwnerAddress));\n        }\n    }\n\n\n    // returns the owner at the top of the tree of composables\n\n    function ownerOf(uint256 _tokenId) public view returns (address tokenOwner) {\n        tokenOwner = tokenIdToTokenOwner[_tokenId];\n        require(tokenOwner != address(0));\n        return tokenOwner;\n    }\n\n    function balanceOf(address _tokenOwner) public view returns (uint256) {\n        require(_tokenOwner != address(0));\n        return tokenOwnerToTokenCount[_tokenOwner];\n    }\n\n\n    function approve(address _approved, uint256 _tokenId) public {\n        address rootOwner = address(uint256(rootOwnerOf(_tokenId)));\n        require(rootOwner == msg.sender || tokenOwnerToOperators[rootOwner][msg.sender]);\n        rootOwnerAndTokenIdToApprovedAddress[rootOwner][_tokenId] = _approved;\n        emit Approval(rootOwner, _approved, _tokenId);\n    }\n\n    function getApproved(uint256 _tokenId) public view returns (address)  {\n        address rootOwner = address(uint256(rootOwnerOf(_tokenId)));\n        return rootOwnerAndTokenIdToApprovedAddress[rootOwner][_tokenId];\n    }\n\n    function setApprovalForAll(address _operator, bool _approved) public {\n        require(_operator != address(0));\n        tokenOwnerToOperators[msg.sender][_operator] = _approved;\n        emit ApprovalForAll(msg.sender, _operator, _approved);\n    }\n\n    function isApprovedForAll(address _owner, address _operator) public view returns (bool)  {\n        require(_owner != address(0));\n        require(_operator != address(0));\n        return tokenOwnerToOperators[_owner][_operator];\n    }\n\n    function _transferFrom(address _from, address _to, uint256 _tokenId) internal {\n        require(_from != address(0));\n        require(tokenIdToTokenOwner[_tokenId] == _from);\n        require(_to != address(0));\n\n        if(msg.sender != _from) {\n            bytes32 rootOwner;\n            bool callSuccess;\n            // 0xed81cdda == rootOwnerOfChild(address,uint256)\n            bytes memory callData = abi.encodeWithSelector(0xed81cdda, address(this), _tokenId);\n            assembly {\n                callSuccess := staticcall(gas, _from, add(callData, 0x20), mload(callData), callData, 0x20)\n                if callSuccess {\n                    rootOwner := mload(callData)\n                }\n            }\n            if(callSuccess == true) {\n                require(rootOwner >> 224 != ERC998_MAGIC_VALUE, \"Token is child of other top down composable\");\n            }\n            require(tokenOwnerToOperators[_from][msg.sender] ||\n            rootOwnerAndTokenIdToApprovedAddress[_from][_tokenId] == msg.sender);\n        }\n\n        // clear approval\n        if (rootOwnerAndTokenIdToApprovedAddress[_from][_tokenId] != address(0)) {\n            delete rootOwnerAndTokenIdToApprovedAddress[_from][_tokenId];\n            emit Approval(_from, address(0), _tokenId);\n        }\n\n        // remove and transfer token\n        if (_from != _to) {\n            assert(tokenOwnerToTokenCount[_from] > 0);\n            tokenOwnerToTokenCount[_from]--;\n            tokenIdToTokenOwner[_tokenId] = _to;\n            tokenOwnerToTokenCount[_to]++;\n        }\n        emit Transfer(_from, _to, _tokenId);\n\n    }\n\n    function transferFrom(address _from, address _to, uint256 _tokenId) public {\n        _transferFrom(_from, _to, _tokenId);\n    }\n\n    function safeTransferFrom(address _from, address _to, uint256 _tokenId) public {\n        _transferFrom(_from, _to, _tokenId);\n        if (isContract(_to)) {\n            bytes4 retval = IERC721Receiver(_to).onERC721Received(msg.sender, _from, _tokenId, \"\");\n            require(retval == ERC721_RECEIVED_OLD);\n        }\n    }\n\n    function safeTransferFrom(address _from, address _to, uint256 _tokenId, bytes memory _data) public {\n        _transferFrom(_from, _to, _tokenId);\n        if (isContract(_to)) {\n            bytes4 retval = IERC721Receiver(_to).onERC721Received(msg.sender, _from, _tokenId, _data);\n            require(retval == ERC721_RECEIVED_OLD);\n        }\n    }\n\n    ////////////////////////////////////////////////////////\n    // ERC998ERC721 and ERC998ERC721Enumerable implementation\n    ////////////////////////////////////////////////////////\n\n    // tokenId => child contract\n    mapping(uint256 => address[]) private childContracts;\n\n    // tokenId => (child address => contract index+1)\n    mapping(uint256 => mapping(address => uint256)) private childContractIndex;\n\n    // tokenId => (child address => array of child tokens)\n    mapping(uint256 => mapping(address => uint256[])) private childTokens;\n\n    // tokenId => (child address => (child token => child index+1)\n    mapping(uint256 => mapping(address => mapping(uint256 => uint256))) private childTokenIndex;\n\n    // child address => childId => tokenId\n    mapping(address => mapping(uint256 => uint256)) internal childTokenOwner;\n\n\n    function removeChild(uint256 _tokenId, address _childContract, uint256 _childTokenId) private {\n        uint256 tokenIndex = childTokenIndex[_tokenId][_childContract][_childTokenId];\n        require(tokenIndex != 0, \"Child token not owned by token.\");\n\n        // remove child token\n        uint256 lastTokenIndex = childTokens[_tokenId][_childContract].length - 1;\n        uint256 lastToken = childTokens[_tokenId][_childContract][lastTokenIndex];\n        if (_childTokenId == lastToken) {\n            childTokens[_tokenId][_childContract][tokenIndex - 1] = lastToken;\n            childTokenIndex[_tokenId][_childContract][lastToken] = tokenIndex;\n        }\n        childTokens[_tokenId][_childContract].length--;\n        delete childTokenIndex[_tokenId][_childContract][_childTokenId];\n        delete childTokenOwner[_childContract][_childTokenId];\n\n        // remove contract\n        if (lastTokenIndex == 0) {\n            uint256 lastContractIndex = childContracts[_tokenId].length - 1;\n            address lastContract = childContracts[_tokenId][lastContractIndex];\n            if (_childContract != lastContract) {\n                uint256 contractIndex = childContractIndex[_tokenId][_childContract];\n                childContracts[_tokenId][contractIndex] = lastContract;\n                childContractIndex[_tokenId][lastContract] = contractIndex;\n            }\n            childContracts[_tokenId].length--;\n            delete childContractIndex[_tokenId][_childContract];\n        }\n    }\n\n    function safeTransferChild(uint256 _fromTokenId, address _to, address _childContract, uint256 _childTokenId) external {\n        uint256 tokenId = childTokenOwner[_childContract][_childTokenId];\n        require(tokenId > 0 || childTokenIndex[tokenId][_childContract][_childTokenId] > 0);\n        require(tokenId == _fromTokenId);\n        require(_to != address(0));\n        address rootOwner = address(uint256(rootOwnerOf(tokenId)));\n        require(rootOwner == msg.sender || tokenOwnerToOperators[rootOwner][msg.sender] ||\n        rootOwnerAndTokenIdToApprovedAddress[rootOwner][tokenId] == msg.sender);\n        removeChild(tokenId, _childContract, _childTokenId);\n        ERC721(_childContract).safeTransferFrom(address(this), _to, _childTokenId);\n        emit TransferChild(tokenId, _to, _childContract, _childTokenId);\n    }\n\n    function safeTransferChild(uint256 _fromTokenId, address _to, address _childContract, uint256 _childTokenId, bytes calldata _data) external {\n        uint256 tokenId = childTokenOwner[_childContract][_childTokenId];\n        require(tokenId > 0 || childTokenIndex[tokenId][_childContract][_childTokenId] > 0);\n        require(tokenId == _fromTokenId);\n        require(_to != address(0));\n        address rootOwner = address(uint256(rootOwnerOf(tokenId)));\n        require(rootOwner == msg.sender || tokenOwnerToOperators[rootOwner][msg.sender] ||\n        rootOwnerAndTokenIdToApprovedAddress[rootOwner][tokenId] == msg.sender);\n        removeChild(tokenId, _childContract, _childTokenId);\n        ERC721(_childContract).safeTransferFrom(address(this), _to, _childTokenId, _data);\n        emit TransferChild(tokenId, _to, _childContract, _childTokenId);\n    }\n\n    function transferChild(uint256 _fromTokenId, address _to, address _childContract, uint256 _childTokenId) external {\n        uint256 tokenId = childTokenOwner[_childContract][_childTokenId];\n        require(tokenId > 0 || childTokenIndex[tokenId][_childContract][_childTokenId] > 0);\n        require(tokenId == _fromTokenId);\n        require(_to != address(0));\n        address rootOwner = address(uint256(rootOwnerOf(tokenId)));\n        require(rootOwner == msg.sender || tokenOwnerToOperators[rootOwner][msg.sender] ||\n        rootOwnerAndTokenIdToApprovedAddress[rootOwner][tokenId] == msg.sender);\n        removeChild(tokenId, _childContract, _childTokenId);\n        //this is here to be compatible with cryptokitties and other old contracts that require being owner and approved\n        // before transferring.\n        //does not work with current standard which does not allow approving self, so we must let it fail in that case.\n        //0x095ea7b3 == \"approve(address,uint256)\"\n        bytes memory callData = abi.encodeWithSelector(0x095ea7b3, this, _childTokenId);\n        assembly {\n            let success := call(gas, _childContract, 0, add(callData, 0x20), mload(callData), callData, 0)\n        }\n        ERC721(_childContract).transferFrom(address(this), _to, _childTokenId);\n        /*emit TransferChild(tokenId, _to, _childContract, _childTokenId);*/\n    }\n\n    function transferChildToParent(uint256 _fromTokenId, address _toContract, uint256 _toTokenId, address _childContract, uint256 _childTokenId, bytes calldata _data) external {\n        uint256 tokenId = childTokenOwner[_childContract][_childTokenId];\n        require(tokenId > 0 || childTokenIndex[tokenId][_childContract][_childTokenId] > 0);\n        require(tokenId == _fromTokenId);\n        require(_toContract != address(0));\n        address rootOwner = address(uint256(rootOwnerOf(tokenId)));\n        require(rootOwner == msg.sender || tokenOwnerToOperators[rootOwner][msg.sender] ||\n        rootOwnerAndTokenIdToApprovedAddress[rootOwner][tokenId] == msg.sender);\n        removeChild(_fromTokenId, _childContract, _childTokenId);\n        ERC998ERC721BottomUp(_childContract).transferToParent(address(this), _toContract, _toTokenId, _childTokenId, _data);\n        emit TransferChild(_fromTokenId, _toContract, _childContract, _childTokenId);\n    }\n\n    // this contract has to be approved first in _childContract\n    function getChild(address _from, uint256 _tokenId, address _childContract, uint256 _childTokenId) external {\n        receiveChild(_from, _tokenId, _childContract, _childTokenId);\n        require(_from == msg.sender ||\n        ERC721(_childContract).isApprovedForAll(_from, msg.sender) ||\n        ERC721(_childContract).getApproved(_childTokenId) == msg.sender);\n        ERC721(_childContract).transferFrom(_from, address(this), _childTokenId);\n    }\n\n    function onERC721Received(address _from, uint256 _childTokenId, bytes calldata _data) external returns (bytes4) {\n        require(_data.length > 0, \"_data must contain the uint256 tokenId to transfer the child token to.\");\n        // convert up to 32 bytes of_data to uint256, owner nft tokenId passed as uint in bytes\n        uint256 tokenId;\n        assembly {tokenId := calldataload(132)}\n        if (_data.length < 32) {\n            tokenId = tokenId >> 256 - _data.length * 8;\n        }\n        receiveChild(_from, tokenId, msg.sender, _childTokenId);\n        require(ERC721(msg.sender).ownerOf(_childTokenId) != address(0), \"Child token not owned.\");\n        return ERC721_RECEIVED_OLD;\n    }\n\n    function onERC721Received(address /*_operator*/, address _from, uint256 _childTokenId, bytes calldata _data) external returns (bytes4) {\n        require(_data.length > 0, \"_data must contain the uint256 tokenId to transfer the child token to.\");\n        // convert up to 32 bytes of_data to uint256, owner nft tokenId passed as uint in bytes\n        uint256 tokenId;\n        assembly {tokenId := calldataload(164)}\n        if (_data.length < 32) {\n            tokenId = tokenId >> 256 - _data.length * 8;\n        }\n        receiveChild(_from, tokenId, msg.sender, _childTokenId);\n        require(ERC721(msg.sender).ownerOf(_childTokenId) != address(0), \"Child token not owned.\");\n        return ERC721_RECEIVED_NEW;\n    }\n\n    function receiveChild(address _from, uint256 _tokenId, address _childContract, uint256 _childTokenId) private {\n        require(tokenIdToTokenOwner[_tokenId] != address(0), \"_tokenId does not exist.\");\n        require(childTokenIndex[_tokenId][_childContract][_childTokenId] == 0, \"Cannot receive child token because it has already been received.\");\n        uint256 childTokensLength = childTokens[_tokenId][_childContract].length;\n        if (childTokensLength == 0) {\n            childContractIndex[_tokenId][_childContract] = childContracts[_tokenId].length;\n            childContracts[_tokenId].push(_childContract);\n        }\n        childTokens[_tokenId][_childContract].push(_childTokenId);\n        childTokenIndex[_tokenId][_childContract][_childTokenId] = childTokensLength + 1;\n        childTokenOwner[_childContract][_childTokenId] = _tokenId;\n        emit ReceivedChild(_from, _tokenId, _childContract, _childTokenId);\n    }\n\n    function _ownerOfChild(address _childContract, uint256 _childTokenId) internal view returns (address parentTokenOwner, uint256 parentTokenId) {\n        parentTokenId = childTokenOwner[_childContract][_childTokenId];\n        require(parentTokenId > 0 || childTokenIndex[parentTokenId][_childContract][_childTokenId] > 0);\n        return (tokenIdToTokenOwner[parentTokenId], parentTokenId);\n    }\n\n    function ownerOfChild(address _childContract, uint256 _childTokenId) external view returns (bytes32 parentTokenOwner, uint256 parentTokenId) {\n        parentTokenId = childTokenOwner[_childContract][_childTokenId];\n        require(parentTokenId > 0 || childTokenIndex[parentTokenId][_childContract][_childTokenId] > 0);\n        return (ERC998_MAGIC_VALUE << 224 | bytes32(uint256(tokenIdToTokenOwner[parentTokenId])), parentTokenId);\n    }\n\n    function childExists(address _childContract, uint256 _childTokenId) external view returns (bool) {\n        uint256 tokenId = childTokenOwner[_childContract][_childTokenId];\n        return childTokenIndex[tokenId][_childContract][_childTokenId] != 0;\n    }\n\n    function totalChildContracts(uint256 _tokenId) external view returns (uint256) {\n        return childContracts[_tokenId].length;\n    }\n\n    function childContractByIndex(uint256 _tokenId, uint256 _index) external view returns (address childContract) {\n        require(_index < childContracts[_tokenId].length, \"Contract address does not exist for this token and index.\");\n        return childContracts[_tokenId][_index];\n    }\n\n    function totalChildTokens(uint256 _tokenId, address _childContract) external view returns (uint256) {\n        return childTokens[_tokenId][_childContract].length;\n    }\n\n    function childTokenByIndex(uint256 _tokenId, address _childContract, uint256 _index) external view returns (uint256 childTokenId) {\n        require(_index < childTokens[_tokenId][_childContract].length, \"Token does not own a child token at contract address and index.\");\n        return childTokens[_tokenId][_childContract][_index];\n    }\n\n    //------------------------------------------------------------\n    // ERC721 Metadata interface\n\n    function name() external pure returns (string memory) {\n        return \"Tokens Equal Text ERC-998\";\n    }\n\n    function symbol() external pure returns (string memory) {\n        return \"TET998\";\n    }\n\n    string private tokenURIBase = \"https://robmyers.org/tokens-equal-text/\";\n\n    function updateTokenURIBase(string calldata _newBase) onlyOwner external {\n        tokenURIBase = _newBase;\n    }\n\n    function tokenURI(uint256 _tokenId) external view returns (string memory) {\n        return Strings.strConcat(\n            tokenURIBase,\n            Strings.uint2str(_tokenId)\n        );\n    }\n\n    //------------------------------------------------------------\n\n    // wrapper on minting new 721\n    // NO MINTING outside of initial batch minting\n    function _mint(address _to) private returns (uint256) {\n        tokenCount++;\n        uint256 tokenCount_ = tokenCount;\n        tokenIdToTokenOwner[tokenCount_] = _to;\n        tokenOwnerToTokenCount[_to]++;\n        return tokenCount_;\n    }\n\n    function mintBatch(uint256 _count) onlyOwner public {\n        for(uint256 i = 0; i < _count; i++) {\n            // msg.sender will be owner, saving a call to owner()\n            _mint(msg.sender);\n        }\n    }\n\n}\n",
  "sourcePath": "/home/rob/projects/tokens-equal-text/contracts/TokensEqualTextERC998.sol",
  "compiler": {
    "name": "solc",
    "version": "0.5.0+commit.1d4f565a.Emscripten.clang"
  },
  "schemaVersion": "3.0.0",
  "updatedAt": "2019-01-11T02:51:19.667Z",
  "devdoc": {
    "methods": {
      "isOwner()": {
        "return": "true if `msg.sender` is the owner of the contract."
      },
      "owner()": {
        "return": "the address of the owner."
      },
      "renounceOwnership()": {
        "details": "Allows the current owner to relinquish control of the contract."
      },
      "supportsInterface(bytes4)": {
        "details": "implement supportsInterface(bytes4) using a lookup table"
      },
      "transferOwnership(address)": {
        "details": "Allows the current owner to transfer control of the contract to a newOwner.",
        "params": {
          "newOwner": "The address to transfer ownership to."
        }
      }
    }
  },
  "userdoc": {
    "methods": {
      "renounceOwnership()": {
        "notice": "Renouncing to ownership will leave the contract without an owner. It will not be possible to call the functions with the `onlyOwner` modifier anymore."
      }
    }
  }
}