{
  "contractName": "TypeOppositeImages",
  "abi": [
    {
      "inputs": [
        {
          "internalType": "address",
          "name": "tet998Addr",
          "type": "address"
        }
      ],
      "stateMutability": "nonpayable",
      "type": "constructor"
    },
    {
      "anonymous": false,
      "inputs": [
        {
          "indexed": true,
          "internalType": "address",
          "name": "owner",
          "type": "address"
        },
        {
          "indexed": true,
          "internalType": "address",
          "name": "approved",
          "type": "address"
        },
        {
          "indexed": true,
          "internalType": "uint256",
          "name": "tokenId",
          "type": "uint256"
        }
      ],
      "name": "Approval",
      "type": "event"
    },
    {
      "anonymous": false,
      "inputs": [
        {
          "indexed": true,
          "internalType": "address",
          "name": "owner",
          "type": "address"
        },
        {
          "indexed": true,
          "internalType": "address",
          "name": "operator",
          "type": "address"
        },
        {
          "indexed": false,
          "internalType": "bool",
          "name": "approved",
          "type": "bool"
        }
      ],
      "name": "ApprovalForAll",
      "type": "event"
    },
    {
      "anonymous": false,
      "inputs": [
        {
          "indexed": true,
          "internalType": "address",
          "name": "previousOwner",
          "type": "address"
        },
        {
          "indexed": true,
          "internalType": "address",
          "name": "newOwner",
          "type": "address"
        }
      ],
      "name": "OwnershipTransferred",
      "type": "event"
    },
    {
      "anonymous": false,
      "inputs": [
        {
          "indexed": false,
          "internalType": "address",
          "name": "account",
          "type": "address"
        }
      ],
      "name": "Paused",
      "type": "event"
    },
    {
      "anonymous": false,
      "inputs": [
        {
          "indexed": true,
          "internalType": "address",
          "name": "from",
          "type": "address"
        },
        {
          "indexed": true,
          "internalType": "address",
          "name": "to",
          "type": "address"
        },
        {
          "indexed": true,
          "internalType": "uint256",
          "name": "tokenId",
          "type": "uint256"
        }
      ],
      "name": "Transfer",
      "type": "event"
    },
    {
      "anonymous": false,
      "inputs": [
        {
          "indexed": false,
          "internalType": "address",
          "name": "account",
          "type": "address"
        }
      ],
      "name": "Unpaused",
      "type": "event"
    },
    {
      "inputs": [],
      "name": "NUM_TOKENS",
      "outputs": [
        {
          "internalType": "uint256",
          "name": "",
          "type": "uint256"
        }
      ],
      "stateMutability": "view",
      "type": "function"
    },
    {
      "inputs": [
        {
          "internalType": "address",
          "name": "to",
          "type": "address"
        },
        {
          "internalType": "uint256",
          "name": "tokenId",
          "type": "uint256"
        }
      ],
      "name": "approve",
      "outputs": [],
      "stateMutability": "nonpayable",
      "type": "function"
    },
    {
      "inputs": [
        {
          "internalType": "address",
          "name": "owner",
          "type": "address"
        }
      ],
      "name": "balanceOf",
      "outputs": [
        {
          "internalType": "uint256",
          "name": "",
          "type": "uint256"
        }
      ],
      "stateMutability": "view",
      "type": "function"
    },
    {
      "inputs": [
        {
          "internalType": "uint256",
          "name": "",
          "type": "uint256"
        }
      ],
      "name": "citehtsea",
      "outputs": [
        {
          "internalType": "bytes32",
          "name": "",
          "type": "bytes32"
        }
      ],
      "stateMutability": "view",
      "type": "function"
    },
    {
      "inputs": [
        {
          "internalType": "uint256",
          "name": "tokenId",
          "type": "uint256"
        }
      ],
      "name": "getApproved",
      "outputs": [
        {
          "internalType": "address",
          "name": "",
          "type": "address"
        }
      ],
      "stateMutability": "view",
      "type": "function"
    },
    {
      "inputs": [
        {
          "internalType": "address",
          "name": "owner",
          "type": "address"
        },
        {
          "internalType": "address",
          "name": "operator",
          "type": "address"
        }
      ],
      "name": "isApprovedForAll",
      "outputs": [
        {
          "internalType": "bool",
          "name": "",
          "type": "bool"
        }
      ],
      "stateMutability": "view",
      "type": "function"
    },
    {
      "inputs": [],
      "name": "name",
      "outputs": [
        {
          "internalType": "string",
          "name": "",
          "type": "string"
        }
      ],
      "stateMutability": "view",
      "type": "function"
    },
    {
      "inputs": [],
      "name": "owner",
      "outputs": [
        {
          "internalType": "address",
          "name": "",
          "type": "address"
        }
      ],
      "stateMutability": "view",
      "type": "function"
    },
    {
      "inputs": [
        {
          "internalType": "uint256",
          "name": "tokenId",
          "type": "uint256"
        }
      ],
      "name": "ownerOf",
      "outputs": [
        {
          "internalType": "address",
          "name": "",
          "type": "address"
        }
      ],
      "stateMutability": "view",
      "type": "function"
    },
    {
      "inputs": [],
      "name": "paused",
      "outputs": [
        {
          "internalType": "bool",
          "name": "",
          "type": "bool"
        }
      ],
      "stateMutability": "view",
      "type": "function"
    },
    {
      "inputs": [],
      "name": "renounceOwnership",
      "outputs": [],
      "stateMutability": "nonpayable",
      "type": "function"
    },
    {
      "inputs": [
        {
          "internalType": "address",
          "name": "from",
          "type": "address"
        },
        {
          "internalType": "address",
          "name": "to",
          "type": "address"
        },
        {
          "internalType": "uint256",
          "name": "tokenId",
          "type": "uint256"
        }
      ],
      "name": "safeTransferFrom",
      "outputs": [],
      "stateMutability": "nonpayable",
      "type": "function"
    },
    {
      "inputs": [
        {
          "internalType": "address",
          "name": "from",
          "type": "address"
        },
        {
          "internalType": "address",
          "name": "to",
          "type": "address"
        },
        {
          "internalType": "uint256",
          "name": "tokenId",
          "type": "uint256"
        },
        {
          "internalType": "bytes",
          "name": "data",
          "type": "bytes"
        }
      ],
      "name": "safeTransferFrom",
      "outputs": [],
      "stateMutability": "nonpayable",
      "type": "function"
    },
    {
      "inputs": [
        {
          "internalType": "address",
          "name": "operator",
          "type": "address"
        },
        {
          "internalType": "bool",
          "name": "approved",
          "type": "bool"
        }
      ],
      "name": "setApprovalForAll",
      "outputs": [],
      "stateMutability": "nonpayable",
      "type": "function"
    },
    {
      "inputs": [],
      "name": "symbol",
      "outputs": [
        {
          "internalType": "string",
          "name": "",
          "type": "string"
        }
      ],
      "stateMutability": "view",
      "type": "function"
    },
    {
      "inputs": [
        {
          "internalType": "uint256",
          "name": "index",
          "type": "uint256"
        }
      ],
      "name": "tokenByIndex",
      "outputs": [
        {
          "internalType": "uint256",
          "name": "",
          "type": "uint256"
        }
      ],
      "stateMutability": "view",
      "type": "function"
    },
    {
      "inputs": [
        {
          "internalType": "address",
          "name": "owner",
          "type": "address"
        },
        {
          "internalType": "uint256",
          "name": "index",
          "type": "uint256"
        }
      ],
      "name": "tokenOfOwnerByIndex",
      "outputs": [
        {
          "internalType": "uint256",
          "name": "",
          "type": "uint256"
        }
      ],
      "stateMutability": "view",
      "type": "function"
    },
    {
      "inputs": [
        {
          "internalType": "uint256",
          "name": "tokenId",
          "type": "uint256"
        }
      ],
      "name": "tokenURI",
      "outputs": [
        {
          "internalType": "string",
          "name": "",
          "type": "string"
        }
      ],
      "stateMutability": "view",
      "type": "function"
    },
    {
      "inputs": [],
      "name": "totalSupply",
      "outputs": [
        {
          "internalType": "uint256",
          "name": "",
          "type": "uint256"
        }
      ],
      "stateMutability": "view",
      "type": "function"
    },
    {
      "inputs": [
        {
          "internalType": "address",
          "name": "from",
          "type": "address"
        },
        {
          "internalType": "address",
          "name": "to",
          "type": "address"
        },
        {
          "internalType": "uint256",
          "name": "tokenId",
          "type": "uint256"
        }
      ],
      "name": "transferFrom",
      "outputs": [],
      "stateMutability": "nonpayable",
      "type": "function"
    },
    {
      "inputs": [
        {
          "internalType": "address",
          "name": "newOwner",
          "type": "address"
        }
      ],
      "name": "transferOwnership",
      "outputs": [],
      "stateMutability": "nonpayable",
      "type": "function"
    },
    {
      "inputs": [
        {
          "internalType": "uint256[]",
          "name": "ids",
          "type": "uint256[]"
        },
        {
          "internalType": "bytes32[]",
          "name": "vals",
          "type": "bytes32[]"
        }
      ],
      "name": "addCitehtsea",
      "outputs": [],
      "stateMutability": "nonpayable",
      "type": "function"
    },
    {
      "inputs": [
        {
          "internalType": "uint256[]",
          "name": "texts",
          "type": "uint256[]"
        }
      ],
      "name": "reverse",
      "outputs": [
        {
          "internalType": "bytes32[]",
          "name": "",
          "type": "bytes32[]"
        }
      ],
      "stateMutability": "view",
      "type": "function"
    },
    {
      "inputs": [
        {
          "internalType": "uint256",
          "name": "tokenId",
          "type": "uint256"
        }
      ],
      "name": "tet998TokenChildCount",
      "outputs": [
        {
          "internalType": "uint256",
          "name": "",
          "type": "uint256"
        }
      ],
      "stateMutability": "view",
      "type": "function"
    },
    {
      "inputs": [
        {
          "internalType": "uint256",
          "name": "tokenId",
          "type": "uint256"
        }
      ],
      "name": "tet998TokenChildIds",
      "outputs": [
        {
          "internalType": "uint256[]",
          "name": "childIds",
          "type": "uint256[]"
        }
      ],
      "stateMutability": "view",
      "type": "function"
    },
    {
      "inputs": [
        {
          "internalType": "uint256",
          "name": "tokenId",
          "type": "uint256"
        }
      ],
      "name": "aestheticToCitehtsea",
      "outputs": [
        {
          "internalType": "bytes32[]",
          "name": "reversals",
          "type": "bytes32[]"
        }
      ],
      "stateMutability": "view",
      "type": "function"
    },
    {
      "inputs": [
        {
          "internalType": "address",
          "name": "tet998Addr",
          "type": "address"
        }
      ],
      "name": "setTet998Addr",
      "outputs": [],
      "stateMutability": "nonpayable",
      "type": "function"
    },
    {
      "inputs": [],
      "name": "pause",
      "outputs": [],
      "stateMutability": "nonpayable",
      "type": "function"
    },
    {
      "inputs": [],
      "name": "unpause",
      "outputs": [],
      "stateMutability": "nonpayable",
      "type": "function"
    },
    {
      "inputs": [
        {
          "internalType": "string",
          "name": "newUri",
          "type": "string"
        }
      ],
      "name": "setBaseUri",
      "outputs": [],
      "stateMutability": "nonpayable",
      "type": "function"
    },
    {
      "inputs": [
        {
          "internalType": "bytes4",
          "name": "interfaceId",
          "type": "bytes4"
        }
      ],
      "name": "supportsInterface",
      "outputs": [
        {
          "internalType": "bool",
          "name": "",
          "type": "bool"
        }
      ],
      "stateMutability": "view",
      "type": "function"
    }
  ],
  "bytecode": "0x60e060405260366080818152906200312960a039600c9062000022908262000877565b503480156200003057600080fd5b506040516200315f3803806200315f833981016040819052620000539162000943565b6040518060400160405280601481526020017f54797065204f70706f7369746520496d6167657300000000000000000000000081525060405180604001604052806003815260200162544f4960e81b8152508160009081620000b6919062000877565b506001620000c5828262000877565b5050600a805460ff1916905550620000dd336200012d565b600b80546001600160a01b0319166001600160a01b03831617905560015b60208111620001255762000110338262000187565b806200011c816200098b565b915050620000fb565b505062000a05565b600a80546001600160a01b03838116610100818102610100600160a81b031985161790945560405193909204169182907f8be0079c531659141344cd1fd0a4f28419497f9722a3daafe3b4186f6b6457e090600090a35050565b6001600160a01b038216620001e35760405162461bcd60e51b815260206004820181905260248201527f4552433732313a206d696e7420746f20746865207a65726f206164647265737360448201526064015b60405180910390fd5b6000818152600260205260409020546001600160a01b0316156200024a5760405162461bcd60e51b815260206004820152601c60248201527f4552433732313a20746f6b656e20616c7265616479206d696e746564000000006044820152606401620001da565b6200025a6000838360016200032c565b6000818152600260205260409020546001600160a01b031615620002c15760405162461bcd60e51b815260206004820152601c60248201527f4552433732313a20746f6b656e20616c7265616479206d696e746564000000006044820152606401620001da565b6001600160a01b038216600081815260036020908152604080832080546001019055848352600290915280822080546001600160a01b0319168417905551839291907fddf252ad1be2c89b69c2b068fc378daa952ba7f163c4a11628f55a4df523b3ef908290a45050565b6200033662000355565b6200034f848484846200039f60201b620012b41760201c565b50505050565b600a5460ff16156200039d5760405162461bcd60e51b815260206004820152601060248201526f14185d5cd8589b194e881c185d5cd95960821b6044820152606401620001da565b565b620003b8848484846200050360201b620013ed1760201c565b6001811115620004315760405162461bcd60e51b815260206004820152603560248201527f455243373231456e756d657261626c653a20636f6e736563757469766520747260448201527f616e7366657273206e6f7420737570706f7274656400000000000000000000006064820152608401620001da565b816001600160a01b03851662000490576200048a81600880546000838152600960205260408120829055600182018355919091527ff3f7a9fe364faab93b216da50a3214154f22a0a2b415b23a84c8169e8b636ee30155565b620004b6565b836001600160a01b0316856001600160a01b031614620004b657620004b6858262000592565b6001600160a01b038416620004d657620004d0816200063f565b620004fc565b846001600160a01b0316846001600160a01b031614620004fc57620004fc8482620006f9565b5050505050565b60018111156200034f576001600160a01b038416156200054d576001600160a01b0384166000908152600360205260408120805483929062000547908490620009a7565b90915550505b6001600160a01b038316156200034f576001600160a01b0383166000908152600360205260408120805483929062000587908490620009c3565b909155505050505050565b60006001620005ac846200074a60201b62000eb51760201c565b620005b89190620009a7565b6000838152600760205260409020549091508082146200060c576001600160a01b03841660009081526006602090815260408083208584528252808320548484528184208190558352600790915290208190555b5060009182526007602090815260408084208490556001600160a01b039094168352600681528383209183525290812055565b6008546000906200065390600190620009a7565b600083815260096020526040812054600880549394509092849081106200067e576200067e620009d9565b906000526020600020015490508060088381548110620006a257620006a2620009d9565b6000918252602080832090910192909255828152600990915260408082208490558582528120556008805480620006dd57620006dd620009ef565b6001900381819060005260206000200160009055905550505050565b600062000711836200074a60201b62000eb51760201c565b6001600160a01b039093166000908152600660209081526040808320868452825280832085905593825260079052919091209190915550565b60006001600160a01b038216620007b65760405162461bcd60e51b815260206004820152602960248201527f4552433732313a2061646472657373207a65726f206973206e6f7420612076616044820152683634b21037bbb732b960b91b6064820152608401620001da565b506001600160a01b031660009081526003602052604090205490565b634e487b7160e01b600052604160045260246000fd5b600181811c90821680620007fd57607f821691505b6020821081036200081e57634e487b7160e01b600052602260045260246000fd5b50919050565b601f8211156200087257600081815260208120601f850160051c810160208610156200084d5750805b601f850160051c820191505b818110156200086e5782815560010162000859565b5050505b505050565b81516001600160401b03811115620008935762000893620007d2565b620008ab81620008a48454620007e8565b8462000824565b602080601f831160018114620008e35760008415620008ca5750858301515b600019600386901b1c1916600185901b1785556200086e565b600085815260208120601f198616915b828110156200091457888601518255948401946001909101908401620008f3565b5085821015620009335787850151600019600388901b60f8161c191681555b5050505050600190811b01905550565b6000602082840312156200095657600080fd5b81516001600160a01b03811681146200096e57600080fd5b9392505050565b634e487b7160e01b600052601160045260246000fd5b600060018201620009a057620009a062000975565b5060010190565b81810381811115620009bd57620009bd62000975565b92915050565b80820180821115620009bd57620009bd62000975565b634e487b7160e01b600052603260045260246000fd5b634e487b7160e01b600052603160045260246000fd5b6127148062000a156000396000f3fe608060405234801561001057600080fd5b50600436106101e55760003560e01c80636352211e1161010f578063a0bcfc7f116100a2578063c87b56dd11610071578063c87b56dd146103f9578063e7b35cd51461040c578063e985e9c51461041f578063f2fde38b1461045b57600080fd5b8063a0bcfc7f146103ad578063a22cb465146103c0578063a9333cfc146103d3578063b88d4fde146103e657600080fd5b806377d06ad3116100de57806377d06ad3146103745780638456cb59146103875780638da5cb5b1461038f57806395d89b41146103a557600080fd5b80636352211e146103335780636a27855f1461034657806370a0823114610359578063715018a61461036c57600080fd5b806323b872dd1161018757806342842e0e1161015657806342842e0e146102e25780634f6ccce7146102f55780635c975abb146103085780635cf6f0da1461031357600080fd5b806323b872dd146102ac5780632f745c59146102bf5780633f4ba83a146102d25780634149db48146102da57600080fd5b8063095ea7b3116101c3578063095ea7b3146102525780630ef766521461026757806318160ddd1461028757806318ebfc6d1461029957600080fd5b806301ffc9a7146101ea57806306fdde0314610212578063081812fc14610227575b600080fd5b6101fd6101f8366004611eb5565b61046e565b60405190151581526020015b60405180910390f35b61021a61047f565b6040516102099190611f22565b61023a610235366004611f35565b610511565b6040516001600160a01b039091168152602001610209565b610265610260366004611f63565b610538565b005b61027a610275366004611f35565b610652565b6040516102099190611f8f565b6008545b604051908152602001610209565b61027a6102a7366004611f35565b61099b565b6102656102ba366004611fd3565b610a5f565b61028b6102cd366004611f63565b610a90565b610265610b26565b61028b602081565b6102656102f0366004611fd3565b610b38565b61028b610303366004611f35565b610b53565b600a5460ff166101fd565b61028b610321366004611f35565b600d6020526000908152604090205481565b61023a610341366004611f35565b610be6565b61028b610354366004611f35565b610c46565b61028b610367366004612014565b610eb5565b610265610f3b565b610265610382366004612014565b610f4d565b610265610fdc565b600a5461010090046001600160a01b031661023a565b61021a610fec565b6102656103bb366004612031565b610ffb565b6102656103ce3660046120a3565b611010565b61027a6103e1366004612128565b61101f565b6102656103f43660046121ce565b6110d8565b61021a610407366004611f35565b611110565b61026561041a3660046122de565b611177565b6101fd61042d36600461234a565b6001600160a01b03918216600090815260056020908152604080832093909416825291909152205460ff1690565b610265610469366004612014565b61123b565b600061047982611475565b92915050565b60606000805461048e90612378565b80601f01602080910402602001604051908101604052809291908181526020018280546104ba90612378565b80156105075780601f106104dc57610100808354040283529160200191610507565b820191906000526020600020905b8154815290600101906020018083116104ea57829003601f168201915b5050505050905090565b600061051c8261149a565b506000908152600460205260409020546001600160a01b031690565b600061054382610be6565b9050806001600160a01b0316836001600160a01b0316036105b55760405162461bcd60e51b815260206004820152602160248201527f4552433732313a20617070726f76616c20746f2063757272656e74206f776e656044820152603960f91b60648201526084015b60405180910390fd5b336001600160a01b03821614806105d157506105d1813361042d565b6106435760405162461bcd60e51b815260206004820152603d60248201527f4552433732313a20617070726f76652063616c6c6572206973206e6f7420746f60448201527f6b656e206f776e6572206f7220617070726f76656420666f7220616c6c00000060648201526084016105ac565b61064d83836114f9565b505050565b6060600061065f83610c46565b90508067ffffffffffffffff81111561067a5761067a6120e1565b6040519080825280602002602001820160405280156106a3578160200160208202803683370190505b509150801561099557600b54604051638da7d0b560e01b8152600481018590526001600160a01b039091169060009081908390638da7d0b590602401602060405180830381865afa1580156106fc573d6000803e3d6000fd5b505050506040513d601f19601f8201168201806040525081019061072091906123ac565b905060005b818110156108ee57604051630d5a621b60e01b815260048101889052602481018290526000906001600160a01b03861690630d5a621b90604401602060405180830381865afa15801561077c573d6000803e3d6000fd5b505050506040513d601f19601f820116820180604052508101906107a091906123c5565b6040516335b21ceb60e01b8152600481018a90526001600160a01b0380831660248301529192506000918716906335b21ceb90604401602060405180830381865afa1580156107f3573d6000803e3d6000fd5b505050506040513d601f19601f8201168201806040525081019061081791906123ac565b905060005b818110156108d85760405163160b01a160e01b8152600481018b90526001600160a01b0384811660248301526044820183905288169063160b01a190606401602060405180830381865afa158015610878573d6000803e3d6000fd5b505050506040513d601f19601f8201168201806040525081019061089c91906123ac565b8987815181106108ae576108ae6123e2565b60209081029190910101526108c460018761240e565b9550806108d081612421565b91505061081c565b50505080806108e690612421565b915050610725565b5060008467ffffffffffffffff81111561090a5761090a6120e1565b604051908082528060200260200182016040528015610933578160200160208202803683370190505b50905060005b8581101561098a57868181518110610953576109536123e2565b602002602001015182828151811061096d5761096d6123e2565b60209081029190910101528061098281612421565b915050610939565b509695505050505050565b50919050565b606060006109a883610652565b9050805167ffffffffffffffff8111156109c4576109c46120e1565b6040519080825280602002602001820160405280156109ed578160200160208202803683370190505b50915060005b8151811015610a5857600d6000838381518110610a1257610a126123e2565b6020026020010151815260200190815260200160002054838281518110610a3b57610a3b6123e2565b602090810291909101015280610a5081612421565b9150506109f3565b5050919050565b610a693382611567565b610a855760405162461bcd60e51b81526004016105ac9061243a565b61064d8383836115e6565b6000610a9b83610eb5565b8210610afd5760405162461bcd60e51b815260206004820152602b60248201527f455243373231456e756d657261626c653a206f776e657220696e646578206f7560448201526a74206f6620626f756e647360a81b60648201526084016105ac565b506001600160a01b03919091166000908152600660209081526040808320938352929052205490565b610b2e611757565b610b366117b7565b565b61064d838383604051806020016040528060008152506110d8565b6000610b5e60085490565b8210610bc15760405162461bcd60e51b815260206004820152602c60248201527f455243373231456e756d657261626c653a20676c6f62616c20696e646578206f60448201526b7574206f6620626f756e647360a01b60648201526084016105ac565b60088281548110610bd457610bd46123e2565b90600052602060002001549050919050565b6000818152600260205260408120546001600160a01b0316806104795760405162461bcd60e51b8152602060048201526018602482015277115490cdcc8c4e881a5b9d985b1a59081d1bdad95b88125160421b60448201526064016105ac565b600b546040516331a9108f60e11b81526004810183905260009182916001600160a01b0390911690636352211e90602401602060405180830381865afa158015610c94573d6000803e3d6000fd5b505050506040513d601f19601f82011682018060405250810190610cb891906123c5565b6001600160a01b031603610cfe5760405162461bcd60e51b815260206004820152600d60248201526c27379039bab1b4103a37b5b2b760991b60448201526064016105ac565b600b54604051638da7d0b560e01b8152600481018490526001600160a01b039091169060009081908390638da7d0b590602401602060405180830381865afa158015610d4e573d6000803e3d6000fd5b505050506040513d601f19601f82011682018060405250810190610d7291906123ac565b905060005b81811015610eab57604051630d5a621b60e01b815260048101879052602481018290526000906001600160a01b03861690630d5a621b90604401602060405180830381865afa158015610dce573d6000803e3d6000fd5b505050506040513d601f19601f82011682018060405250810190610df291906123c5565b6040516335b21ceb60e01b8152600481018990526001600160a01b0380831660248301529192506000918716906335b21ceb90604401602060405180830381865afa158015610e45573d6000803e3d6000fd5b505050506040513d601f19601f82011682018060405250810190610e6991906123ac565b905060005b81811015610e9557610e8160018761240e565b955080610e8d81612421565b915050610e6e565b5050508080610ea390612421565b915050610d77565b5090949350505050565b60006001600160a01b038216610f1f5760405162461bcd60e51b815260206004820152602960248201527f4552433732313a2061646472657373207a65726f206973206e6f7420612076616044820152683634b21037bbb732b960b91b60648201526084016105ac565b506001600160a01b031660009081526003602052604090205490565b610f43611757565b610b366000611809565b610f55611757565b6001600160a01b038116610fba5760405162461bcd60e51b815260206004820152602660248201527f43616e6e6f742061737369676e20746f203078302c20757365206275726e206160448201526564647265737360d01b60648201526084016105ac565b600b80546001600160a01b0319166001600160a01b0392909216919091179055565b610fe4611757565b610b36611863565b60606001805461048e90612378565b611003611757565b600c61064d8284836124d5565b61101b3383836118a0565b5050565b60606000825167ffffffffffffffff81111561103d5761103d6120e1565b604051908082528060200260200182016040528015611066578160200160208202803683370190505b50905060005b83518110156110d157600d600085838151811061108b5761108b6123e2565b60200260200101518152602001908152602001600020548282815181106110b4576110b46123e2565b6020908102919091010152806110c981612421565b91505061106c565b5092915050565b6110e23383611567565b6110fe5760405162461bcd60e51b81526004016105ac9061243a565b61110a8484848461196e565b50505050565b606061111b8261149a565b60006111256119a1565b905060008151116111455760405180602001604052806000815250611170565b8061114f846119b0565b604051602001611160929190612595565b6040516020818303038152906040525b9392505050565b61117f611757565b8281146111ce5760405162461bcd60e51b815260206004820152601e60248201527f417267756d656e7473206d7573742062652073616d65206c656e6774682e000060448201526064016105ac565b60005b83811015611234578282828181106111eb576111eb6123e2565b90506020020135600d6000878785818110611208576112086123e2565b90506020020135815260200190815260200160002081905550808061122c90612421565b9150506111d1565b5050505050565b611243611757565b6001600160a01b0381166112a85760405162461bcd60e51b815260206004820152602660248201527f4f776e61626c653a206e6577206f776e657220697320746865207a65726f206160448201526564647265737360d01b60648201526084016105ac565b6112b181611809565b50565b6112c0848484846113ed565b600181111561132f5760405162461bcd60e51b815260206004820152603560248201527f455243373231456e756d657261626c653a20636f6e7365637574697665207472604482015274185b9cd9995c9cc81b9bdd081cdd5c1c1bdc9d1959605a1b60648201526084016105ac565b816001600160a01b03851661138b5761138681600880546000838152600960205260408120829055600182018355919091527ff3f7a9fe364faab93b216da50a3214154f22a0a2b415b23a84c8169e8b636ee30155565b6113ae565b836001600160a01b0316856001600160a01b0316146113ae576113ae8582611a43565b6001600160a01b0384166113ca576113c581611ae0565b611234565b846001600160a01b0316846001600160a01b031614611234576112348482611b8f565b600181111561110a576001600160a01b03841615611433576001600160a01b0384166000908152600360205260408120805483929061142d9084906125c4565b90915550505b6001600160a01b0383161561110a576001600160a01b0383166000908152600360205260408120805483929061146a90849061240e565b909155505050505050565b60006001600160e01b0319821663780e9d6360e01b1480610479575061047982611bd3565b6000818152600260205260409020546001600160a01b03166112b15760405162461bcd60e51b8152602060048201526018602482015277115490cdcc8c4e881a5b9d985b1a59081d1bdad95b88125160421b60448201526064016105ac565b600081815260046020526040902080546001600160a01b0319166001600160a01b038416908117909155819061152e82610be6565b6001600160a01b03167f8c5be1e5ebec7d5bd14f71427d1e84f3dd0314c0f7b2291e5b200ac8c7c3b92560405160405180910390a45050565b60008061157383610be6565b9050806001600160a01b0316846001600160a01b031614806115ba57506001600160a01b0380821660009081526005602090815260408083209388168352929052205460ff165b806115de5750836001600160a01b03166115d384610511565b6001600160a01b0316145b949350505050565b826001600160a01b03166115f982610be6565b6001600160a01b03161461161f5760405162461bcd60e51b81526004016105ac906125d7565b6001600160a01b0382166116815760405162461bcd60e51b8152602060048201526024808201527f4552433732313a207472616e7366657220746f20746865207a65726f206164646044820152637265737360e01b60648201526084016105ac565b61168e8383836001611c23565b826001600160a01b03166116a182610be6565b6001600160a01b0316146116c75760405162461bcd60e51b81526004016105ac906125d7565b600081815260046020908152604080832080546001600160a01b03199081169091556001600160a01b0387811680865260038552838620805460001901905590871680865283862080546001019055868652600290945282852080549092168417909155905184937fddf252ad1be2c89b69c2b068fc378daa952ba7f163c4a11628f55a4df523b3ef91a4505050565b600a546001600160a01b03610100909104163314610b365760405162461bcd60e51b815260206004820181905260248201527f4f776e61626c653a2063616c6c6572206973206e6f7420746865206f776e657260448201526064016105ac565b6117bf611c37565b600a805460ff191690557f5db9ee0a495bf2e6ff9c91a7834c1ba4fdd244a5e8aa4e537bd38aeae4b073aa335b6040516001600160a01b03909116815260200160405180910390a1565b600a80546001600160a01b03838116610100818102610100600160a81b031985161790945560405193909204169182907f8be0079c531659141344cd1fd0a4f28419497f9722a3daafe3b4186f6b6457e090600090a35050565b61186b611c80565b600a805460ff191660011790557f62e78cea01bee320cd4e420270b5ea74000d11b0c9f74754ebdbfc544b05a2586117ec3390565b816001600160a01b0316836001600160a01b0316036119015760405162461bcd60e51b815260206004820152601960248201527f4552433732313a20617070726f766520746f2063616c6c65720000000000000060448201526064016105ac565b6001600160a01b03838116600081815260056020908152604080832094871680845294825291829020805460ff191686151590811790915591519182527f17307eab39ab6107e8899845ad3d59bd9653f200f220920489ca2b5937696c31910160405180910390a3505050565b6119798484846115e6565b61198584848484611cc6565b61110a5760405162461bcd60e51b81526004016105ac9061261c565b6060600c805461048e90612378565b606060006119bd83611dc7565b600101905060008167ffffffffffffffff8111156119dd576119dd6120e1565b6040519080825280601f01601f191660200182016040528015611a07576020820181803683370190505b5090508181016020015b600019016f181899199a1a9b1b9c1cb0b131b232b360811b600a86061a8153600a8504945084611a1157509392505050565b60006001611a5084610eb5565b611a5a91906125c4565b600083815260076020526040902054909150808214611aad576001600160a01b03841660009081526006602090815260408083208584528252808320548484528184208190558352600790915290208190555b5060009182526007602090815260408084208490556001600160a01b039094168352600681528383209183525290812055565b600854600090611af2906001906125c4565b60008381526009602052604081205460088054939450909284908110611b1a57611b1a6123e2565b906000526020600020015490508060088381548110611b3b57611b3b6123e2565b6000918252602080832090910192909255828152600990915260408082208490558582528120556008805480611b7357611b7361266e565b6001900381819060005260206000200160009055905550505050565b6000611b9a83610eb5565b6001600160a01b039093166000908152600660209081526040808320868452825280832085905593825260079052919091209190915550565b60006001600160e01b031982166380ac58cd60e01b1480611c0457506001600160e01b03198216635b5e139f60e01b145b8061047957506301ffc9a760e01b6001600160e01b0319831614610479565b611c2b611c80565b61110a848484846112b4565b600a5460ff16610b365760405162461bcd60e51b815260206004820152601460248201527314185d5cd8589b194e881b9bdd081c185d5cd95960621b60448201526064016105ac565b600a5460ff1615610b365760405162461bcd60e51b815260206004820152601060248201526f14185d5cd8589b194e881c185d5cd95960821b60448201526064016105ac565b60006001600160a01b0384163b15611dbc57604051630a85bd0160e11b81526001600160a01b0385169063150b7a0290611d0a903390899088908890600401612684565b6020604051808303816000875af1925050508015611d45575060408051601f3d908101601f19168201909252611d42918101906126c1565b60015b611da2573d808015611d73576040519150601f19603f3d011682016040523d82523d6000602084013e611d78565b606091505b508051600003611d9a5760405162461bcd60e51b81526004016105ac9061261c565b805181602001fd5b6001600160e01b031916630a85bd0160e11b1490506115de565b506001949350505050565b60008072184f03e93ff9f4daa797ed6e38ed64bf6a1f0160401b8310611e065772184f03e93ff9f4daa797ed6e38ed64bf6a1f0160401b830492506040015b6d04ee2d6d415b85acef81000000008310611e32576d04ee2d6d415b85acef8100000000830492506020015b662386f26fc100008310611e5057662386f26fc10000830492506010015b6305f5e1008310611e68576305f5e100830492506008015b6127108310611e7c57612710830492506004015b60648310611e8e576064830492506002015b600a83106104795760010192915050565b6001600160e01b0319811681146112b157600080fd5b600060208284031215611ec757600080fd5b813561117081611e9f565b60005b83811015611eed578181015183820152602001611ed5565b50506000910152565b60008151808452611f0e816020860160208601611ed2565b601f01601f19169290920160200192915050565b6020815260006111706020830184611ef6565b600060208284031215611f4757600080fd5b5035919050565b6001600160a01b03811681146112b157600080fd5b60008060408385031215611f7657600080fd5b8235611f8181611f4e565b946020939093013593505050565b6020808252825182820181905260009190848201906040850190845b81811015611fc757835183529284019291840191600101611fab565b50909695505050505050565b600080600060608486031215611fe857600080fd5b8335611ff381611f4e565b9250602084013561200381611f4e565b929592945050506040919091013590565b60006020828403121561202657600080fd5b813561117081611f4e565b6000806020838503121561204457600080fd5b823567ffffffffffffffff8082111561205c57600080fd5b818501915085601f83011261207057600080fd5b81358181111561207f57600080fd5b86602082850101111561209157600080fd5b60209290920196919550909350505050565b600080604083850312156120b657600080fd5b82356120c181611f4e565b9150602083013580151581146120d657600080fd5b809150509250929050565b634e487b7160e01b600052604160045260246000fd5b604051601f8201601f1916810167ffffffffffffffff81118282101715612120576121206120e1565b604052919050565b6000602080838503121561213b57600080fd5b823567ffffffffffffffff8082111561215357600080fd5b818501915085601f83011261216757600080fd5b813581811115612179576121796120e1565b8060051b915061218a8483016120f7565b81815291830184019184810190888411156121a457600080fd5b938501935b838510156121c2578435825293850193908501906121a9565b98975050505050505050565b600080600080608085870312156121e457600080fd5b84356121ef81611f4e565b935060208581013561220081611f4e565b935060408601359250606086013567ffffffffffffffff8082111561222457600080fd5b818801915088601f83011261223857600080fd5b81358181111561224a5761224a6120e1565b61225c601f8201601f191685016120f7565b9150808252898482850101111561227257600080fd5b808484018584013760008482840101525080935050505092959194509250565b60008083601f8401126122a457600080fd5b50813567ffffffffffffffff8111156122bc57600080fd5b6020830191508360208260051b85010111156122d757600080fd5b9250929050565b600080600080604085870312156122f457600080fd5b843567ffffffffffffffff8082111561230c57600080fd5b61231888838901612292565b9096509450602087013591508082111561233157600080fd5b5061233e87828801612292565b95989497509550505050565b6000806040838503121561235d57600080fd5b823561236881611f4e565b915060208301356120d681611f4e565b600181811c9082168061238c57607f821691505b60208210810361099557634e487b7160e01b600052602260045260246000fd5b6000602082840312156123be57600080fd5b5051919050565b6000602082840312156123d757600080fd5b815161117081611f4e565b634e487b7160e01b600052603260045260246000fd5b634e487b7160e01b600052601160045260246000fd5b80820180821115610479576104796123f8565b600060018201612433576124336123f8565b5060010190565b6020808252602d908201527f4552433732313a2063616c6c6572206973206e6f7420746f6b656e206f776e6560408201526c1c881bdc88185c1c1c9bdd9959609a1b606082015260800190565b601f82111561064d57600081815260208120601f850160051c810160208610156124ae5750805b601f850160051c820191505b818110156124cd578281556001016124ba565b505050505050565b67ffffffffffffffff8311156124ed576124ed6120e1565b612501836124fb8354612378565b83612487565b6000601f841160018114612535576000851561251d5750838201355b600019600387901b1c1916600186901b178355611234565b600083815260209020601f19861690835b828110156125665786850135825560209485019460019092019101612546565b50868210156125835760001960f88860031b161c19848701351681555b505060018560011b0183555050505050565b600083516125a7818460208801611ed2565b8351908301906125bb818360208801611ed2565b01949350505050565b81810381811115610479576104796123f8565b60208082526025908201527f4552433732313a207472616e736665722066726f6d20696e636f72726563742060408201526437bbb732b960d91b606082015260800190565b60208082526032908201527f4552433732313a207472616e7366657220746f206e6f6e20455243373231526560408201527131b2b4bb32b91034b6b83632b6b2b73a32b960711b606082015260800190565b634e487b7160e01b600052603160045260246000fd5b6001600160a01b03858116825284166020820152604081018390526080606082018190526000906126b790830184611ef6565b9695505050505050565b6000602082840312156126d357600080fd5b815161117081611e9f56fea26469706673582212201229810a2cc93d39a045ba9d90c040ca5417572930927b9f740dc89d9adc952064736f6c63430008110033697066733a2f2f516d63336673455970754e7344737732434a7963744371376a324b4c33464444446633705776436d3834716f69712f",
  "immutableReferences": {},
  "source": "// SPDX-License-Identifier: GPL-3.0-or-later\n// Author:                  Rhea Myers <rhea@myers.studio>\n// Copyright:               2023 Myers Studio, Ltd.\npragma solidity 0.8.17;\n\nimport \"@openzeppelin/contracts/token/ERC721/ERC721.sol\";\nimport \"@openzeppelin/contracts/token/ERC721/extensions/ERC721Enumerable.sol\";\nimport \"@openzeppelin/contracts/security/Pausable.sol\";\nimport \"@openzeppelin/contracts/access/Ownable.sol\";\n\nimport \"./IERC998ERC721TopDownEnumerable.sol\";\n\n// A contract that reverses Tokens Equal Text.\n\ncontract TypeOppositeImages is ERC721, ERC721Enumerable, Pausable, Ownable {\n    uint256 public constant NUM_TOKENS = 32;\n\n    address private tet998;\n\n    string private baseUri = \"ipfs://Qmc3fsEYpuNsDsw2CJyctCq7j2KL3FDDDf3pWvCm84qoiq/\";\n    \n    mapping(uint256 => bytes32) public citehtsea;\n\n    constructor(address tet998Addr)\n        ERC721(\"Type Opposite Images\", \"TOI\")\n    {\n        tet998 = tet998Addr;\n        for (uint256 i = 1; i <= NUM_TOKENS; i++) {\n            _mint(msg.sender, i);\n        }\n    }\n\n    function addCitehtsea(\n        uint256[] calldata ids,\n        bytes32[] calldata vals\n    )\n        public\n        onlyOwner\n    {\n        require(ids.length == vals.length, \"Arguments must be same length.\");\n        for (uint256 i = 0; i < ids.length; i++) {\n            citehtsea[ids[i]] = vals[i];\n        }\n    }\n\n    function reverse(uint256[] memory texts)\n        public\n        view\n        returns (bytes32[] memory)\n    {\n        bytes32[] memory reversed = new bytes32[](texts.length);\n        for (uint256 i = 0; i < texts.length; i++) {\n            // This will be null/the empty string for uinknown texts.\n            reversed[i] = citehtsea[texts[i]];\n        }\n        return reversed;\n    }\n\n    function tet998TokenChildCount(uint256 tokenId)\n        public\n        view\n        returns(uint256)\n    {\n        // This will actually error in the called function,\n        // so this is for clarity.\n        // Yes, the 998 is also a 721.\n        require(ERC721(tet998).ownerOf(tokenId) != address(0), \"No such token\");\n        ERC998ERC721TopDownEnumerable\n            enumerable = ERC998ERC721TopDownEnumerable(tet998);\n        // No memory dynamic arrays in Solidity.\n        // So we walk the tree to calculate this.\n        // It would be fantastically wasteful to ever call this onchain.\n        uint256 childIdCount = 0;\n        uint256 numChildContracts = enumerable.totalChildContracts(tokenId);\n        for (uint256 c = 0; c < numChildContracts; c++) {\n            address childContract = enumerable.childContractByIndex(\n                tokenId,\n                c\n            );\n            uint256 numChildTokens = enumerable.totalChildTokens(\n                tokenId,\n                childContract\n            );\n            for (uint256 index = 0; index < numChildTokens; index++) {\n                childIdCount += 1;\n            }\n        }\n        return childIdCount;\n    }\n\n    function tet998TokenChildIds(uint256 tokenId)\n        public\n        view\n        returns(uint256[] memory childIds)\n    {\n        // No memory dynamic arrays in Solidity.\n        uint256 childIdCount = tet998TokenChildCount(tokenId);\n        childIds = new uint256[](childIdCount);\n        if (childIdCount > 0) {\n            ERC998ERC721TopDownEnumerable\n                enumerable = ERC998ERC721TopDownEnumerable(tet998);\n            uint256 childIdArrayIndex = 0;\n            uint256 numChildContracts = enumerable.totalChildContracts(tokenId);\n            for (uint256 c = 0; c < numChildContracts; c++) {\n                address childContract = enumerable.childContractByIndex(\n                    tokenId,\n                    c\n                );\n                uint256 numChildTokens = enumerable.totalChildTokens(\n                    tokenId,\n                    childContract\n                );\n                for (uint256 index = 0; index < numChildTokens; index++) {\n                    childIds[childIdArrayIndex] = enumerable.childTokenByIndex(\n                        tokenId,\n                        childContract,\n                        index\n                    );\n                    childIdArrayIndex += 1;\n                }\n            }\n            uint256[] memory childIdArray = new uint256[](childIdCount);\n            for (uint256 i = 0; i < childIdCount; i++) {\n                childIdArray[i] = childIds[i];\n            }\n            return childIdArray;\n        }\n    }\n\n    function aestheticToCitehtsea(uint256 tokenId)\n        public\n        view\n        returns (bytes32[] memory reversals)\n    {\n        uint256[] memory tetChildIds = tet998TokenChildIds(tokenId);\n        reversals = new bytes32[](tetChildIds.length);\n        for(uint256 i = 0; i < tetChildIds.length; i++) {\n            reversals[i] = citehtsea[tetChildIds[i]];\n        }\n        return reversals;\n    }\n\n    function setTet998Addr(address tet998Addr)\n        public\n        onlyOwner\n    {\n        require(\n            tet998Addr != address(0),\n            \"Cannot assign to 0x0, use burn address\"\n        );\n        tet998 = tet998Addr;\n    }\n\n    function pause() public onlyOwner {\n        _pause();\n    }\n\n    function unpause() public onlyOwner {\n        _unpause();\n    }\n\n    function _baseURI() internal view virtual override returns (string memory) {\n        return baseUri;\n    }\n\n    function setBaseUri(string calldata newUri) external onlyOwner {\n        baseUri = newUri;\n    }\n\n    function _beforeTokenTransfer(address from, address to, uint256 tokenId, uint256 batchSize)\n        internal\n        whenNotPaused\n        override(ERC721, ERC721Enumerable)\n    {\n        super._beforeTokenTransfer(from, to, tokenId, batchSize);\n    }\n\n    // The following functions are overrides required by Solidity.\n\n    function supportsInterface(bytes4 interfaceId)\n        public\n        view\n        override(ERC721, ERC721Enumerable)\n        returns (bool)\n    {\n        return super.supportsInterface(interfaceId);\n    }\n}\n",
  "sourcePath": "/home/rhea/projects/type-opposite-images/contracts/TypeOppositeImages.sol",
  "compiler": {
    "name": "solc",
    "version": "0.8.17+commit.8df45f5f.Emscripten.clang"
  },
  "schemaVersion": "3.4.11",
  "updatedAt": "2023-01-20T04:24:57.228Z",
  "devdoc": {
    "kind": "dev",
    "methods": {
      "approve(address,uint256)": {
        "details": "See {IERC721-approve}."
      },
      "balanceOf(address)": {
        "details": "See {IERC721-balanceOf}."
      },
      "getApproved(uint256)": {
        "details": "See {IERC721-getApproved}."
      },
      "isApprovedForAll(address,address)": {
        "details": "See {IERC721-isApprovedForAll}."
      },
      "name()": {
        "details": "See {IERC721Metadata-name}."
      },
      "owner()": {
        "details": "Returns the address of the current owner."
      },
      "ownerOf(uint256)": {
        "details": "See {IERC721-ownerOf}."
      },
      "paused()": {
        "details": "Returns true if the contract is paused, and false otherwise."
      },
      "renounceOwnership()": {
        "details": "Leaves the contract without owner. It will not be possible to call `onlyOwner` functions anymore. Can only be called by the current owner. NOTE: Renouncing ownership will leave the contract without an owner, thereby removing any functionality that is only available to the owner."
      },
      "safeTransferFrom(address,address,uint256)": {
        "details": "See {IERC721-safeTransferFrom}."
      },
      "safeTransferFrom(address,address,uint256,bytes)": {
        "details": "See {IERC721-safeTransferFrom}."
      },
      "setApprovalForAll(address,bool)": {
        "details": "See {IERC721-setApprovalForAll}."
      },
      "symbol()": {
        "details": "See {IERC721Metadata-symbol}."
      },
      "tokenByIndex(uint256)": {
        "details": "See {IERC721Enumerable-tokenByIndex}."
      },
      "tokenOfOwnerByIndex(address,uint256)": {
        "details": "See {IERC721Enumerable-tokenOfOwnerByIndex}."
      },
      "tokenURI(uint256)": {
        "details": "See {IERC721Metadata-tokenURI}."
      },
      "totalSupply()": {
        "details": "See {IERC721Enumerable-totalSupply}."
      },
      "transferFrom(address,address,uint256)": {
        "details": "See {IERC721-transferFrom}."
      },
      "transferOwnership(address)": {
        "details": "Transfers ownership of the contract to a new account (`newOwner`). Can only be called by the current owner."
      }
    },
    "version": 1
  },
  "userdoc": {
    "kind": "user",
    "methods": {},
    "version": 1
  }
}