{
  "contractName": "TypeOppositeImages",
  "abi": [
    {
      "inputs": [
        {
          "internalType": "address",
          "name": "tet998Addr",
          "type": "address"
        }
      ],
      "stateMutability": "nonpayable",
      "type": "constructor"
    },
    {
      "anonymous": false,
      "inputs": [
        {
          "indexed": true,
          "internalType": "address",
          "name": "owner",
          "type": "address"
        },
        {
          "indexed": true,
          "internalType": "address",
          "name": "approved",
          "type": "address"
        },
        {
          "indexed": true,
          "internalType": "uint256",
          "name": "tokenId",
          "type": "uint256"
        }
      ],
      "name": "Approval",
      "type": "event"
    },
    {
      "anonymous": false,
      "inputs": [
        {
          "indexed": true,
          "internalType": "address",
          "name": "owner",
          "type": "address"
        },
        {
          "indexed": true,
          "internalType": "address",
          "name": "operator",
          "type": "address"
        },
        {
          "indexed": false,
          "internalType": "bool",
          "name": "approved",
          "type": "bool"
        }
      ],
      "name": "ApprovalForAll",
      "type": "event"
    },
    {
      "anonymous": false,
      "inputs": [
        {
          "indexed": true,
          "internalType": "address",
          "name": "previousOwner",
          "type": "address"
        },
        {
          "indexed": true,
          "internalType": "address",
          "name": "newOwner",
          "type": "address"
        }
      ],
      "name": "OwnershipTransferred",
      "type": "event"
    },
    {
      "anonymous": false,
      "inputs": [
        {
          "indexed": false,
          "internalType": "address",
          "name": "account",
          "type": "address"
        }
      ],
      "name": "Paused",
      "type": "event"
    },
    {
      "anonymous": false,
      "inputs": [
        {
          "indexed": true,
          "internalType": "address",
          "name": "from",
          "type": "address"
        },
        {
          "indexed": true,
          "internalType": "address",
          "name": "to",
          "type": "address"
        },
        {
          "indexed": true,
          "internalType": "uint256",
          "name": "tokenId",
          "type": "uint256"
        }
      ],
      "name": "Transfer",
      "type": "event"
    },
    {
      "anonymous": false,
      "inputs": [
        {
          "indexed": false,
          "internalType": "address",
          "name": "account",
          "type": "address"
        }
      ],
      "name": "Unpaused",
      "type": "event"
    },
    {
      "inputs": [],
      "name": "NUM_TOKENS",
      "outputs": [
        {
          "internalType": "uint256",
          "name": "",
          "type": "uint256"
        }
      ],
      "stateMutability": "view",
      "type": "function"
    },
    {
      "inputs": [
        {
          "internalType": "address",
          "name": "to",
          "type": "address"
        },
        {
          "internalType": "uint256",
          "name": "tokenId",
          "type": "uint256"
        }
      ],
      "name": "approve",
      "outputs": [],
      "stateMutability": "nonpayable",
      "type": "function"
    },
    {
      "inputs": [
        {
          "internalType": "address",
          "name": "owner",
          "type": "address"
        }
      ],
      "name": "balanceOf",
      "outputs": [
        {
          "internalType": "uint256",
          "name": "",
          "type": "uint256"
        }
      ],
      "stateMutability": "view",
      "type": "function"
    },
    {
      "inputs": [
        {
          "internalType": "uint256",
          "name": "",
          "type": "uint256"
        }
      ],
      "name": "citehtsea",
      "outputs": [
        {
          "internalType": "bytes32",
          "name": "",
          "type": "bytes32"
        }
      ],
      "stateMutability": "view",
      "type": "function"
    },
    {
      "inputs": [
        {
          "internalType": "uint256",
          "name": "tokenId",
          "type": "uint256"
        }
      ],
      "name": "getApproved",
      "outputs": [
        {
          "internalType": "address",
          "name": "",
          "type": "address"
        }
      ],
      "stateMutability": "view",
      "type": "function"
    },
    {
      "inputs": [
        {
          "internalType": "address",
          "name": "owner",
          "type": "address"
        },
        {
          "internalType": "address",
          "name": "operator",
          "type": "address"
        }
      ],
      "name": "isApprovedForAll",
      "outputs": [
        {
          "internalType": "bool",
          "name": "",
          "type": "bool"
        }
      ],
      "stateMutability": "view",
      "type": "function"
    },
    {
      "inputs": [],
      "name": "name",
      "outputs": [
        {
          "internalType": "string",
          "name": "",
          "type": "string"
        }
      ],
      "stateMutability": "view",
      "type": "function"
    },
    {
      "inputs": [],
      "name": "owner",
      "outputs": [
        {
          "internalType": "address",
          "name": "",
          "type": "address"
        }
      ],
      "stateMutability": "view",
      "type": "function"
    },
    {
      "inputs": [
        {
          "internalType": "uint256",
          "name": "tokenId",
          "type": "uint256"
        }
      ],
      "name": "ownerOf",
      "outputs": [
        {
          "internalType": "address",
          "name": "",
          "type": "address"
        }
      ],
      "stateMutability": "view",
      "type": "function"
    },
    {
      "inputs": [],
      "name": "paused",
      "outputs": [
        {
          "internalType": "bool",
          "name": "",
          "type": "bool"
        }
      ],
      "stateMutability": "view",
      "type": "function"
    },
    {
      "inputs": [],
      "name": "renounceOwnership",
      "outputs": [],
      "stateMutability": "nonpayable",
      "type": "function"
    },
    {
      "inputs": [
        {
          "internalType": "address",
          "name": "from",
          "type": "address"
        },
        {
          "internalType": "address",
          "name": "to",
          "type": "address"
        },
        {
          "internalType": "uint256",
          "name": "tokenId",
          "type": "uint256"
        }
      ],
      "name": "safeTransferFrom",
      "outputs": [],
      "stateMutability": "nonpayable",
      "type": "function"
    },
    {
      "inputs": [
        {
          "internalType": "address",
          "name": "from",
          "type": "address"
        },
        {
          "internalType": "address",
          "name": "to",
          "type": "address"
        },
        {
          "internalType": "uint256",
          "name": "tokenId",
          "type": "uint256"
        },
        {
          "internalType": "bytes",
          "name": "data",
          "type": "bytes"
        }
      ],
      "name": "safeTransferFrom",
      "outputs": [],
      "stateMutability": "nonpayable",
      "type": "function"
    },
    {
      "inputs": [
        {
          "internalType": "address",
          "name": "operator",
          "type": "address"
        },
        {
          "internalType": "bool",
          "name": "approved",
          "type": "bool"
        }
      ],
      "name": "setApprovalForAll",
      "outputs": [],
      "stateMutability": "nonpayable",
      "type": "function"
    },
    {
      "inputs": [],
      "name": "symbol",
      "outputs": [
        {
          "internalType": "string",
          "name": "",
          "type": "string"
        }
      ],
      "stateMutability": "view",
      "type": "function"
    },
    {
      "inputs": [
        {
          "internalType": "uint256",
          "name": "index",
          "type": "uint256"
        }
      ],
      "name": "tokenByIndex",
      "outputs": [
        {
          "internalType": "uint256",
          "name": "",
          "type": "uint256"
        }
      ],
      "stateMutability": "view",
      "type": "function"
    },
    {
      "inputs": [
        {
          "internalType": "address",
          "name": "owner",
          "type": "address"
        },
        {
          "internalType": "uint256",
          "name": "index",
          "type": "uint256"
        }
      ],
      "name": "tokenOfOwnerByIndex",
      "outputs": [
        {
          "internalType": "uint256",
          "name": "",
          "type": "uint256"
        }
      ],
      "stateMutability": "view",
      "type": "function"
    },
    {
      "inputs": [
        {
          "internalType": "uint256",
          "name": "tokenId",
          "type": "uint256"
        }
      ],
      "name": "tokenURI",
      "outputs": [
        {
          "internalType": "string",
          "name": "",
          "type": "string"
        }
      ],
      "stateMutability": "view",
      "type": "function"
    },
    {
      "inputs": [],
      "name": "totalSupply",
      "outputs": [
        {
          "internalType": "uint256",
          "name": "",
          "type": "uint256"
        }
      ],
      "stateMutability": "view",
      "type": "function"
    },
    {
      "inputs": [
        {
          "internalType": "address",
          "name": "from",
          "type": "address"
        },
        {
          "internalType": "address",
          "name": "to",
          "type": "address"
        },
        {
          "internalType": "uint256",
          "name": "tokenId",
          "type": "uint256"
        }
      ],
      "name": "transferFrom",
      "outputs": [],
      "stateMutability": "nonpayable",
      "type": "function"
    },
    {
      "inputs": [
        {
          "internalType": "address",
          "name": "newOwner",
          "type": "address"
        }
      ],
      "name": "transferOwnership",
      "outputs": [],
      "stateMutability": "nonpayable",
      "type": "function"
    },
    {
      "inputs": [
        {
          "internalType": "uint256[]",
          "name": "ids",
          "type": "uint256[]"
        },
        {
          "internalType": "bytes32[]",
          "name": "vals",
          "type": "bytes32[]"
        }
      ],
      "name": "addCitehtsea",
      "outputs": [],
      "stateMutability": "nonpayable",
      "type": "function"
    },
    {
      "inputs": [
        {
          "internalType": "uint256[]",
          "name": "texts",
          "type": "uint256[]"
        }
      ],
      "name": "reverse",
      "outputs": [
        {
          "internalType": "bytes32[]",
          "name": "",
          "type": "bytes32[]"
        }
      ],
      "stateMutability": "view",
      "type": "function"
    },
    {
      "inputs": [
        {
          "internalType": "uint256",
          "name": "tokenId",
          "type": "uint256"
        }
      ],
      "name": "tet998TokenChildCount",
      "outputs": [
        {
          "internalType": "uint256",
          "name": "",
          "type": "uint256"
        }
      ],
      "stateMutability": "view",
      "type": "function"
    },
    {
      "inputs": [
        {
          "internalType": "uint256",
          "name": "tokenId",
          "type": "uint256"
        }
      ],
      "name": "tet998TokenChildIds",
      "outputs": [
        {
          "internalType": "uint256[]",
          "name": "childIds",
          "type": "uint256[]"
        }
      ],
      "stateMutability": "view",
      "type": "function"
    },
    {
      "inputs": [
        {
          "internalType": "uint256",
          "name": "tokenId",
          "type": "uint256"
        }
      ],
      "name": "aestheticToCitehtsea",
      "outputs": [
        {
          "internalType": "bytes32[]",
          "name": "reversals",
          "type": "bytes32[]"
        }
      ],
      "stateMutability": "view",
      "type": "function"
    },
    {
      "inputs": [
        {
          "internalType": "address",
          "name": "tet998Addr",
          "type": "address"
        }
      ],
      "name": "setTet998Addr",
      "outputs": [],
      "stateMutability": "nonpayable",
      "type": "function"
    },
    {
      "inputs": [],
      "name": "pause",
      "outputs": [],
      "stateMutability": "nonpayable",
      "type": "function"
    },
    {
      "inputs": [],
      "name": "unpause",
      "outputs": [],
      "stateMutability": "nonpayable",
      "type": "function"
    },
    {
      "inputs": [
        {
          "internalType": "bytes4",
          "name": "interfaceId",
          "type": "bytes4"
        }
      ],
      "name": "supportsInterface",
      "outputs": [
        {
          "internalType": "bool",
          "name": "",
          "type": "bool"
        }
      ],
      "stateMutability": "view",
      "type": "function"
    }
  ],
  "bytecode": "0x60806040523480156200001157600080fd5b5060405162002f5538038062002f558339810160408190526200003491620007b3565b6040518060400160405280601481526020017f54797065204f70706f7369746520496d6167657300000000000000000000000081525060405180604001604052806003815260200162544f4960e81b81525081600090816200009791906200088a565b506001620000a682826200088a565b5050600a805460ff1916905550620000be336200010e565b600b80546001600160a01b0319166001600160a01b03831617905560015b602081116200010657620000f1338262000168565b80620000fd816200096c565b915050620000dc565b5050620009e6565b600a80546001600160a01b03838116610100818102610100600160a81b031985161790945560405193909204169182907f8be0079c531659141344cd1fd0a4f28419497f9722a3daafe3b4186f6b6457e090600090a35050565b6001600160a01b038216620001c45760405162461bcd60e51b815260206004820181905260248201527f4552433732313a206d696e7420746f20746865207a65726f206164647265737360448201526064015b60405180910390fd5b6000818152600260205260409020546001600160a01b0316156200022b5760405162461bcd60e51b815260206004820152601c60248201527f4552433732313a20746f6b656e20616c7265616479206d696e746564000000006044820152606401620001bb565b6200023b6000838360016200030d565b6000818152600260205260409020546001600160a01b031615620002a25760405162461bcd60e51b815260206004820152601c60248201527f4552433732313a20746f6b656e20616c7265616479206d696e746564000000006044820152606401620001bb565b6001600160a01b038216600081815260036020908152604080832080546001019055848352600290915280822080546001600160a01b0319168417905551839291907fddf252ad1be2c89b69c2b068fc378daa952ba7f163c4a11628f55a4df523b3ef908290a45050565b6200031762000336565b62000330848484846200038060201b6200128e1760201c565b50505050565b600a5460ff16156200037e5760405162461bcd60e51b815260206004820152601060248201526f14185d5cd8589b194e881c185d5cd95960821b6044820152606401620001bb565b565b6200039984848484620004e460201b620013c71760201c565b6001811115620004125760405162461bcd60e51b815260206004820152603560248201527f455243373231456e756d657261626c653a20636f6e736563757469766520747260448201527f616e7366657273206e6f7420737570706f7274656400000000000000000000006064820152608401620001bb565b816001600160a01b03851662000471576200046b81600880546000838152600960205260408120829055600182018355919091527ff3f7a9fe364faab93b216da50a3214154f22a0a2b415b23a84c8169e8b636ee30155565b62000497565b836001600160a01b0316856001600160a01b031614620004975762000497858262000573565b6001600160a01b038416620004b757620004b18162000620565b620004dd565b846001600160a01b0316846001600160a01b031614620004dd57620004dd8482620006da565b5050505050565b600181111562000330576001600160a01b038416156200052e576001600160a01b038416600090815260036020526040812080548392906200052890849062000988565b90915550505b6001600160a01b0383161562000330576001600160a01b0383166000908152600360205260408120805483929062000568908490620009a4565b909155505050505050565b600060016200058d846200072b60201b62000e971760201c565b62000599919062000988565b600083815260076020526040902054909150808214620005ed576001600160a01b03841660009081526006602090815260408083208584528252808320548484528184208190558352600790915290208190555b5060009182526007602090815260408084208490556001600160a01b039094168352600681528383209183525290812055565b600854600090620006349060019062000988565b600083815260096020526040812054600880549394509092849081106200065f576200065f620009ba565b906000526020600020015490508060088381548110620006835762000683620009ba565b6000918252602080832090910192909255828152600990915260408082208490558582528120556008805480620006be57620006be620009d0565b6001900381819060005260206000200160009055905550505050565b6000620006f2836200072b60201b62000e971760201c565b6001600160a01b039093166000908152600660209081526040808320868452825280832085905593825260079052919091209190915550565b60006001600160a01b038216620007975760405162461bcd60e51b815260206004820152602960248201527f4552433732313a2061646472657373207a65726f206973206e6f7420612076616044820152683634b21037bbb732b960b91b6064820152608401620001bb565b506001600160a01b031660009081526003602052604090205490565b600060208284031215620007c657600080fd5b81516001600160a01b0381168114620007de57600080fd5b9392505050565b634e487b7160e01b600052604160045260246000fd5b600181811c908216806200081057607f821691505b6020821081036200083157634e487b7160e01b600052602260045260246000fd5b50919050565b601f8211156200088557600081815260208120601f850160051c81016020861015620008605750805b601f850160051c820191505b8181101562000881578281556001016200086c565b5050505b505050565b81516001600160401b03811115620008a657620008a6620007e5565b620008be81620008b78454620007fb565b8462000837565b602080601f831160018114620008f65760008415620008dd5750858301515b600019600386901b1c1916600185901b17855562000881565b600085815260208120601f198616915b82811015620009275788860151825594840194600190910190840162000906565b5085821015620009465787850151600019600388901b60f8161c191681555b5050505050600190811b01905550565b634e487b7160e01b600052601160045260246000fd5b60006001820162000981576200098162000956565b5060010190565b818103818111156200099e576200099e62000956565b92915050565b808201808211156200099e576200099e62000956565b634e487b7160e01b600052603260045260246000fd5b634e487b7160e01b600052603160045260246000fd5b61255f80620009f66000396000f3fe608060405234801561001057600080fd5b50600436106101da5760003560e01c80636352211e1161010457806395d89b41116100a2578063c87b56dd11610071578063c87b56dd146103db578063e7b35cd5146103ee578063e985e9c514610401578063f2fde38b1461043d57600080fd5b806395d89b411461039a578063a22cb465146103a2578063a9333cfc146103b5578063b88d4fde146103c857600080fd5b8063715018a6116100de578063715018a61461036157806377d06ad3146103695780638456cb591461037c5780638da5cb5b1461038457600080fd5b80636352211e146103285780636a27855f1461033b57806370a082311461034e57600080fd5b806323b872dd1161017c57806342842e0e1161014b57806342842e0e146102d75780634f6ccce7146102ea5780635c975abb146102fd5780635cf6f0da1461030857600080fd5b806323b872dd146102a15780632f745c59146102b45780633f4ba83a146102c75780634149db48146102cf57600080fd5b8063095ea7b3116101b8578063095ea7b3146102475780630ef766521461025c57806318160ddd1461027c57806318ebfc6d1461028e57600080fd5b806301ffc9a7146101df57806306fdde0314610207578063081812fc1461021c575b600080fd5b6101f26101ed366004611e80565b610450565b60405190151581526020015b60405180910390f35b61020f610461565b6040516101fe9190611eed565b61022f61022a366004611f00565b6104f3565b6040516001600160a01b0390911681526020016101fe565b61025a610255366004611f2e565b61051a565b005b61026f61026a366004611f00565b610634565b6040516101fe9190611f5a565b6008545b6040519081526020016101fe565b61026f61029c366004611f00565b61097d565b61025a6102af366004611f9e565b610a41565b6102806102c2366004611f2e565b610a72565b61025a610b08565b610280602081565b61025a6102e5366004611f9e565b610b1a565b6102806102f8366004611f00565b610b35565b600a5460ff166101f2565b610280610316366004611f00565b600c6020526000908152604090205481565b61022f610336366004611f00565b610bc8565b610280610349366004611f00565b610c28565b61028061035c366004611fdf565b610e97565b61025a610f1d565b61025a610377366004611fdf565b610f2f565b61025a610fbe565b600a5461010090046001600160a01b031661022f565b61020f610fce565b61025a6103b0366004611ffc565b610fdd565b61026f6103c3366004612081565b610fec565b61025a6103d6366004612127565b6110a5565b61020f6103e9366004611f00565b6110dd565b61025a6103fc366004612237565b611151565b6101f261040f3660046122a3565b6001600160a01b03918216600090815260056020908152604080832093909416825291909152205460ff1690565b61025a61044b366004611fdf565b611215565b600061045b8261144f565b92915050565b606060008054610470906122d1565b80601f016020809104026020016040519081016040528092919081815260200182805461049c906122d1565b80156104e95780601f106104be576101008083540402835291602001916104e9565b820191906000526020600020905b8154815290600101906020018083116104cc57829003601f168201915b5050505050905090565b60006104fe82611474565b506000908152600460205260409020546001600160a01b031690565b600061052582610bc8565b9050806001600160a01b0316836001600160a01b0316036105975760405162461bcd60e51b815260206004820152602160248201527f4552433732313a20617070726f76616c20746f2063757272656e74206f776e656044820152603960f91b60648201526084015b60405180910390fd5b336001600160a01b03821614806105b357506105b3813361040f565b6106255760405162461bcd60e51b815260206004820152603d60248201527f4552433732313a20617070726f76652063616c6c6572206973206e6f7420746f60448201527f6b656e206f776e6572206f7220617070726f76656420666f7220616c6c000000606482015260840161058e565b61062f83836114d3565b505050565b6060600061064183610c28565b90508067ffffffffffffffff81111561065c5761065c61203a565b604051908082528060200260200182016040528015610685578160200160208202803683370190505b509150801561097757600b54604051638da7d0b560e01b8152600481018590526001600160a01b039091169060009081908390638da7d0b590602401602060405180830381865afa1580156106de573d6000803e3d6000fd5b505050506040513d601f19601f820116820180604052508101906107029190612305565b905060005b818110156108d057604051630d5a621b60e01b815260048101889052602481018290526000906001600160a01b03861690630d5a621b90604401602060405180830381865afa15801561075e573d6000803e3d6000fd5b505050506040513d601f19601f82011682018060405250810190610782919061231e565b6040516335b21ceb60e01b8152600481018a90526001600160a01b0380831660248301529192506000918716906335b21ceb90604401602060405180830381865afa1580156107d5573d6000803e3d6000fd5b505050506040513d601f19601f820116820180604052508101906107f99190612305565b905060005b818110156108ba5760405163160b01a160e01b8152600481018b90526001600160a01b0384811660248301526044820183905288169063160b01a190606401602060405180830381865afa15801561085a573d6000803e3d6000fd5b505050506040513d601f19601f8201168201806040525081019061087e9190612305565b8987815181106108905761089061233b565b60209081029190910101526108a6600187612367565b9550806108b28161237a565b9150506107fe565b50505080806108c89061237a565b915050610707565b5060008467ffffffffffffffff8111156108ec576108ec61203a565b604051908082528060200260200182016040528015610915578160200160208202803683370190505b50905060005b8581101561096c578681815181106109355761093561233b565b602002602001015182828151811061094f5761094f61233b565b6020908102919091010152806109648161237a565b91505061091b565b509695505050505050565b50919050565b6060600061098a83610634565b9050805167ffffffffffffffff8111156109a6576109a661203a565b6040519080825280602002602001820160405280156109cf578160200160208202803683370190505b50915060005b8151811015610a3a57600c60008383815181106109f4576109f461233b565b6020026020010151815260200190815260200160002054838281518110610a1d57610a1d61233b565b602090810291909101015280610a328161237a565b9150506109d5565b5050919050565b610a4b3382611541565b610a675760405162461bcd60e51b815260040161058e90612393565b61062f8383836115c0565b6000610a7d83610e97565b8210610adf5760405162461bcd60e51b815260206004820152602b60248201527f455243373231456e756d657261626c653a206f776e657220696e646578206f7560448201526a74206f6620626f756e647360a81b606482015260840161058e565b506001600160a01b03919091166000908152600660209081526040808320938352929052205490565b610b10611731565b610b18611791565b565b61062f838383604051806020016040528060008152506110a5565b6000610b4060085490565b8210610ba35760405162461bcd60e51b815260206004820152602c60248201527f455243373231456e756d657261626c653a20676c6f62616c20696e646578206f60448201526b7574206f6620626f756e647360a01b606482015260840161058e565b60088281548110610bb657610bb661233b565b90600052602060002001549050919050565b6000818152600260205260408120546001600160a01b03168061045b5760405162461bcd60e51b8152602060048201526018602482015277115490cdcc8c4e881a5b9d985b1a59081d1bdad95b88125160421b604482015260640161058e565b600b546040516331a9108f60e11b81526004810183905260009182916001600160a01b0390911690636352211e90602401602060405180830381865afa158015610c76573d6000803e3d6000fd5b505050506040513d601f19601f82011682018060405250810190610c9a919061231e565b6001600160a01b031603610ce05760405162461bcd60e51b815260206004820152600d60248201526c27379039bab1b4103a37b5b2b760991b604482015260640161058e565b600b54604051638da7d0b560e01b8152600481018490526001600160a01b039091169060009081908390638da7d0b590602401602060405180830381865afa158015610d30573d6000803e3d6000fd5b505050506040513d601f19601f82011682018060405250810190610d549190612305565b905060005b81811015610e8d57604051630d5a621b60e01b815260048101879052602481018290526000906001600160a01b03861690630d5a621b90604401602060405180830381865afa158015610db0573d6000803e3d6000fd5b505050506040513d601f19601f82011682018060405250810190610dd4919061231e565b6040516335b21ceb60e01b8152600481018990526001600160a01b0380831660248301529192506000918716906335b21ceb90604401602060405180830381865afa158015610e27573d6000803e3d6000fd5b505050506040513d601f19601f82011682018060405250810190610e4b9190612305565b905060005b81811015610e7757610e63600187612367565b955080610e6f8161237a565b915050610e50565b5050508080610e859061237a565b915050610d59565b5090949350505050565b60006001600160a01b038216610f015760405162461bcd60e51b815260206004820152602960248201527f4552433732313a2061646472657373207a65726f206973206e6f7420612076616044820152683634b21037bbb732b960b91b606482015260840161058e565b506001600160a01b031660009081526003602052604090205490565b610f25611731565b610b1860006117e3565b610f37611731565b6001600160a01b038116610f9c5760405162461bcd60e51b815260206004820152602660248201527f43616e6e6f742061737369676e20746f203078302c20757365206275726e206160448201526564647265737360d01b606482015260840161058e565b600b80546001600160a01b0319166001600160a01b0392909216919091179055565b610fc6611731565b610b1861183d565b606060018054610470906122d1565b610fe833838361187a565b5050565b60606000825167ffffffffffffffff81111561100a5761100a61203a565b604051908082528060200260200182016040528015611033578160200160208202803683370190505b50905060005b835181101561109e57600c60008583815181106110585761105861233b565b60200260200101518152602001908152602001600020548282815181106110815761108161233b565b6020908102919091010152806110968161237a565b915050611039565b5092915050565b6110af3383611541565b6110cb5760405162461bcd60e51b815260040161058e90612393565b6110d784848484611948565b50505050565b60606110e882611474565b60006110ff60408051602081019091526000815290565b9050600081511161111f576040518060200160405280600081525061114a565b806111298461197b565b60405160200161113a9291906123e0565b6040516020818303038152906040525b9392505050565b611159611731565b8281146111a85760405162461bcd60e51b815260206004820152601e60248201527f417267756d656e7473206d7573742062652073616d65206c656e6774682e0000604482015260640161058e565b60005b8381101561120e578282828181106111c5576111c561233b565b90506020020135600c60008787858181106111e2576111e261233b565b9050602002013581526020019081526020016000208190555080806112069061237a565b9150506111ab565b5050505050565b61121d611731565b6001600160a01b0381166112825760405162461bcd60e51b815260206004820152602660248201527f4f776e61626c653a206e6577206f776e657220697320746865207a65726f206160448201526564647265737360d01b606482015260840161058e565b61128b816117e3565b50565b61129a848484846113c7565b60018111156113095760405162461bcd60e51b815260206004820152603560248201527f455243373231456e756d657261626c653a20636f6e7365637574697665207472604482015274185b9cd9995c9cc81b9bdd081cdd5c1c1bdc9d1959605a1b606482015260840161058e565b816001600160a01b0385166113655761136081600880546000838152600960205260408120829055600182018355919091527ff3f7a9fe364faab93b216da50a3214154f22a0a2b415b23a84c8169e8b636ee30155565b611388565b836001600160a01b0316856001600160a01b031614611388576113888582611a0e565b6001600160a01b0384166113a45761139f81611aab565b61120e565b846001600160a01b0316846001600160a01b03161461120e5761120e8482611b5a565b60018111156110d7576001600160a01b0384161561140d576001600160a01b0384166000908152600360205260408120805483929061140790849061240f565b90915550505b6001600160a01b038316156110d7576001600160a01b03831660009081526003602052604081208054839290611444908490612367565b909155505050505050565b60006001600160e01b0319821663780e9d6360e01b148061045b575061045b82611b9e565b6000818152600260205260409020546001600160a01b031661128b5760405162461bcd60e51b8152602060048201526018602482015277115490cdcc8c4e881a5b9d985b1a59081d1bdad95b88125160421b604482015260640161058e565b600081815260046020526040902080546001600160a01b0319166001600160a01b038416908117909155819061150882610bc8565b6001600160a01b03167f8c5be1e5ebec7d5bd14f71427d1e84f3dd0314c0f7b2291e5b200ac8c7c3b92560405160405180910390a45050565b60008061154d83610bc8565b9050806001600160a01b0316846001600160a01b0316148061159457506001600160a01b0380821660009081526005602090815260408083209388168352929052205460ff165b806115b85750836001600160a01b03166115ad846104f3565b6001600160a01b0316145b949350505050565b826001600160a01b03166115d382610bc8565b6001600160a01b0316146115f95760405162461bcd60e51b815260040161058e90612422565b6001600160a01b03821661165b5760405162461bcd60e51b8152602060048201526024808201527f4552433732313a207472616e7366657220746f20746865207a65726f206164646044820152637265737360e01b606482015260840161058e565b6116688383836001611bee565b826001600160a01b031661167b82610bc8565b6001600160a01b0316146116a15760405162461bcd60e51b815260040161058e90612422565b600081815260046020908152604080832080546001600160a01b03199081169091556001600160a01b0387811680865260038552838620805460001901905590871680865283862080546001019055868652600290945282852080549092168417909155905184937fddf252ad1be2c89b69c2b068fc378daa952ba7f163c4a11628f55a4df523b3ef91a4505050565b600a546001600160a01b03610100909104163314610b185760405162461bcd60e51b815260206004820181905260248201527f4f776e61626c653a2063616c6c6572206973206e6f7420746865206f776e6572604482015260640161058e565b611799611c02565b600a805460ff191690557f5db9ee0a495bf2e6ff9c91a7834c1ba4fdd244a5e8aa4e537bd38aeae4b073aa335b6040516001600160a01b03909116815260200160405180910390a1565b600a80546001600160a01b03838116610100818102610100600160a81b031985161790945560405193909204169182907f8be0079c531659141344cd1fd0a4f28419497f9722a3daafe3b4186f6b6457e090600090a35050565b611845611c4b565b600a805460ff191660011790557f62e78cea01bee320cd4e420270b5ea74000d11b0c9f74754ebdbfc544b05a2586117c63390565b816001600160a01b0316836001600160a01b0316036118db5760405162461bcd60e51b815260206004820152601960248201527f4552433732313a20617070726f766520746f2063616c6c657200000000000000604482015260640161058e565b6001600160a01b03838116600081815260056020908152604080832094871680845294825291829020805460ff191686151590811790915591519182527f17307eab39ab6107e8899845ad3d59bd9653f200f220920489ca2b5937696c31910160405180910390a3505050565b6119538484846115c0565b61195f84848484611c91565b6110d75760405162461bcd60e51b815260040161058e90612467565b6060600061198883611d92565b600101905060008167ffffffffffffffff8111156119a8576119a861203a565b6040519080825280601f01601f1916602001820160405280156119d2576020820181803683370190505b5090508181016020015b600019016f181899199a1a9b1b9c1cb0b131b232b360811b600a86061a8153600a85049450846119dc57509392505050565b60006001611a1b84610e97565b611a25919061240f565b600083815260076020526040902054909150808214611a78576001600160a01b03841660009081526006602090815260408083208584528252808320548484528184208190558352600790915290208190555b5060009182526007602090815260408084208490556001600160a01b039094168352600681528383209183525290812055565b600854600090611abd9060019061240f565b60008381526009602052604081205460088054939450909284908110611ae557611ae561233b565b906000526020600020015490508060088381548110611b0657611b0661233b565b6000918252602080832090910192909255828152600990915260408082208490558582528120556008805480611b3e57611b3e6124b9565b6001900381819060005260206000200160009055905550505050565b6000611b6583610e97565b6001600160a01b039093166000908152600660209081526040808320868452825280832085905593825260079052919091209190915550565b60006001600160e01b031982166380ac58cd60e01b1480611bcf57506001600160e01b03198216635b5e139f60e01b145b8061045b57506301ffc9a760e01b6001600160e01b031983161461045b565b611bf6611c4b565b6110d78484848461128e565b600a5460ff16610b185760405162461bcd60e51b815260206004820152601460248201527314185d5cd8589b194e881b9bdd081c185d5cd95960621b604482015260640161058e565b600a5460ff1615610b185760405162461bcd60e51b815260206004820152601060248201526f14185d5cd8589b194e881c185d5cd95960821b604482015260640161058e565b60006001600160a01b0384163b15611d8757604051630a85bd0160e11b81526001600160a01b0385169063150b7a0290611cd59033908990889088906004016124cf565b6020604051808303816000875af1925050508015611d10575060408051601f3d908101601f19168201909252611d0d9181019061250c565b60015b611d6d573d808015611d3e576040519150601f19603f3d011682016040523d82523d6000602084013e611d43565b606091505b508051600003611d655760405162461bcd60e51b815260040161058e90612467565b805181602001fd5b6001600160e01b031916630a85bd0160e11b1490506115b8565b506001949350505050565b60008072184f03e93ff9f4daa797ed6e38ed64bf6a1f0160401b8310611dd15772184f03e93ff9f4daa797ed6e38ed64bf6a1f0160401b830492506040015b6d04ee2d6d415b85acef81000000008310611dfd576d04ee2d6d415b85acef8100000000830492506020015b662386f26fc100008310611e1b57662386f26fc10000830492506010015b6305f5e1008310611e33576305f5e100830492506008015b6127108310611e4757612710830492506004015b60648310611e59576064830492506002015b600a831061045b5760010192915050565b6001600160e01b03198116811461128b57600080fd5b600060208284031215611e9257600080fd5b813561114a81611e6a565b60005b83811015611eb8578181015183820152602001611ea0565b50506000910152565b60008151808452611ed9816020860160208601611e9d565b601f01601f19169290920160200192915050565b60208152600061114a6020830184611ec1565b600060208284031215611f1257600080fd5b5035919050565b6001600160a01b038116811461128b57600080fd5b60008060408385031215611f4157600080fd5b8235611f4c81611f19565b946020939093013593505050565b6020808252825182820181905260009190848201906040850190845b81811015611f9257835183529284019291840191600101611f76565b50909695505050505050565b600080600060608486031215611fb357600080fd5b8335611fbe81611f19565b92506020840135611fce81611f19565b929592945050506040919091013590565b600060208284031215611ff157600080fd5b813561114a81611f19565b6000806040838503121561200f57600080fd5b823561201a81611f19565b91506020830135801515811461202f57600080fd5b809150509250929050565b634e487b7160e01b600052604160045260246000fd5b604051601f8201601f1916810167ffffffffffffffff811182821017156120795761207961203a565b604052919050565b6000602080838503121561209457600080fd5b823567ffffffffffffffff808211156120ac57600080fd5b818501915085601f8301126120c057600080fd5b8135818111156120d2576120d261203a565b8060051b91506120e3848301612050565b81815291830184019184810190888411156120fd57600080fd5b938501935b8385101561211b57843582529385019390850190612102565b98975050505050505050565b6000806000806080858703121561213d57600080fd5b843561214881611f19565b935060208581013561215981611f19565b935060408601359250606086013567ffffffffffffffff8082111561217d57600080fd5b818801915088601f83011261219157600080fd5b8135818111156121a3576121a361203a565b6121b5601f8201601f19168501612050565b915080825289848285010111156121cb57600080fd5b808484018584013760008482840101525080935050505092959194509250565b60008083601f8401126121fd57600080fd5b50813567ffffffffffffffff81111561221557600080fd5b6020830191508360208260051b850101111561223057600080fd5b9250929050565b6000806000806040858703121561224d57600080fd5b843567ffffffffffffffff8082111561226557600080fd5b612271888389016121eb565b9096509450602087013591508082111561228a57600080fd5b50612297878288016121eb565b95989497509550505050565b600080604083850312156122b657600080fd5b82356122c181611f19565b9150602083013561202f81611f19565b600181811c908216806122e557607f821691505b60208210810361097757634e487b7160e01b600052602260045260246000fd5b60006020828403121561231757600080fd5b5051919050565b60006020828403121561233057600080fd5b815161114a81611f19565b634e487b7160e01b600052603260045260246000fd5b634e487b7160e01b600052601160045260246000fd5b8082018082111561045b5761045b612351565b60006001820161238c5761238c612351565b5060010190565b6020808252602d908201527f4552433732313a2063616c6c6572206973206e6f7420746f6b656e206f776e6560408201526c1c881bdc88185c1c1c9bdd9959609a1b606082015260800190565b600083516123f2818460208801611e9d565b835190830190612406818360208801611e9d565b01949350505050565b8181038181111561045b5761045b612351565b60208082526025908201527f4552433732313a207472616e736665722066726f6d20696e636f72726563742060408201526437bbb732b960d91b606082015260800190565b60208082526032908201527f4552433732313a207472616e7366657220746f206e6f6e20455243373231526560408201527131b2b4bb32b91034b6b83632b6b2b73a32b960711b606082015260800190565b634e487b7160e01b600052603160045260246000fd5b6001600160a01b038581168252841660208201526040810183905260806060820181905260009061250290830184611ec1565b9695505050505050565b60006020828403121561251e57600080fd5b815161114a81611e6a56fea2646970667358221220ea2d1a67ebdcec41cd8ad8edbaeb65abd564345e0becb583ff0ed03f775a173c64736f6c63430008110033",
  "immutableReferences": {},
  "source": "// SPDX-License-Identifier: GPL-3.0-or-later\npragma solidity 0.8.17;\n\nimport \"@openzeppelin/contracts/token/ERC721/ERC721.sol\";\nimport \"@openzeppelin/contracts/token/ERC721/extensions/ERC721Enumerable.sol\";\nimport \"@openzeppelin/contracts/security/Pausable.sol\";\nimport \"@openzeppelin/contracts/access/Ownable.sol\";\n\nimport \"./IERC998ERC721TopDownEnumerable.sol\";\n\n// A contract that reverses Tokens Equal Text.\n\ncontract TypeOppositeImages is ERC721, ERC721Enumerable, Pausable, Ownable {\n    uint256 public constant NUM_TOKENS = 32;\n\n    address private tet998;\n\n    mapping(uint256 => bytes32) public citehtsea;\n\n    constructor(address tet998Addr)\n        ERC721(\"Type Opposite Images\", \"TOI\")\n    {\n        tet998 = tet998Addr;\n        for (uint256 i = 1; i <= NUM_TOKENS; i++) {\n            _mint(msg.sender, i);\n        }\n    }\n\n    function addCitehtsea(\n        uint256[] calldata ids,\n        bytes32[] calldata vals\n    )\n        public\n        onlyOwner\n    {\n        require(ids.length == vals.length, \"Arguments must be same length.\");\n        for (uint256 i = 0; i < ids.length; i++) {\n            citehtsea[ids[i]] = vals[i];\n        }\n    }\n\n    function reverse(uint256[] memory texts)\n        public\n        view\n        returns (bytes32[] memory)\n    {\n        bytes32[] memory reversed = new bytes32[](texts.length);\n        for (uint256 i = 0; i < texts.length; i++) {\n            // This will be null/the empty string for uinknown texts.\n            reversed[i] = citehtsea[texts[i]];\n        }\n        return reversed;\n    }\n\n    function tet998TokenChildCount(uint256 tokenId)\n        public\n        view\n        returns(uint256)\n    {\n        // This will actually error in the called function,\n        // so this is for clarity.\n        // Yes, the 998 is also a 721.\n        require(ERC721(tet998).ownerOf(tokenId) != address(0), \"No such token\");\n        ERC998ERC721TopDownEnumerable\n            enumerable = ERC998ERC721TopDownEnumerable(tet998);\n        // No memory dynamic arrays in Solidity.\n        // So we walk the tree to calculate this.\n        // It would be fantastically wasteful to ever call this onchain.\n        uint256 childIdCount = 0;\n        uint256 numChildContracts = enumerable.totalChildContracts(tokenId);\n        for (uint256 c = 0; c < numChildContracts; c++) {\n            address childContract = enumerable.childContractByIndex(\n                tokenId,\n                c\n            );\n            uint256 numChildTokens = enumerable.totalChildTokens(\n                tokenId,\n                childContract\n            );\n            for (uint256 index = 0; index < numChildTokens; index++) {\n                childIdCount += 1;\n            }\n        }\n        return childIdCount;\n    }\n\n    function tet998TokenChildIds(uint256 tokenId)\n        public\n        view\n        returns(uint256[] memory childIds)\n    {\n        // No memory dynamic arrays in Solidity.\n        uint256 childIdCount = tet998TokenChildCount(tokenId);\n        childIds = new uint256[](childIdCount);\n        if (childIdCount > 0) {\n            ERC998ERC721TopDownEnumerable\n                enumerable = ERC998ERC721TopDownEnumerable(tet998);\n            uint256 childIdArrayIndex = 0;\n            uint256 numChildContracts = enumerable.totalChildContracts(tokenId);\n            for (uint256 c = 0; c < numChildContracts; c++) {\n                address childContract = enumerable.childContractByIndex(\n                    tokenId,\n                    c\n                );\n                uint256 numChildTokens = enumerable.totalChildTokens(\n                    tokenId,\n                    childContract\n                );\n                for (uint256 index = 0; index < numChildTokens; index++) {\n                    childIds[childIdArrayIndex] = enumerable.childTokenByIndex(\n                        tokenId,\n                        childContract,\n                        index\n                    );\n                    childIdArrayIndex += 1;\n                }\n            }\n            uint256[] memory childIdArray = new uint256[](childIdCount);\n            for (uint256 i = 0; i < childIdCount; i++) {\n                childIdArray[i] = childIds[i];\n            }\n            return childIdArray;\n        }\n    }\n\n    function aestheticToCitehtsea(uint256 tokenId)\n        public\n        view\n        returns (bytes32[] memory reversals)\n    {\n        uint256[] memory tetChildIds = tet998TokenChildIds(tokenId);\n        reversals = new bytes32[](tetChildIds.length);\n        for(uint256 i = 0; i < tetChildIds.length; i++) {\n            reversals[i] = citehtsea[tetChildIds[i]];\n        }\n        return reversals;\n    }\n\n    function setTet998Addr(address tet998Addr)\n        public\n        onlyOwner\n    {\n        require(\n            tet998Addr != address(0),\n            \"Cannot assign to 0x0, use burn address\"\n        );\n        tet998 = tet998Addr;\n    }\n\n    function pause() public onlyOwner {\n        _pause();\n    }\n\n    function unpause() public onlyOwner {\n        _unpause();\n    }\n\n    function _beforeTokenTransfer(address from, address to, uint256 tokenId, uint256 batchSize)\n        internal\n        whenNotPaused\n        override(ERC721, ERC721Enumerable)\n    {\n        super._beforeTokenTransfer(from, to, tokenId, batchSize);\n    }\n\n    // The following functions are overrides required by Solidity.\n\n    function supportsInterface(bytes4 interfaceId)\n        public\n        view\n        override(ERC721, ERC721Enumerable)\n        returns (bool)\n    {\n        return super.supportsInterface(interfaceId);\n    }\n}\n",
  "sourcePath": "/home/rhea/projects/type-opposite-images/contracts/TypeOppositeImages.sol",
  "compiler": {
    "name": "solc",
    "version": "0.8.17+commit.8df45f5f.Emscripten.clang"
  },
  "schemaVersion": "3.4.11",
  "updatedAt": "2023-01-12T00:22:14.903Z",
  "devdoc": {
    "kind": "dev",
    "methods": {
      "approve(address,uint256)": {
        "details": "See {IERC721-approve}."
      },
      "balanceOf(address)": {
        "details": "See {IERC721-balanceOf}."
      },
      "getApproved(uint256)": {
        "details": "See {IERC721-getApproved}."
      },
      "isApprovedForAll(address,address)": {
        "details": "See {IERC721-isApprovedForAll}."
      },
      "name()": {
        "details": "See {IERC721Metadata-name}."
      },
      "owner()": {
        "details": "Returns the address of the current owner."
      },
      "ownerOf(uint256)": {
        "details": "See {IERC721-ownerOf}."
      },
      "paused()": {
        "details": "Returns true if the contract is paused, and false otherwise."
      },
      "renounceOwnership()": {
        "details": "Leaves the contract without owner. It will not be possible to call `onlyOwner` functions anymore. Can only be called by the current owner. NOTE: Renouncing ownership will leave the contract without an owner, thereby removing any functionality that is only available to the owner."
      },
      "safeTransferFrom(address,address,uint256)": {
        "details": "See {IERC721-safeTransferFrom}."
      },
      "safeTransferFrom(address,address,uint256,bytes)": {
        "details": "See {IERC721-safeTransferFrom}."
      },
      "setApprovalForAll(address,bool)": {
        "details": "See {IERC721-setApprovalForAll}."
      },
      "symbol()": {
        "details": "See {IERC721Metadata-symbol}."
      },
      "tokenByIndex(uint256)": {
        "details": "See {IERC721Enumerable-tokenByIndex}."
      },
      "tokenOfOwnerByIndex(address,uint256)": {
        "details": "See {IERC721Enumerable-tokenOfOwnerByIndex}."
      },
      "tokenURI(uint256)": {
        "details": "See {IERC721Metadata-tokenURI}."
      },
      "totalSupply()": {
        "details": "See {IERC721Enumerable-totalSupply}."
      },
      "transferFrom(address,address,uint256)": {
        "details": "See {IERC721-transferFrom}."
      },
      "transferOwnership(address)": {
        "details": "Transfers ownership of the contract to a new account (`newOwner`). Can only be called by the current owner."
      }
    },
    "version": 1
  },
  "userdoc": {
    "kind": "user",
    "methods": {},
    "version": 1
  }
}