{
  "contractName": "TypeOppositeImages",
  "abi": [
    {
      "inputs": [
        {
          "internalType": "address",
          "name": "tet998Addr",
          "type": "address"
        }
      ],
      "stateMutability": "nonpayable",
      "type": "constructor"
    },
    {
      "anonymous": false,
      "inputs": [
        {
          "indexed": true,
          "internalType": "address",
          "name": "owner",
          "type": "address"
        },
        {
          "indexed": true,
          "internalType": "address",
          "name": "approved",
          "type": "address"
        },
        {
          "indexed": true,
          "internalType": "uint256",
          "name": "tokenId",
          "type": "uint256"
        }
      ],
      "name": "Approval",
      "type": "event"
    },
    {
      "anonymous": false,
      "inputs": [
        {
          "indexed": true,
          "internalType": "address",
          "name": "owner",
          "type": "address"
        },
        {
          "indexed": true,
          "internalType": "address",
          "name": "operator",
          "type": "address"
        },
        {
          "indexed": false,
          "internalType": "bool",
          "name": "approved",
          "type": "bool"
        }
      ],
      "name": "ApprovalForAll",
      "type": "event"
    },
    {
      "anonymous": false,
      "inputs": [
        {
          "indexed": true,
          "internalType": "address",
          "name": "previousOwner",
          "type": "address"
        },
        {
          "indexed": true,
          "internalType": "address",
          "name": "newOwner",
          "type": "address"
        }
      ],
      "name": "OwnershipTransferred",
      "type": "event"
    },
    {
      "anonymous": false,
      "inputs": [
        {
          "indexed": false,
          "internalType": "address",
          "name": "account",
          "type": "address"
        }
      ],
      "name": "Paused",
      "type": "event"
    },
    {
      "anonymous": false,
      "inputs": [
        {
          "indexed": true,
          "internalType": "address",
          "name": "from",
          "type": "address"
        },
        {
          "indexed": true,
          "internalType": "address",
          "name": "to",
          "type": "address"
        },
        {
          "indexed": true,
          "internalType": "uint256",
          "name": "tokenId",
          "type": "uint256"
        }
      ],
      "name": "Transfer",
      "type": "event"
    },
    {
      "anonymous": false,
      "inputs": [
        {
          "indexed": false,
          "internalType": "address",
          "name": "account",
          "type": "address"
        }
      ],
      "name": "Unpaused",
      "type": "event"
    },
    {
      "inputs": [],
      "name": "NUM_TOKENS",
      "outputs": [
        {
          "internalType": "uint256",
          "name": "",
          "type": "uint256"
        }
      ],
      "stateMutability": "view",
      "type": "function",
      "constant": true
    },
    {
      "inputs": [
        {
          "internalType": "address",
          "name": "to",
          "type": "address"
        },
        {
          "internalType": "uint256",
          "name": "tokenId",
          "type": "uint256"
        }
      ],
      "name": "approve",
      "outputs": [],
      "stateMutability": "nonpayable",
      "type": "function"
    },
    {
      "inputs": [
        {
          "internalType": "address",
          "name": "owner",
          "type": "address"
        }
      ],
      "name": "balanceOf",
      "outputs": [
        {
          "internalType": "uint256",
          "name": "",
          "type": "uint256"
        }
      ],
      "stateMutability": "view",
      "type": "function",
      "constant": true
    },
    {
      "inputs": [
        {
          "internalType": "uint256",
          "name": "tokenId",
          "type": "uint256"
        }
      ],
      "name": "getApproved",
      "outputs": [
        {
          "internalType": "address",
          "name": "",
          "type": "address"
        }
      ],
      "stateMutability": "view",
      "type": "function",
      "constant": true
    },
    {
      "inputs": [
        {
          "internalType": "address",
          "name": "owner",
          "type": "address"
        },
        {
          "internalType": "address",
          "name": "operator",
          "type": "address"
        }
      ],
      "name": "isApprovedForAll",
      "outputs": [
        {
          "internalType": "bool",
          "name": "",
          "type": "bool"
        }
      ],
      "stateMutability": "view",
      "type": "function",
      "constant": true
    },
    {
      "inputs": [],
      "name": "name",
      "outputs": [
        {
          "internalType": "string",
          "name": "",
          "type": "string"
        }
      ],
      "stateMutability": "view",
      "type": "function",
      "constant": true
    },
    {
      "inputs": [],
      "name": "owner",
      "outputs": [
        {
          "internalType": "address",
          "name": "",
          "type": "address"
        }
      ],
      "stateMutability": "view",
      "type": "function",
      "constant": true
    },
    {
      "inputs": [
        {
          "internalType": "uint256",
          "name": "tokenId",
          "type": "uint256"
        }
      ],
      "name": "ownerOf",
      "outputs": [
        {
          "internalType": "address",
          "name": "",
          "type": "address"
        }
      ],
      "stateMutability": "view",
      "type": "function",
      "constant": true
    },
    {
      "inputs": [],
      "name": "paused",
      "outputs": [
        {
          "internalType": "bool",
          "name": "",
          "type": "bool"
        }
      ],
      "stateMutability": "view",
      "type": "function",
      "constant": true
    },
    {
      "inputs": [],
      "name": "renounceOwnership",
      "outputs": [],
      "stateMutability": "nonpayable",
      "type": "function"
    },
    {
      "inputs": [
        {
          "internalType": "address",
          "name": "from",
          "type": "address"
        },
        {
          "internalType": "address",
          "name": "to",
          "type": "address"
        },
        {
          "internalType": "uint256",
          "name": "tokenId",
          "type": "uint256"
        }
      ],
      "name": "safeTransferFrom",
      "outputs": [],
      "stateMutability": "nonpayable",
      "type": "function"
    },
    {
      "inputs": [
        {
          "internalType": "address",
          "name": "from",
          "type": "address"
        },
        {
          "internalType": "address",
          "name": "to",
          "type": "address"
        },
        {
          "internalType": "uint256",
          "name": "tokenId",
          "type": "uint256"
        },
        {
          "internalType": "bytes",
          "name": "data",
          "type": "bytes"
        }
      ],
      "name": "safeTransferFrom",
      "outputs": [],
      "stateMutability": "nonpayable",
      "type": "function"
    },
    {
      "inputs": [
        {
          "internalType": "address",
          "name": "operator",
          "type": "address"
        },
        {
          "internalType": "bool",
          "name": "approved",
          "type": "bool"
        }
      ],
      "name": "setApprovalForAll",
      "outputs": [],
      "stateMutability": "nonpayable",
      "type": "function"
    },
    {
      "inputs": [],
      "name": "symbol",
      "outputs": [
        {
          "internalType": "string",
          "name": "",
          "type": "string"
        }
      ],
      "stateMutability": "view",
      "type": "function",
      "constant": true
    },
    {
      "inputs": [
        {
          "internalType": "uint256",
          "name": "index",
          "type": "uint256"
        }
      ],
      "name": "tokenByIndex",
      "outputs": [
        {
          "internalType": "uint256",
          "name": "",
          "type": "uint256"
        }
      ],
      "stateMutability": "view",
      "type": "function",
      "constant": true
    },
    {
      "inputs": [
        {
          "internalType": "address",
          "name": "owner",
          "type": "address"
        },
        {
          "internalType": "uint256",
          "name": "index",
          "type": "uint256"
        }
      ],
      "name": "tokenOfOwnerByIndex",
      "outputs": [
        {
          "internalType": "uint256",
          "name": "",
          "type": "uint256"
        }
      ],
      "stateMutability": "view",
      "type": "function",
      "constant": true
    },
    {
      "inputs": [
        {
          "internalType": "uint256",
          "name": "tokenId",
          "type": "uint256"
        }
      ],
      "name": "tokenURI",
      "outputs": [
        {
          "internalType": "string",
          "name": "",
          "type": "string"
        }
      ],
      "stateMutability": "view",
      "type": "function",
      "constant": true
    },
    {
      "inputs": [],
      "name": "totalSupply",
      "outputs": [
        {
          "internalType": "uint256",
          "name": "",
          "type": "uint256"
        }
      ],
      "stateMutability": "view",
      "type": "function",
      "constant": true
    },
    {
      "inputs": [
        {
          "internalType": "address",
          "name": "from",
          "type": "address"
        },
        {
          "internalType": "address",
          "name": "to",
          "type": "address"
        },
        {
          "internalType": "uint256",
          "name": "tokenId",
          "type": "uint256"
        }
      ],
      "name": "transferFrom",
      "outputs": [],
      "stateMutability": "nonpayable",
      "type": "function"
    },
    {
      "inputs": [
        {
          "internalType": "address",
          "name": "newOwner",
          "type": "address"
        }
      ],
      "name": "transferOwnership",
      "outputs": [],
      "stateMutability": "nonpayable",
      "type": "function"
    },
    {
      "inputs": [
        {
          "internalType": "uint256[]",
          "name": "ids",
          "type": "uint256[]"
        },
        {
          "internalType": "bytes32[]",
          "name": "vals",
          "type": "bytes32[]"
        }
      ],
      "name": "addCitehtsea",
      "outputs": [],
      "stateMutability": "nonpayable",
      "type": "function"
    },
    {
      "inputs": [
        {
          "internalType": "uint256[]",
          "name": "texts",
          "type": "uint256[]"
        }
      ],
      "name": "reverse",
      "outputs": [
        {
          "internalType": "bytes32[]",
          "name": "",
          "type": "bytes32[]"
        }
      ],
      "stateMutability": "view",
      "type": "function",
      "constant": true
    },
    {
      "inputs": [
        {
          "internalType": "uint256",
          "name": "tokenId",
          "type": "uint256"
        }
      ],
      "name": "tet998TokenChildCount",
      "outputs": [
        {
          "internalType": "uint256",
          "name": "",
          "type": "uint256"
        }
      ],
      "stateMutability": "view",
      "type": "function",
      "constant": true
    },
    {
      "inputs": [
        {
          "internalType": "uint256",
          "name": "tokenId",
          "type": "uint256"
        }
      ],
      "name": "tet998TokenChildIds",
      "outputs": [
        {
          "internalType": "uint256[]",
          "name": "childIds",
          "type": "uint256[]"
        }
      ],
      "stateMutability": "view",
      "type": "function",
      "constant": true
    },
    {
      "inputs": [
        {
          "internalType": "address",
          "name": "tet998Addr",
          "type": "address"
        }
      ],
      "name": "setTet998Addr",
      "outputs": [],
      "stateMutability": "nonpayable",
      "type": "function"
    },
    {
      "inputs": [],
      "name": "pause",
      "outputs": [],
      "stateMutability": "nonpayable",
      "type": "function"
    },
    {
      "inputs": [],
      "name": "unpause",
      "outputs": [],
      "stateMutability": "nonpayable",
      "type": "function"
    },
    {
      "inputs": [
        {
          "internalType": "bytes4",
          "name": "interfaceId",
          "type": "bytes4"
        }
      ],
      "name": "supportsInterface",
      "outputs": [
        {
          "internalType": "bool",
          "name": "",
          "type": "bool"
        }
      ],
      "stateMutability": "view",
      "type": "function",
      "constant": true
    }
  ],
  "bytecode": "0x60806040523480156200001157600080fd5b5060405162002d2b38038062002d2b8339810160408190526200003491620007b3565b6040518060400160405280601481526020017f54797065204f70706f7369746520496d6167657300000000000000000000000081525060405180604001604052806003815260200162544f4960e81b81525081600090816200009791906200088a565b506001620000a682826200088a565b5050600a805460ff1916905550620000be336200010e565b600b80546001600160a01b0319166001600160a01b03831617905560015b602081116200010657620000f1338262000168565b80620000fd816200096c565b915050620000dc565b5050620009e6565b600a80546001600160a01b03838116610100818102610100600160a81b031985161790945560405193909204169182907f8be0079c531659141344cd1fd0a4f28419497f9722a3daafe3b4186f6b6457e090600090a35050565b6001600160a01b038216620001c45760405162461bcd60e51b815260206004820181905260248201527f4552433732313a206d696e7420746f20746865207a65726f206164647265737360448201526064015b60405180910390fd5b6000818152600260205260409020546001600160a01b0316156200022b5760405162461bcd60e51b815260206004820152601c60248201527f4552433732313a20746f6b656e20616c7265616479206d696e746564000000006044820152606401620001bb565b6200023b6000838360016200030d565b6000818152600260205260409020546001600160a01b031615620002a25760405162461bcd60e51b815260206004820152601c60248201527f4552433732313a20746f6b656e20616c7265616479206d696e746564000000006044820152606401620001bb565b6001600160a01b038216600081815260036020908152604080832080546001019055848352600290915280822080546001600160a01b0319168417905551839291907fddf252ad1be2c89b69c2b068fc378daa952ba7f163c4a11628f55a4df523b3ef908290a45050565b6200031762000336565b62000330848484846200038060201b620010641760201c565b50505050565b600a5460ff16156200037e5760405162461bcd60e51b815260206004820152601060248201526f14185d5cd8589b194e881c185d5cd95960821b6044820152606401620001bb565b565b6200039984848484620004e460201b6200119d1760201c565b6001811115620004125760405162461bcd60e51b815260206004820152603560248201527f455243373231456e756d657261626c653a20636f6e736563757469766520747260448201527f616e7366657273206e6f7420737570706f7274656400000000000000000000006064820152608401620001bb565b816001600160a01b03851662000471576200046b81600880546000838152600960205260408120829055600182018355919091527ff3f7a9fe364faab93b216da50a3214154f22a0a2b415b23a84c8169e8b636ee30155565b62000497565b836001600160a01b0316856001600160a01b031614620004975762000497858262000573565b6001600160a01b038416620004b757620004b18162000620565b620004dd565b846001600160a01b0316846001600160a01b031614620004dd57620004dd8482620006da565b5050505050565b600181111562000330576001600160a01b038416156200052e576001600160a01b038416600090815260036020526040812080548392906200052890849062000988565b90915550505b6001600160a01b0383161562000330576001600160a01b0383166000908152600360205260408120805483929062000568908490620009a4565b909155505050505050565b600060016200058d846200072b60201b62000cd21760201c565b62000599919062000988565b600083815260076020526040902054909150808214620005ed576001600160a01b03841660009081526006602090815260408083208584528252808320548484528184208190558352600790915290208190555b5060009182526007602090815260408084208490556001600160a01b039094168352600681528383209183525290812055565b600854600090620006349060019062000988565b600083815260096020526040812054600880549394509092849081106200065f576200065f620009ba565b906000526020600020015490508060088381548110620006835762000683620009ba565b6000918252602080832090910192909255828152600990915260408082208490558582528120556008805480620006be57620006be620009d0565b6001900381819060005260206000200160009055905550505050565b6000620006f2836200072b60201b62000cd21760201c565b6001600160a01b039093166000908152600660209081526040808320868452825280832085905593825260079052919091209190915550565b60006001600160a01b038216620007975760405162461bcd60e51b815260206004820152602960248201527f4552433732313a2061646472657373207a65726f206973206e6f7420612076616044820152683634b21037bbb732b960b91b6064820152608401620001bb565b506001600160a01b031660009081526003602052604090205490565b600060208284031215620007c657600080fd5b81516001600160a01b0381168114620007de57600080fd5b9392505050565b634e487b7160e01b600052604160045260246000fd5b600181811c908216806200081057607f821691505b6020821081036200083157634e487b7160e01b600052602260045260246000fd5b50919050565b601f8211156200088557600081815260208120601f850160051c81016020861015620008605750805b601f850160051c820191505b8181101562000881578281556001016200086c565b5050505b505050565b81516001600160401b03811115620008a657620008a6620007e5565b620008be81620008b78454620007fb565b8462000837565b602080601f831160018114620008f65760008415620008dd5750858301515b600019600386901b1c1916600185901b17855562000881565b600085815260208120601f198616915b82811015620009275788860151825594840194600190910190840162000906565b5085821015620009465787850151600019600388901b60f8161c191681555b5050505050600190811b01905550565b634e487b7160e01b600052601160045260246000fd5b60006001820162000981576200098162000956565b5060010190565b818103818111156200099e576200099e62000956565b92915050565b808201808211156200099e576200099e62000956565b634e487b7160e01b600052603260045260246000fd5b634e487b7160e01b600052603160045260246000fd5b61233580620009f66000396000f3fe608060405234801561001057600080fd5b50600436106101c45760003560e01c80636a27855f116100f9578063a22cb46511610097578063c87b56dd11610071578063c87b56dd14610392578063e7b35cd5146103a5578063e985e9c5146103b8578063f2fde38b146103f457600080fd5b8063a22cb46514610359578063a9333cfc1461036c578063b88d4fde1461037f57600080fd5b806377d06ad3116100d357806377d06ad3146103205780638456cb59146103335780638da5cb5b1461033b57806395d89b411461035157600080fd5b80636a27855f146102f257806370a0823114610305578063715018a61461031857600080fd5b80632f745c591161016657806342842e0e1161014057806342842e0e146102ae5780634f6ccce7146102c15780635c975abb146102d45780636352211e146102df57600080fd5b80632f745c591461028b5780633f4ba83a1461029e5780634149db48146102a657600080fd5b8063095ea7b3116101a2578063095ea7b3146102315780630ef766521461024657806318160ddd1461026657806323b872dd1461027857600080fd5b806301ffc9a7146101c957806306fdde03146101f1578063081812fc14610206575b600080fd5b6101dc6101d7366004611c56565b610407565b60405190151581526020015b60405180910390f35b6101f9610418565b6040516101e89190611cc3565b610219610214366004611cd6565b6104aa565b6040516001600160a01b0390911681526020016101e8565b61024461023f366004611d04565b6104d1565b005b610259610254366004611cd6565b6105eb565b6040516101e89190611d30565b6008545b6040519081526020016101e8565b610244610286366004611d74565b610932565b61026a610299366004611d04565b610963565b6102446109f9565b61026a602081565b6102446102bc366004611d74565b610a0b565b61026a6102cf366004611cd6565b610a26565b600a5460ff166101dc565b6102196102ed366004611cd6565b610ab9565b61026a610300366004611cd6565b610b19565b61026a610313366004611db5565b610cd2565b610244610d58565b61024461032e366004611db5565b610d6a565b610244610d94565b600a5461010090046001600160a01b0316610219565b6101f9610da4565b610244610367366004611dd2565b610db3565b61025961037a366004611e57565b610dc2565b61024461038d366004611efd565b610e7b565b6101f96103a0366004611cd6565b610eb3565b6102446103b336600461200d565b610f27565b6101dc6103c6366004612079565b6001600160a01b03918216600090815260056020908152604080832093909416825291909152205460ff1690565b610244610402366004611db5565b610feb565b600061041282611225565b92915050565b606060008054610427906120a7565b80601f0160208091040260200160405190810160405280929190818152602001828054610453906120a7565b80156104a05780601f10610475576101008083540402835291602001916104a0565b820191906000526020600020905b81548152906001019060200180831161048357829003601f168201915b5050505050905090565b60006104b58261124a565b506000908152600460205260409020546001600160a01b031690565b60006104dc82610ab9565b9050806001600160a01b0316836001600160a01b03160361054e5760405162461bcd60e51b815260206004820152602160248201527f4552433732313a20617070726f76616c20746f2063757272656e74206f776e656044820152603960f91b60648201526084015b60405180910390fd5b336001600160a01b038216148061056a575061056a81336103c6565b6105dc5760405162461bcd60e51b815260206004820152603d60248201527f4552433732313a20617070726f76652063616c6c6572206973206e6f7420746f60448201527f6b656e206f776e6572206f7220617070726f76656420666f7220616c6c0000006064820152608401610545565b6105e683836112a9565b505050565b606060006105f883610b19565b90508067ffffffffffffffff81111561061357610613611e10565b60405190808252806020026020018201604052801561063c578160200160208202803683370190505b509150801561092c57600b54604051638da7d0b560e01b8152600481018590526000916001600160a01b03169082908290638da7d0b590602401602060405180830381865afa158015610693573d6000803e3d6000fd5b505050506040513d601f19601f820116820180604052508101906106b791906120db565b905060005b8181101561088557604051630d5a621b60e01b815260048101889052602481018290526000906001600160a01b03851690630d5a621b90604401602060405180830381865afa158015610713573d6000803e3d6000fd5b505050506040513d601f19601f8201168201806040525081019061073791906120f4565b6040516335b21ceb60e01b8152600481018a90526001600160a01b0380831660248301529192506000918616906335b21ceb90604401602060405180830381865afa15801561078a573d6000803e3d6000fd5b505050506040513d601f19601f820116820180604052508101906107ae91906120db565b905060005b8181101561086f5760405163160b01a160e01b8152600481018b90526001600160a01b0384811660248301526044820183905287169063160b01a190606401602060405180830381865afa15801561080f573d6000803e3d6000fd5b505050506040513d601f19601f8201168201806040525081019061083391906120db565b89888151811061084557610845612111565b602090810291909101015261085b60018861213d565b96508061086781612150565b9150506107b3565b505050808061087d90612150565b9150506106bc565b5060008467ffffffffffffffff8111156108a1576108a1611e10565b6040519080825280602002602001820160405280156108ca578160200160208202803683370190505b50905060005b85811015610921578681815181106108ea576108ea612111565b602002602001015182828151811061090457610904612111565b60209081029190910101528061091981612150565b9150506108d0565b509695505050505050565b50919050565b61093c3382611317565b6109585760405162461bcd60e51b815260040161054590612169565b6105e6838383611396565b600061096e83610cd2565b82106109d05760405162461bcd60e51b815260206004820152602b60248201527f455243373231456e756d657261626c653a206f776e657220696e646578206f7560448201526a74206f6620626f756e647360a81b6064820152608401610545565b506001600160a01b03919091166000908152600660209081526040808320938352929052205490565b610a01611507565b610a09611567565b565b6105e683838360405180602001604052806000815250610e7b565b6000610a3160085490565b8210610a945760405162461bcd60e51b815260206004820152602c60248201527f455243373231456e756d657261626c653a20676c6f62616c20696e646578206f60448201526b7574206f6620626f756e647360a01b6064820152608401610545565b60088281548110610aa757610aa7612111565b90600052602060002001549050919050565b6000818152600260205260408120546001600160a01b0316806104125760405162461bcd60e51b8152602060048201526018602482015277115490cdcc8c4e881a5b9d985b1a59081d1bdad95b88125160421b6044820152606401610545565b600b54604051638da7d0b560e01b81526004810183905260009182916001600160a01b039091169082908290638da7d0b590602401602060405180830381865afa158015610b6b573d6000803e3d6000fd5b505050506040513d601f19601f82011682018060405250810190610b8f91906120db565b905060005b81811015610cc857604051630d5a621b60e01b815260048101879052602481018290526000906001600160a01b03851690630d5a621b90604401602060405180830381865afa158015610beb573d6000803e3d6000fd5b505050506040513d601f19601f82011682018060405250810190610c0f91906120f4565b6040516335b21ceb60e01b8152600481018990526001600160a01b0380831660248301529192506000918616906335b21ceb90604401602060405180830381865afa158015610c62573d6000803e3d6000fd5b505050506040513d601f19601f82011682018060405250810190610c8691906120db565b905060005b81811015610cb257610c9e60018861213d565b965080610caa81612150565b915050610c8b565b5050508080610cc090612150565b915050610b94565b5091949350505050565b60006001600160a01b038216610d3c5760405162461bcd60e51b815260206004820152602960248201527f4552433732313a2061646472657373207a65726f206973206e6f7420612076616044820152683634b21037bbb732b960b91b6064820152608401610545565b506001600160a01b031660009081526003602052604090205490565b610d60611507565b610a0960006115b9565b610d72611507565b600b80546001600160a01b0319166001600160a01b0392909216919091179055565b610d9c611507565b610a09611613565b606060018054610427906120a7565b610dbe338383611650565b5050565b60606000825167ffffffffffffffff811115610de057610de0611e10565b604051908082528060200260200182016040528015610e09578160200160208202803683370190505b50905060005b8351811015610e7457600c6000858381518110610e2e57610e2e612111565b6020026020010151815260200190815260200160002054828281518110610e5757610e57612111565b602090810291909101015280610e6c81612150565b915050610e0f565b5092915050565b610e853383611317565b610ea15760405162461bcd60e51b815260040161054590612169565b610ead8484848461171e565b50505050565b6060610ebe8261124a565b6000610ed560408051602081019091526000815290565b90506000815111610ef55760405180602001604052806000815250610f20565b80610eff84611751565b604051602001610f109291906121b6565b6040516020818303038152906040525b9392505050565b610f2f611507565b828114610f7e5760405162461bcd60e51b815260206004820152601e60248201527f417267756d656e7473206d7573742062652073616d65206c656e6774682e00006044820152606401610545565b60005b83811015610fe457828282818110610f9b57610f9b612111565b90506020020135600c6000878785818110610fb857610fb8612111565b905060200201358152602001908152602001600020819055508080610fdc90612150565b915050610f81565b5050505050565b610ff3611507565b6001600160a01b0381166110585760405162461bcd60e51b815260206004820152602660248201527f4f776e61626c653a206e6577206f776e657220697320746865207a65726f206160448201526564647265737360d01b6064820152608401610545565b611061816115b9565b50565b6110708484848461119d565b60018111156110df5760405162461bcd60e51b815260206004820152603560248201527f455243373231456e756d657261626c653a20636f6e7365637574697665207472604482015274185b9cd9995c9cc81b9bdd081cdd5c1c1bdc9d1959605a1b6064820152608401610545565b816001600160a01b03851661113b5761113681600880546000838152600960205260408120829055600182018355919091527ff3f7a9fe364faab93b216da50a3214154f22a0a2b415b23a84c8169e8b636ee30155565b61115e565b836001600160a01b0316856001600160a01b03161461115e5761115e85826117e4565b6001600160a01b03841661117a5761117581611881565b610fe4565b846001600160a01b0316846001600160a01b031614610fe457610fe48482611930565b6001811115610ead576001600160a01b038416156111e3576001600160a01b038416600090815260036020526040812080548392906111dd9084906121e5565b90915550505b6001600160a01b03831615610ead576001600160a01b0383166000908152600360205260408120805483929061121a90849061213d565b909155505050505050565b60006001600160e01b0319821663780e9d6360e01b1480610412575061041282611974565b6000818152600260205260409020546001600160a01b03166110615760405162461bcd60e51b8152602060048201526018602482015277115490cdcc8c4e881a5b9d985b1a59081d1bdad95b88125160421b6044820152606401610545565b600081815260046020526040902080546001600160a01b0319166001600160a01b03841690811790915581906112de82610ab9565b6001600160a01b03167f8c5be1e5ebec7d5bd14f71427d1e84f3dd0314c0f7b2291e5b200ac8c7c3b92560405160405180910390a45050565b60008061132383610ab9565b9050806001600160a01b0316846001600160a01b0316148061136a57506001600160a01b0380821660009081526005602090815260408083209388168352929052205460ff165b8061138e5750836001600160a01b0316611383846104aa565b6001600160a01b0316145b949350505050565b826001600160a01b03166113a982610ab9565b6001600160a01b0316146113cf5760405162461bcd60e51b8152600401610545906121f8565b6001600160a01b0382166114315760405162461bcd60e51b8152602060048201526024808201527f4552433732313a207472616e7366657220746f20746865207a65726f206164646044820152637265737360e01b6064820152608401610545565b61143e83838360016119c4565b826001600160a01b031661145182610ab9565b6001600160a01b0316146114775760405162461bcd60e51b8152600401610545906121f8565b600081815260046020908152604080832080546001600160a01b03199081169091556001600160a01b0387811680865260038552838620805460001901905590871680865283862080546001019055868652600290945282852080549092168417909155905184937fddf252ad1be2c89b69c2b068fc378daa952ba7f163c4a11628f55a4df523b3ef91a4505050565b600a546001600160a01b03610100909104163314610a095760405162461bcd60e51b815260206004820181905260248201527f4f776e61626c653a2063616c6c6572206973206e6f7420746865206f776e65726044820152606401610545565b61156f6119d8565b600a805460ff191690557f5db9ee0a495bf2e6ff9c91a7834c1ba4fdd244a5e8aa4e537bd38aeae4b073aa335b6040516001600160a01b03909116815260200160405180910390a1565b600a80546001600160a01b03838116610100818102610100600160a81b031985161790945560405193909204169182907f8be0079c531659141344cd1fd0a4f28419497f9722a3daafe3b4186f6b6457e090600090a35050565b61161b611a21565b600a805460ff191660011790557f62e78cea01bee320cd4e420270b5ea74000d11b0c9f74754ebdbfc544b05a25861159c3390565b816001600160a01b0316836001600160a01b0316036116b15760405162461bcd60e51b815260206004820152601960248201527f4552433732313a20617070726f766520746f2063616c6c6572000000000000006044820152606401610545565b6001600160a01b03838116600081815260056020908152604080832094871680845294825291829020805460ff191686151590811790915591519182527f17307eab39ab6107e8899845ad3d59bd9653f200f220920489ca2b5937696c31910160405180910390a3505050565b611729848484611396565b61173584848484611a67565b610ead5760405162461bcd60e51b81526004016105459061223d565b6060600061175e83611b68565b600101905060008167ffffffffffffffff81111561177e5761177e611e10565b6040519080825280601f01601f1916602001820160405280156117a8576020820181803683370190505b5090508181016020015b600019016f181899199a1a9b1b9c1cb0b131b232b360811b600a86061a8153600a85049450846117b257509392505050565b600060016117f184610cd2565b6117fb91906121e5565b60008381526007602052604090205490915080821461184e576001600160a01b03841660009081526006602090815260408083208584528252808320548484528184208190558352600790915290208190555b5060009182526007602090815260408084208490556001600160a01b039094168352600681528383209183525290812055565b600854600090611893906001906121e5565b600083815260096020526040812054600880549394509092849081106118bb576118bb612111565b9060005260206000200154905080600883815481106118dc576118dc612111565b60009182526020808320909101929092558281526009909152604080822084905585825281205560088054806119145761191461228f565b6001900381819060005260206000200160009055905550505050565b600061193b83610cd2565b6001600160a01b039093166000908152600660209081526040808320868452825280832085905593825260079052919091209190915550565b60006001600160e01b031982166380ac58cd60e01b14806119a557506001600160e01b03198216635b5e139f60e01b145b8061041257506301ffc9a760e01b6001600160e01b0319831614610412565b6119cc611a21565b610ead84848484611064565b600a5460ff16610a095760405162461bcd60e51b815260206004820152601460248201527314185d5cd8589b194e881b9bdd081c185d5cd95960621b6044820152606401610545565b600a5460ff1615610a095760405162461bcd60e51b815260206004820152601060248201526f14185d5cd8589b194e881c185d5cd95960821b6044820152606401610545565b60006001600160a01b0384163b15611b5d57604051630a85bd0160e11b81526001600160a01b0385169063150b7a0290611aab9033908990889088906004016122a5565b6020604051808303816000875af1925050508015611ae6575060408051601f3d908101601f19168201909252611ae3918101906122e2565b60015b611b43573d808015611b14576040519150601f19603f3d011682016040523d82523d6000602084013e611b19565b606091505b508051600003611b3b5760405162461bcd60e51b81526004016105459061223d565b805181602001fd5b6001600160e01b031916630a85bd0160e11b14905061138e565b506001949350505050565b60008072184f03e93ff9f4daa797ed6e38ed64bf6a1f0160401b8310611ba75772184f03e93ff9f4daa797ed6e38ed64bf6a1f0160401b830492506040015b6d04ee2d6d415b85acef81000000008310611bd3576d04ee2d6d415b85acef8100000000830492506020015b662386f26fc100008310611bf157662386f26fc10000830492506010015b6305f5e1008310611c09576305f5e100830492506008015b6127108310611c1d57612710830492506004015b60648310611c2f576064830492506002015b600a83106104125760010192915050565b6001600160e01b03198116811461106157600080fd5b600060208284031215611c6857600080fd5b8135610f2081611c40565b60005b83811015611c8e578181015183820152602001611c76565b50506000910152565b60008151808452611caf816020860160208601611c73565b601f01601f19169290920160200192915050565b602081526000610f206020830184611c97565b600060208284031215611ce857600080fd5b5035919050565b6001600160a01b038116811461106157600080fd5b60008060408385031215611d1757600080fd5b8235611d2281611cef565b946020939093013593505050565b6020808252825182820181905260009190848201906040850190845b81811015611d6857835183529284019291840191600101611d4c565b50909695505050505050565b600080600060608486031215611d8957600080fd5b8335611d9481611cef565b92506020840135611da481611cef565b929592945050506040919091013590565b600060208284031215611dc757600080fd5b8135610f2081611cef565b60008060408385031215611de557600080fd5b8235611df081611cef565b915060208301358015158114611e0557600080fd5b809150509250929050565b634e487b7160e01b600052604160045260246000fd5b604051601f8201601f1916810167ffffffffffffffff81118282101715611e4f57611e4f611e10565b604052919050565b60006020808385031215611e6a57600080fd5b823567ffffffffffffffff80821115611e8257600080fd5b818501915085601f830112611e9657600080fd5b813581811115611ea857611ea8611e10565b8060051b9150611eb9848301611e26565b8181529183018401918481019088841115611ed357600080fd5b938501935b83851015611ef157843582529385019390850190611ed8565b98975050505050505050565b60008060008060808587031215611f1357600080fd5b8435611f1e81611cef565b9350602085810135611f2f81611cef565b935060408601359250606086013567ffffffffffffffff80821115611f5357600080fd5b818801915088601f830112611f6757600080fd5b813581811115611f7957611f79611e10565b611f8b601f8201601f19168501611e26565b91508082528984828501011115611fa157600080fd5b808484018584013760008482840101525080935050505092959194509250565b60008083601f840112611fd357600080fd5b50813567ffffffffffffffff811115611feb57600080fd5b6020830191508360208260051b850101111561200657600080fd5b9250929050565b6000806000806040858703121561202357600080fd5b843567ffffffffffffffff8082111561203b57600080fd5b61204788838901611fc1565b9096509450602087013591508082111561206057600080fd5b5061206d87828801611fc1565b95989497509550505050565b6000806040838503121561208c57600080fd5b823561209781611cef565b91506020830135611e0581611cef565b600181811c908216806120bb57607f821691505b60208210810361092c57634e487b7160e01b600052602260045260246000fd5b6000602082840312156120ed57600080fd5b5051919050565b60006020828403121561210657600080fd5b8151610f2081611cef565b634e487b7160e01b600052603260045260246000fd5b634e487b7160e01b600052601160045260246000fd5b8082018082111561041257610412612127565b60006001820161216257612162612127565b5060010190565b6020808252602d908201527f4552433732313a2063616c6c6572206973206e6f7420746f6b656e206f776e6560408201526c1c881bdc88185c1c1c9bdd9959609a1b606082015260800190565b600083516121c8818460208801611c73565b8351908301906121dc818360208801611c73565b01949350505050565b8181038181111561041257610412612127565b60208082526025908201527f4552433732313a207472616e736665722066726f6d20696e636f72726563742060408201526437bbb732b960d91b606082015260800190565b60208082526032908201527f4552433732313a207472616e7366657220746f206e6f6e20455243373231526560408201527131b2b4bb32b91034b6b83632b6b2b73a32b960711b606082015260800190565b634e487b7160e01b600052603160045260246000fd5b6001600160a01b03858116825284166020820152604081018390526080606082018190526000906122d890830184611c97565b9695505050505050565b6000602082840312156122f457600080fd5b8151610f2081611c4056fea26469706673582212202693a8d6429a3e8ed70e206c33bdefde35135640f9e377043df0b5b879f5af1964736f6c63430008110033",
  "immutableReferences": {},
  "source": "// SPDX-License-Identifier: GPL-3.0-or-later\npragma solidity ^0.8.17;\n\nimport \"@openzeppelin/contracts/token/ERC721/ERC721.sol\";\nimport \"@openzeppelin/contracts/token/ERC721/extensions/ERC721Enumerable.sol\";\nimport \"@openzeppelin/contracts/security/Pausable.sol\";\nimport \"@openzeppelin/contracts/access/Ownable.sol\";\n\nimport \"./IERC998ERC721TopDownEnumerable.sol\";\n\n// A contract where each token is/is not art based on the vote of its owner.\n\ncontract TypeOppositeImages is ERC721, ERC721Enumerable, Pausable, Ownable {\n    uint256 public constant NUM_TOKENS = 32;\n\n    address tet998;\n\n    mapping(uint256 => bytes32) citehtsea;\n    \n    constructor(address tet998Addr)\n        ERC721(\"Type Opposite Images\", \"TOI\")\n    {\n        tet998 = tet998Addr;\n        for (uint256 i = 1; i <= NUM_TOKENS; i++) {\n            _mint(msg.sender, i);\n        }\n    }\n\n    function addCitehtsea(\n        uint256[] calldata ids,\n        bytes32[] calldata vals\n    )\n        public\n        onlyOwner\n    {\n        require(ids.length == vals.length, \"Arguments must be same length.\");\n        for (uint256 i = 0; i < ids.length; i++) {\n            citehtsea[ids[i]] = vals[i];\n        }\n    }\n\n    function reverse(uint256[] memory texts)\n        public\n        view\n        returns (bytes32[] memory)\n    {\n        bytes32[] memory reversed = new bytes32[](texts.length);\n        for (uint256 i = 0; i < texts.length; i++) {\n            // This will be null/the empty string for uinknown texts.\n            reversed[i] = citehtsea[texts[i]];\n        }\n        return reversed;\n    }\n\n    \n    function tet998TokenChildCount(uint256 tokenId)\n        public\n        view\n        returns(uint256)\n    {\n        // No memory dynamic arrays in Solidity.\n        // So we walk the tree to calculate this.\n        // It would be fantastically wasteful to ever call this onchain.\n        uint256 childIdCount = 0;\n        ERC998ERC721TopDownEnumerable enumerable\n            = ERC998ERC721TopDownEnumerable(tet998);\n        uint256 numChildContracts = enumerable.totalChildContracts(tokenId);\n        for (uint256 c = 0; c < numChildContracts; c++) {\n            address childContract = enumerable.childContractByIndex(\n                tokenId,\n                c\n            );\n            uint256 numChildTokens = enumerable.totalChildTokens(\n                tokenId,\n                childContract\n            );\n            for (uint256 index = 0; index < numChildTokens; index++) {\n                childIdCount += 1;\n            }\n        }\n        return childIdCount;\n    }\n\n    function tet998TokenChildIds(uint256 tokenId)\n        public\n        view\n        returns(uint256[] memory childIds)\n    {\n        // No memory dynamic arrays in Solidity.\n        uint256 childIdCount = tet998TokenChildCount(tokenId);\n        childIds = new uint256[](childIdCount);\n        if (childIdCount > 0) {\n            uint256 childIdArrayIndex = 0;\n            ERC998ERC721TopDownEnumerable enumerable\n                = ERC998ERC721TopDownEnumerable(tet998);\n            uint256 numChildContracts = enumerable.totalChildContracts(tokenId);\n            for (uint256 c = 0; c < numChildContracts; c++) {\n                address childContract = enumerable.childContractByIndex(\n                    tokenId,\n                    c\n                );\n                uint256 numChildTokens = enumerable.totalChildTokens(\n                    tokenId,\n                    childContract\n                );\n                for (uint256 index = 0; index < numChildTokens; index++) {\n                    childIds[childIdArrayIndex] = enumerable.childTokenByIndex(\n                        tokenId,\n                        childContract,\n                        index\n                    );\n                    childIdArrayIndex += 1;\n                }\n            }\n            uint256[] memory childIdArray = new uint256[](childIdCount);\n            for (uint256 i = 0; i < childIdCount; i++) {\n                childIdArray[i] = childIds[i];\n            }\n            return childIdArray;\n        }\n    }\n\n    function setTet998Addr(address tet998Addr)\n        public\n        onlyOwner\n    {\n        tet998 = tet998Addr;\n    }\n\n    function pause() public onlyOwner {\n        _pause();\n    }\n\n    function unpause() public onlyOwner {\n        _unpause();\n    }\n\n    function _beforeTokenTransfer(address from, address to, uint256 tokenId, uint256 batchSize)\n        internal\n        whenNotPaused\n        override(ERC721, ERC721Enumerable)\n    {\n        super._beforeTokenTransfer(from, to, tokenId, batchSize);\n    }\n\n    // The following functions are overrides required by Solidity.\n\n    function supportsInterface(bytes4 interfaceId)\n        public\n        view\n        override(ERC721, ERC721Enumerable)\n        returns (bool)\n    {\n        return super.supportsInterface(interfaceId);\n    }\n}\n",
  "sourcePath": "/home/rhea/projects/type-opposite-images/contracts/TypeOppositeImages.sol",
  "compiler": {
    "name": "solc",
    "version": "0.8.17+commit.8df45f5f.Emscripten.clang"
  },
  "schemaVersion": "3.4.11",
  "updatedAt": "2023-01-04T02:08:55.139Z",
  "networkType": "ethereum",
  "devdoc": {
    "kind": "dev",
    "methods": {
      "approve(address,uint256)": {
        "details": "See {IERC721-approve}."
      },
      "balanceOf(address)": {
        "details": "See {IERC721-balanceOf}."
      },
      "getApproved(uint256)": {
        "details": "See {IERC721-getApproved}."
      },
      "isApprovedForAll(address,address)": {
        "details": "See {IERC721-isApprovedForAll}."
      },
      "name()": {
        "details": "See {IERC721Metadata-name}."
      },
      "owner()": {
        "details": "Returns the address of the current owner."
      },
      "ownerOf(uint256)": {
        "details": "See {IERC721-ownerOf}."
      },
      "paused()": {
        "details": "Returns true if the contract is paused, and false otherwise."
      },
      "renounceOwnership()": {
        "details": "Leaves the contract without owner. It will not be possible to call `onlyOwner` functions anymore. Can only be called by the current owner. NOTE: Renouncing ownership will leave the contract without an owner, thereby removing any functionality that is only available to the owner."
      },
      "safeTransferFrom(address,address,uint256)": {
        "details": "See {IERC721-safeTransferFrom}."
      },
      "safeTransferFrom(address,address,uint256,bytes)": {
        "details": "See {IERC721-safeTransferFrom}."
      },
      "setApprovalForAll(address,bool)": {
        "details": "See {IERC721-setApprovalForAll}."
      },
      "symbol()": {
        "details": "See {IERC721Metadata-symbol}."
      },
      "tokenByIndex(uint256)": {
        "details": "See {IERC721Enumerable-tokenByIndex}."
      },
      "tokenOfOwnerByIndex(address,uint256)": {
        "details": "See {IERC721Enumerable-tokenOfOwnerByIndex}."
      },
      "tokenURI(uint256)": {
        "details": "See {IERC721Metadata-tokenURI}."
      },
      "totalSupply()": {
        "details": "See {IERC721Enumerable-totalSupply}."
      },
      "transferFrom(address,address,uint256)": {
        "details": "See {IERC721-transferFrom}."
      },
      "transferOwnership(address)": {
        "details": "Transfers ownership of the contract to a new account (`newOwner`). Can only be called by the current owner."
      }
    },
    "version": 1
  },
  "userdoc": {
    "kind": "user",
    "methods": {},
    "version": 1
  }
}